02RETORNO01COBRANCA       00000000000005034448E-PREPAG ADMINISTRADORA DE CAR237BRADESCO       3108210160000000757                                                                                                                                                                                                                                                                          010921         000001
1021903727600017200000260206200016896                         00000000100031190129000000000000000000000000060231082126/100031100000000100031190129310821000000000223223704436  000000000008200000000000000000000000000000000000000000000000000000000000000000000000000000000000000000000000000000000                          0000000000                                                                  000002
1021903727600017200000260206200016896                         00000000100031190897000000000000000000000000060231082126/100031100000000100031190897310821000000000895523704151  000000000008200000000000000000000000000000000000000000000000000000000000000000000000000000000000000000000000000000000                          0000000000                                                                  000003
1021903727600017200000260206200016896                         00000000100031250059000000000000000000000000060231082126/100031200000000100031250059310821000000004559023704400  000000000008200000000000000000000000000000000000000000000000000000000000000000000000000000000000000000000000000000000                          0000000000                                                                  000004
1021903727600017200000260206200016896                         0000000020001372787P000000000000000000000000060231082126/20001370000000020001372787P030921000000001554923700321  000000000000000000000000000000000000000000000000000000000000000000000000000000000000000000000000000000000000000000000                          0000000000                                                                  000005
1021903727600017200000260206200016896                         00000000200175771252000000000000000000000000060231082126/200175700000000200175771252030921000000000500023703162  000000000008200000000000000000000000000000000000000000000000000000000000000000000000000000000000000000000000000000000                          0000000000                                                                  000006
1021903727600017200000260206200016896                         00000000200349937368000000000000000000000000060231082126/200349900000000200349937368030921000000003000023704143  000000000008200000000000000000000000000000000000000000000000000000000000000000000000000000000000000000000000000000000                          7600000000                                                                  000007
1021903727600017200000260206200016896                         00000000200400801417000000000000000000000000060231082126/200400800000000200400801417030921000000000331023704422  000000000008200000000000000000000000000000000000000000000000000000000000000000000000000000000000000000000000000000000                          0000000000                                                                  000008
1021903727600017200000260206200016896                         00000000200546594936000000000000000000000000060231082126/200546500000000200546594936030921000000000190423704151  000000000000000000000000000000000000000000000000000000000000000000000000000000000000000000000000000000000000000000000                          0000000000                                                                  000009
1021903727600017200000260206200016896                         00000000200550851676000000000000000000000000060231082126/200550800000000200550851676030921000000000622223704151  000000000008200000000000000000000000000000000000000000000000000000000000000000000000000000000000000000000000000000000                          7600000000                                                                  000010
1021903727600017200000260206200016896                         00000000200562793922000000000000000000000000060231082126/200562700000000200562793922030921000000000500023704422  000000000008200000000000000000000000000000000000000000000000000000000000000000000000000000000000000000000000000000000                          0000000000                                                                  000011
1021903727600017200000260206200016896                         00000000200615476924000000000000000000000000060231082126/200615400000000200615476924030921000000000305123704400  000000000000000000000000000000000000000000000000000000000000000000000000000000000000000000000000000000000000000000000                          0000000000                                                                  000012
1021903727600017200000260206200016896                         00000000200654840188000000000000000000000000060231082126/200654800000000200654840188030921000000000500023700408  000000000008200000000000000000000000000000000000000000000000000000000000000000000000000000000000000000000000000000000                          0000000000                                                                  000013
1021903727600017200000260206200016896                         00000000200854012018000000000000000000000000060231082126/200854000000000200854012018030921000000000500023704157  000000000008200000000000000000000000000000000000000000000000000000000000000000000000000000000000000000000000000000000                          0000000000                                                                  000014
1021903727600017200000260206200016896                         00000000200936149275000000000000000000000000060231082126/200936100000000200936149275030921000000000269923704400  000000000000000000000000000000000000000000000000000000000000000000000000000000000000000000000000000000000000000000000                          0000000000                                                                  000015
1021903727600017200000260206200016896                         00000000200941146403000000000000000000000000060231082126/200941100000000200941146403030921000000000206623704422  000000000008200000000000000000000000000000000000000000000000000000000000000000000000000000000000000000000000000000000                          0000000000                                                                  000016
1021903727600017200000260206200016896                         00000000400012651925000000000000000000000000060231082126/400012600000000400012651925030921000000000800023704159  000000000008200000000000000000000000000000000000000000000000000000000000000000000000000000000000000000000000000000000                          0000000000                                                                  000017
1021903727600017200000260206200016896                         00000000400023453939000000000000000000000000060231082126/400023400000000400023453939030921000000000800023704452  000000000008200000000000000000000000000000000000000000000000000000000000000000000000000000000000000000000000000000000                          0000000000                                                                  000018
1021903727600017200000260206200016896                         00000000400028072127000000000000000000000000060231082126/400028000000000400028072127030921000000000800023704452  000000000008200000000000000000000000000000000000000000000000000000000000000000000000000000000000000000000000000000000                          0000000000                                                                  000019
1021903727600017200000260206200016896                         00000000400037774819000000000000000000000000060231082126/400037700000000400037774819030921000000015000023704157  000000000008200000000000000000000000000000000000000000000000000000000000000000000000000000000000000000000000000000000                          0000000000                                                                  000020
1021903727600017200000260206200016896                         00000000400054735975000000000000000000000000060231082126/400054700000000400054735975030921000000012000023704154  000000000008200000000000000000000000000000000000000000000000000000000000000000000000000000000000000000000000000000000                          0000000000                                                                  000021
1021903727600017200000260206200016896                         00000000400062648844000000000000000000000000060231082126/400062600000000400062648844030921000000002500023704159  000000000008200000000000000000000000000000000000000000000000000000000000000000000000000000000000000000000000000000000                          0000000000                                                                  000022
1021903727600017200000260206200016896                         00000000400072619419000000000000000000000000060231082126/400072600000000400072619419030921000000200000023704143  000000000008200000000000000000000000000000000000000000000000000000000000000000000000000000000000000000000000000000000                          7600000000                                                                  000023
1021903727600017200000260206200016896                         00000000400092142740000000000000000000000000060231082126/400092100000000400092142740030921000000002000023704436  000000000008200000000000000000000000000000000000000000000000000000000000000000000000000000000000000000000000000000000                          0000000000                                                                  000024
1021903727600017200000260206200016896                         00000000400100631241000000000000000000000000060231082126/400100600000000400100631241030921000000020000023704452  000000000008200000000000000000000000000000000000000000000000000000000000000000000000000000000000000000000000000000000                          0000000000                                                                  000025
1021903727600017200000260206200016896                         00000000400102446883000000000000000000000000060231082126/400102400000000400102446883030921000000001500023704424  000000000008200000000000000000000000000000000000000000000000000000000000000000000000000000000000000000000000000000000                          0000000000                                                                  000026
1021903727600017200000260206200016896                         00000000400107805962000000000000000000000000060231082126/400107800000000400107805962030921000000003000023704159  000000000008200000000000000000000000000000000000000000000000000000000000000000000000000000000000000000000000000000000                          0000000000                                                                  000027
1021903727600017200000260206200016896                         00000000400115176826000000000000000000000000060231082126/400115100000000400115176826030921000000004000023704400  000000000008200000000000000000000000000000000000000000000000000000000000000000000000000000000000000000000000000000000                          0000000000                                                                  000028
1021903727600017200000260206200016896                         00000000400125375649000000000000000000000000060231082126/400125300000000400125375649030921000000002170023700140  000000000008200000000000000000000000000000000000000000000000000000000000000000000000000000000000000000000000000000000                          0000000000                                                                  000029
1021903727600017200000260206200016896                         00000000400125602831000000000000000000000000060231082126/400125600000000400125602831030921000000000800023704151  000000000008200000000000000000000000000000000000000000000000000000000000000000000000000000000000000000000000000000000                          0000000000                                                                  000030
1021903727600017200000260206200016896                         00000000400131705901000000000000000000000000060231082126/400131700000000400131705901030921000000001500023704151  000000000008200000000000000000000000000000000000000000000000000000000000000000000000000000000000000000000000000000000                          0000000000                                                                  000031
1021903727600017200000260206200016896                         00000000400135510668000000000000000000000000060231082126/400135500000000400135510668030921000000000800023700320  000000000008200000000000000000000000000000000000000000000000000000000000000000000000000000000000000000000000000000000                          0000000000                                                                  000032
1021903727600017200000260206200016896                         00000000400140597496000000000000000000000000060231082126/400140500000000400140597496030921000000002750023704452  000000000008200000000000000000000000000000000000000000000000000000000000000000000000000000000000000000000000000000000                          0000000000                                                                  000033
1021903727600017200000260206200016896                         00000000400142471805000000000000000000000000060231082126/400142400000000400142471805030921000000005000023700140  000000000008200000000000000000000000000000000000000000000000000000000000000000000000000000000000000000000000000000000                          0000000000                                                                  000034
1021903727600017200000260206200016896                         00000000400146233747000000000000000000000000060231082126/400146200000000400146233747030921000000001260023704151  000000000008200000000000000000000000000000000000000000000000000000000000000000000000000000000000000000000000000000000                          0000000000                                                                  000035
1021903727600017200000260206200016896                         00000000400149220069000000000000000000000000060231082126/400149200000000400149220069030921000000003130023704436  000000000008200000000000000000000000000000000000000000000000000000000000000000000000000000000000000000000000000000000                          0000000000                                                                  000036
1021903727600017200000260206200016896                         00000000400153920350000000000000000000000000060231082126/400153900000000400153920350030921000000002500023700320  000000000008200000000000000000000000000000000000000000000000000000000000000000000000000000000000000000000000000000000                          0000000000                                                                  000037
1021903727600017200000260206200016896                         00000000400154114595000000000000000000000000060231082126/400154100000000400154114595030921000000001000023704422  000000000008200000000000000000000000000000000000000000000000000000000000000000000000000000000000000000000000000000000                          0000000000                                                                  000038
1021903727600017200000260206200016896                         00000000400156693851000000000000000000000000060231082126/400156600000000400156693851030921000000001000023704143  000000000008200000000000000000000000000000000000000000000000000000000000000000000000000000000000000000000000000000000                          0000000000                                                                  000039
1021903727600017200000260206200016896                         00000000400161013745000000000000000000000000060231082126/400161000000000400161013745030921000000002950023704159  000000000008200000000000000000000000000000000000000000000000000000000000000000000000000000000000000000000000000000000                          7600000000                                                                  000040
1021903727600017200000260206200016896                         00000000400169447159000000000000000000000000060231082126/400169400000000400169447159030921000000005000023704143  000000000008200000000000000000000000000000000000000000000000000000000000000000000000000000000000000000000000000000000                          0000000000                                                                  000041
1021903727600017200000260206200016896                         0000000040017455009P000000000000000000000000060231082126/40017450000000040017455009P030921000000002000023704151  000000000008200000000000000000000000000000000000000000000000000000000000000000000000000000000000000000000000000000000                          0000000000                                                                  000042
1021903727600017200000260206200016896                         00000000400178917680000000000000000000000000060231082126/400178900000000400178917680030921000000003000023704143  000000000008200000000000000000000000000000000000000000000000000000000000000000000000000000000000000000000000000000000                          0000000000                                                                  000043
1021903727600017200000260206200016896                         00000000400179208918000000000000000000000000060231082126/400179200000000400179208918030921000000012000023703109  000000000008200000000000000000000000000000000000000000000000000000000000000000000000000000000000000000000000000000000                          0000000000                                                                  000044
1021903727600017200000260206200016896                         00000000400189291678000000000000000000000000060231082126/400189200000000400189291678030921000000000820023704602  000000000008200000000000000000000000000000000000000000000000000000000000000000000000000000000000000000000000000000000                          7600000000                                                                  000045
1021903727600017200000260206200016896                         00000000400189813712000000000000000000000000060231082126/400189800000000400189813712030921000000000800023704159  000000000008200000000000000000000000000000000000000000000000000000000000000000000000000000000000000000000000000000000                          0000000000                                                                  000046
1021903727600017200000260206200016896                         00000000400191956970000000000000000000000000060231082126/400191900000000400191956970030921000000003500023703109  000000000008200000000000000000000000000000000000000000000000000000000000000000000000000000000000000000000000000000000                          0000000000                                                                  000047
1021903727600017200000260206200016896                         00000000400192922174000000000000000000000000060231082126/400192900000000400192922174030921000000000800023700140  000000000008200000000000000000000000000000000000000000000000000000000000000000000000000000000000000000000000000000000                          0000000000                                                                  000048
1021903727600017200000260206200016896                         00000000400197594388000000000000000000000000060231082126/400197500000000400197594388030921000000000800023704422  000000000008200000000000000000000000000000000000000000000000000000000000000000000000000000000000000000000000000000000                          0000000000                                                                  000049
1021903727600017200000260206200016896                         00000000400202070422000000000000000000000000060231082126/400202000000000400202070422030921000000001000023704400  000000000008200000000000000000000000000000000000000000000000000000000000000000000000000000000000000000000000000000000                          0000000000                                                                  000050
1021903727600017200000260206200016896                         00000000400203948286000000000000000000000000060231082126/400203900000000400203948286030921000000005000023704452  000000000008200000000000000000000000000000000000000000000000000000000000000000000000000000000000000000000000000000000                          0000000000                                                                  000051
1021903727600017200000260206200016896                         00000000400211217029000000000000000000000000060231082126/400211200000000400211217029030921000000004000023704157  000000000008200000000000000000000000000000000000000000000000000000000000000000000000000000000000000000000000000000000                          0000000000                                                                  000052
1021903727600017200000260206200016896                         00000000400212801204000000000000000000000000060231082126/400212800000000400212801204030921000000002000023704426  000000000008200000000000000000000000000000000000000000000000000000000000000000000000000000000000000000000000000000000                          7600000000                                                                  000053
1021903727600017200000260206200016896                         00000000400215913437000000000000000000000000060231082126/400215900000000400215913437030921000000001500023704143  000000000008200000000000000000000000000000000000000000000000000000000000000000000000000000000000000000000000000000000                          0000000000                                                                  000054
1021903727600017200000260206200016896                         00000000400218333407000000000000000000000000060231082126/400218300000000400218333407030921000000003000023703109  000000000008200000000000000000000000000000000000000000000000000000000000000000000000000000000000000000000000000000000                          0000000000                                                                  000055
1021903727600017200000260206200016896                         00000000400219966845000000000000000000000000060231082126/400219900000000400219966845030921000000002000023704151  000000000008200000000000000000000000000000000000000000000000000000000000000000000000000000000000000000000000000000000                          0000000000                                                                  000056
1021903727600017200000260206200016896                         00000000400232184074000000000000000000000000060231082126/400232100000000400232184074030921000000000810023704602  000000000008200000000000000000000000000000000000000000000000000000000000000000000000000000000000000000000000000000000                          7600000000                                                                  000057
1021903727600017200000260206200016896                         00000000400241765314000000000000000000000000060231082126/400241700000000400241765314030921000000001900023704424  000000000008200000000000000000000000000000000000000000000000000000000000000000000000000000000000000000000000000000000                          0000000000                                                                  000058
1021903727600017200000260206200016896                         00000000400247550727000000000000000000000000060231082126/400247500000000400247550727030921000000002500023704400  000000000008200000000000000000000000000000000000000000000000000000000000000000000000000000000000000000000000000000000                          0000000000                                                                  000059
1021903727600017200000260206200016896                         00000000400251903278000000000000000000000000060231082126/400251900000000400251903278030921000000000800023704159  000000000008200000000000000000000000000000000000000000000000000000000000000000000000000000000000000000000000000000000                          0000000000                                                                  000060
1021903727600017200000260206200016896                         00000000400260649856000000000000000000000000060231082126/400260600000000400260649856030921000000000800023704159  000000000008200000000000000000000000000000000000000000000000000000000000000000000000000000000000000000000000000000000                          0000000000                                                                  000061
1021903727600017200000260206200016896                         00000000400261665596000000000000000000000000060231082126/400261600000000400261665596030921000000000800023704152  000000000008200000000000000000000000000000000000000000000000000000000000000000000000000000000000000000000000000000000                          0000000000                                                                  000062
1021903727600017200000260206200016896                         00000000400268972001000000000000000000000000060231082126/400268900000000400268972001030921000000005000023704159  000000000008200000000000000000000000000000000000000000000000000000000000000000000000000000000000000000000000000000000                          0000000000                                                                  000063
1021903727600017200000260206200016896                         00000000400273002290000000000000000000000000060231082126/400273000000000400273002290030921000000010000023704400  000000000008200000000000000000000000000000000000000000000000000000000000000000000000000000000000000000000000000000000                          0000000000                                                                  000064
1021903727600017200000260206200016896                         00000000400296601086000000000000000000000000060231082126/400296600000000400296601086030921000000001050023704422  000000000008200000000000000000000000000000000000000000000000000000000000000000000000000000000000000000000000000000000                          0000000000                                                                  000065
1021903727600017200000260206200016896                         00000000400298878441000000000000000000000000060231082126/400298800000000400298878441030921000000000800023704159  000000000008200000000000000000000000000000000000000000000000000000000000000000000000000000000000000000000000000000000                          0000000000                                                                  000066
1021903727600017200000260206200016896                         00000000400299173182000000000000000000000000060231082126/400299100000000400299173182030921000000000800023704452  000000000008200000000000000000000000000000000000000000000000000000000000000000000000000000000000000000000000000000000                          0000000000                                                                  000067
1021903727600017200000260206200016896                         0000000040029961457P000000000000000000000000060231082126/40029960000000040029961457P030921000000000800023700427  000000000008200000000000000000000000000000000000000000000000000000000000000000000000000000000000000000000000000000000                          0000000000                                                                  000068
1021903727600017200000260206200016896                         0000000040030818334P000000000000000000000000060231082126/40030810000000040030818334P030921000000001500023700320  000000000008200000000000000000000000000000000000000000000000000000000000000000000000000000000000000000000000000000000                          0000000000                                                                  000069
1021903727600017200000260206200016896                         00000000400309159841000000000000000000000000060231082126/400309100000000400309159841030921000000001350023704158  000000000008200000000000000000000000000000000000000000000000000000000000000000000000000000000000000000000000000000000                          0000000000                                                                  000070
1021903727600017200000260206200016896                         00000000400312996126000000000000000000000000060231082126/400312900000000400312996126030921000000004350023704157  000000000008200000000000000000000000000000000000000000000000000000000000000000000000000000000000000000000000000000000                          0000000000                                                                  000071
1021903727600017200000260206200016896                         00000000400313217554000000000000000000000000060231082126/400313200000000400313217554030921000000012000023704143  000000000008200000000000000000000000000000000000000000000000000000000000000000000000000000000000000000000000000000000                          0000000000                                                                  000072
1021903727600017200000260206200016896                         00000000400313879352000000000000000000000000060231082126/400313800000000400313879352030921000000000800023704159  000000000008200000000000000000000000000000000000000000000000000000000000000000000000000000000000000000000000000000000                          0000000000                                                                  000073
1021903727600017200000260206200016896                         00000000400314892476000000000000000000000000060231082126/400314800000000400314892476030921000000004000023700320  000000000008200000000000000000000000000000000000000000000000000000000000000000000000000000000000000000000000000000000                          0000000000                                                                  000074
1021903727600017200000260206200016896                         00000000400319608970000000000000000000000000060231082126/400319600000000400319608970030921000000000800023704159  000000000008200000000000000000000000000000000000000000000000000000000000000000000000000000000000000000000000000000000                          0000000000                                                                  000075
1021903727600017200000260206200016896                         00000000400323089147000000000000000000000000060231082126/400323000000000400323089147030921000000000800023704159  000000000008200000000000000000000000000000000000000000000000000000000000000000000000000000000000000000000000000000000                          0000000000                                                                  000076
1021903727600017200000260206200016896                         00000000400323544685000000000000000000000000060231082126/400323500000000400323544685030921000000000800023700320  000000000008200000000000000000000000000000000000000000000000000000000000000000000000000000000000000000000000000000000                          0000000000                                                                  000077
1021903727600017200000260206200016896                         00000000400324800189000000000000000000000000060231082126/400324800000000400324800189030921000000000800023704144  000000000008200000000000000000000000000000000000000000000000000000000000000000000000000000000000000000000000000000000                          0000000000                                                                  000078
1021903727600017200000260206200016896                         00000000400332258016000000000000000000000000060231082126/400332200000000400332258016030921000000000800023704159  000000000008200000000000000000000000000000000000000000000000000000000000000000000000000000000000000000000000000000000                          0000000000                                                                  000079
1021903727600017200000260206200016896                         00000000400343329446000000000000000000000000060231082126/400343300000000400343329446030921000000001500023704452  000000000008200000000000000000000000000000000000000000000000000000000000000000000000000000000000000000000000000000000                          0000000000                                                                  000080
1021903727600017200000260206200016896                         00000000400376071959000000000000000000000000060231082126/400376000000000400376071959030921000000000800023700320  000000000008200000000000000000000000000000000000000000000000000000000000000000000000000000000000000000000000000000000                          0000000000                                                                  000081
1021903727600017200000260206200016896                         00000000400376074958000000000000000000000000060231082126/400376000000000400376074958030921000000023000023704424  000000000008200000000000000000000000000000000000000000000000000000000000000000000000000000000000000000000000000000000                          0000000000                                                                  000082
1021903727600017200000260206200016896                         00000000400384214009000000000000000000000000060231082126/400384200000000400384214009030921000000002850023700140  000000000008200000000000000000000000000000000000000000000000000000000000000000000000000000000000000000000000000000000                          0000000000                                                                  000083
1021903727600017200000260206200016896                         00000000400392243921000000000000000000000000060231082126/400392200000000400392243921030921000000005000023704452  000000000008200000000000000000000000000000000000000000000000000000000000000000000000000000000000000000000000000000000                          0000000000                                                                  000084
1021903727600017200000260206200016896                         00000000400397360292000000000000000000000000060231082126/400397300000000400397360292030921000000006000023704422  000000000008200000000000000000000000000000000000000000000000000000000000000000000000000000000000000000000000000000000                          0000000000                                                                  000085
1021903727600017200000260206200016896                         00000000400417274231000000000000000000000000060231082126/400417200000000400417274231030921000000010000023704452  000000000008200000000000000000000000000000000000000000000000000000000000000000000000000000000000000000000000000000000                          0000000000                                                                  000086
1021903727600017200000260206200016896                         00000000400419607874000000000000000000000000060231082126/400419600000000400419607874030921000000002500023700320  000000000008200000000000000000000000000000000000000000000000000000000000000000000000000000000000000000000000000000000                          0000000000                                                                  000087
1021903727600017200000260206200016896                         00000000400441477550000000000000000000000000060231082126/400441400000000400441477550030921000000010000023704159  000000000008200000000000000000000000000000000000000000000000000000000000000000000000000000000000000000000000000000000                          0000000000                                                                  000088
1021903727600017200000260206200016896                         00000000400442041225000000000000000000000000060231082126/400442000000000400442041225030921000000000800023704159  000000000008200000000000000000000000000000000000000000000000000000000000000000000000000000000000000000000000000000000                          0000000000                                                                  000089
1021903727600017200000260206200016896                         0000000040044303169P000000000000000000000000060231082126/40044300000000040044303169P030921000000002210023700140  000000000008200000000000000000000000000000000000000000000000000000000000000000000000000000000000000000000000000000000                          0000000000                                                                  000090
1021903727600017200000260206200016896                         00000000400452356178000000000000000000000000060231082126/400452300000000400452356178030921000000001500023700320  000000000008200000000000000000000000000000000000000000000000000000000000000000000000000000000000000000000000000000000                          0000000000                                                                  000091
1021903727600017200000260206200016896                         00000000400453761475000000000000000000000000060231082126/400453700000000400453761475030921000000002500023704152  000000000008200000000000000000000000000000000000000000000000000000000000000000000000000000000000000000000000000000000                          0000000000                                                                  000092
1021903727600017200000260206200016896                         00000000400456380243000000000000000000000000060231082126/400456300000000400456380243030921000000000800023704452  000000000008200000000000000000000000000000000000000000000000000000000000000000000000000000000000000000000000000000000                          0000000000                                                                  000093
1021903727600017200000260206200016896                         0000000040046523893P000000000000000000000000060231082126/40046520000000040046523893P030921000000003840023704158  000000000008200000000000000000000000000000000000000000000000000000000000000000000000000000000000000000000000000000000                          0000000000                                                                  000094
1021903727600017200000260206200016896                         00000000400465508872000000000000000000000000060231082126/400465500000000400465508872030921000000002770023700153  000000000008200000000000000000000000000000000000000000000000000000000000000000000000000000000000000000000000000000000                          0000000000                                                                  000095
1021903727600017200000260206200016896                         00000000400467076414000000000000000000000000060231082126/400467000000000400467076414030921000000001000023704426  000000000008200000000000000000000000000000000000000000000000000000000000000000000000000000000000000000000000000000000                          0000000000                                                                  000096
1021903727600017200000260206200016896                         00000000400467222658000000000000000000000000060231082126/400467200000000400467222658030921000000000800023704602  000000000008200000000000000000000000000000000000000000000000000000000000000000000000000000000000000000000000000000000                          7600000000                                                                  000097
1021903727600017200000260206200016896                         00000000400480286649000000000000000000000000060231082126/400480200000000400480286649030921000000005000023704143  000000000008200000000000000000000000000000000000000000000000000000000000000000000000000000000000000000000000000000000                          0000000000                                                                  000098
1021903727600017200000260206200016896                         00000000400495319373000000000000000000000000060231082126/400495300000000400495319373030921000000004400023704152  000000000008200000000000000000000000000000000000000000000000000000000000000000000000000000000000000000000000000000000                          0000000000                                                                  000099
1021903727600017200000260206200016896                         00000000400495518635000000000000000000000000060231082126/400495500000000400495518635030921000000002000023704151  000000000008200000000000000000000000000000000000000000000000000000000000000000000000000000000000000000000000000000000                          0000000000                                                                  000100
1021903727600017200000260206200016896                         0000000040049728982P000000000000000000000000060231082126/40049720000000040049728982P030921000000004550023700389  000000000008200000000000000000000000000000000000000000000000000000000000000000000000000000000000000000000000000000000                          0000000000                                                                  000101
1021903727600017200000260206200016896                         00000000400506009541000000000000000000000000060231082126/400506000000000400506009541030921000000000800023703109  000000000008200000000000000000000000000000000000000000000000000000000000000000000000000000000000000000000000000000000                          0000000000                                                                  000102
1021903727600017200000260206200016896                         00000000400515404879000000000000000000000000060231082126/400515400000000400515404879030921000000001800023704422  000000000008200000000000000000000000000000000000000000000000000000000000000000000000000000000000000000000000000000000                          0000000000                                                                  000103
1021903727600017200000260206200016896                         00000000400518694029000000000000000000000000060231082126/400518600000000400518694029030921000000001000023704151  000000000008200000000000000000000000000000000000000000000000000000000000000000000000000000000000000000000000000000000                          0000000000                                                                  000104
1021903727600017200000260206200016896                         00000000400519946226000000000000000000000000060231082126/400519900000000400519946226030921000000004500023700320  000000000008200000000000000000000000000000000000000000000000000000000000000000000000000000000000000000000000000000000                          0000000000                                                                  000105
1021903727600017200000260206200016896                         00000000400525627957000000000000000000000000060231082126/400525600000000400525627957030921000000100000023704143  000000000008200000000000000000000000000000000000000000000000000000000000000000000000000000000000000000000000000000000                          7600000000                                                                  000106
1021903727600017200000260206200016896                         00000000400527512413000000000000000000000000060231082126/400527500000000400527512413030921000000002000023704157  000000000008200000000000000000000000000000000000000000000000000000000000000000000000000000000000000000000000000000000                          7600000000                                                                  000107
1021903727600017200000260206200016896                         00000000400542789014000000000000000000000000060231082126/400542700000000400542789014030921000000000800023704159  000000000008200000000000000000000000000000000000000000000000000000000000000000000000000000000000000000000000000000000                          0000000000                                                                  000108
1021903727600017200000260206200016896                         00000000400546160994000000000000000000000000060231082126/400546100000000400546160994030921000000002000023704151  000000000008200000000000000000000000000000000000000000000000000000000000000000000000000000000000000000000000000000000                          0000000000                                                                  000109
1021903727600017200000260206200016896                         0000000040056456671P000000000000000000000000060231082126/40056450000000040056456671P030921000000002000023704400  000000000008200000000000000000000000000000000000000000000000000000000000000000000000000000000000000000000000000000000                          0000000000                                                                  000110
1021903727600017200000260206200016896                         00000000400565076716000000000000000000000000060231082126/400565000000000400565076716030921000000002000023704422  000000000008200000000000000000000000000000000000000000000000000000000000000000000000000000000000000000000000000000000                          0000000000                                                                  000111
1021903727600017200000260206200016896                         00000000400577641443000000000000000000000000060231082126/400577600000000400577641443030921000000001000023700405  000000000008200000000000000000000000000000000000000000000000000000000000000000000000000000000000000000000000000000000                          0000000000                                                                  000112
1021903727600017200000260206200016896                         00000000400580916119000000000000000000000000060231082126/400580900000000400580916119030921000000000800023704426  000000000008200000000000000000000000000000000000000000000000000000000000000000000000000000000000000000000000000000000                          7600000000                                                                  000113
1021903727600017200000260206200016896                         00000000400582953984000000000000000000000000060231082126/400582900000000400582953984030921000000000800023700435  000000000008200000000000000000000000000000000000000000000000000000000000000000000000000000000000000000000000000000000                          0000000000                                                                  000114
1021903727600017200000260206200016896                         00000000400585408871000000000000000000000000060231082126/400585400000000400585408871030921000000002000023704143  000000000008200000000000000000000000000000000000000000000000000000000000000000000000000000000000000000000000000000000                          0000000000                                                                  000115
1021903727600017200000260206200016896                         00000000400586624454000000000000000000000000060231082126/400586600000000400586624454030921000000001200023700321  000000000008200000000000000000000000000000000000000000000000000000000000000000000000000000000000000000000000000000000                          0000000000                                                                  000116
1021903727600017200000260206200016896                         00000000400588154137000000000000000000000000060231082126/400588100000000400588154137030921000000001500023704152  000000000008200000000000000000000000000000000000000000000000000000000000000000000000000000000000000000000000000000000                          0000000000                                                                  000117
1021903727600017200000260206200016896                         00000000400593453827000000000000000000000000060231082126/400593400000000400593453827030921000000002000023704452  000000000008200000000000000000000000000000000000000000000000000000000000000000000000000000000000000000000000000000000                          0000000000                                                                  000118
1021903727600017200000260206200016896                         00000000400598708033000000000000000000000000060231082126/400598700000000400598708033030921000000000800023704151  000000000008200000000000000000000000000000000000000000000000000000000000000000000000000000000000000000000000000000000                          0000000000                                                                  000119
1021903727600017200000260206200016896                         00000000400600258482000000000000000000000000060231082126/400600200000000400600258482030921000000003000023704452  000000000008200000000000000000000000000000000000000000000000000000000000000000000000000000000000000000000000000000000                          0000000000                                                                  000120
1021903727600017200000260206200016896                         00000000400611257224000000000000000000000000060231082126/400611200000000400611257224030921000000002000023704452  000000000008200000000000000000000000000000000000000000000000000000000000000000000000000000000000000000000000000000000                          0000000000                                                                  000121
1021903727600017200000260206200016896                         00000000400613266581000000000000000000000000060231082126/400613200000000400613266581030921000000001700023704158  000000000008200000000000000000000000000000000000000000000000000000000000000000000000000000000000000000000000000000000                          0000000000                                                                  000122
1021903727600017200000260206200016896                         00000000400616321400000000000000000000000000060231082126/400616300000000400616321400030921000000002000023704143  000000000008200000000000000000000000000000000000000000000000000000000000000000000000000000000000000000000000000000000                          0000000000                                                                  000123
1021903727600017200000260206200016896                         00000000400623931877000000000000000000000000060231082126/400623900000000400623931877030921000000001900023704424  000000000008200000000000000000000000000000000000000000000000000000000000000000000000000000000000000000000000000000000                          0000000000                                                                  000124
1021903727600017200000260206200016896                         00000000400626041929000000000000000000000000060231082126/400626000000000400626041929030921000000001500023704151  000000000008200000000000000000000000000000000000000000000000000000000000000000000000000000000000000000000000000000000                          0000000000                                                                  000125
1021903727600017200000260206200016896                         00000000400638048740000000000000000000000000060231082126/400638000000000400638048740030921000000002000023704143  000000000008200000000000000000000000000000000000000000000000000000000000000000000000000000000000000000000000000000000                          0000000000                                                                  000126
1021903727600017200000260206200016896                         00000000400644279665000000000000000000000000060231082126/400644200000000400644279665030921000000000800023704159  000000000008200000000000000000000000000000000000000000000000000000000000000000000000000000000000000000000000000000000                          0000000000                                                                  000127
1021903727600017200000260206200016896                         00000000400654405138000000000000000000000000060231082126/400654400000000400654405138030921000000002000023704452  000000000008200000000000000000000000000000000000000000000000000000000000000000000000000000000000000000000000000000000                          0000000000                                                                  000128
1021903727600017200000260206200016896                         00000000400657121505000000000000000000000000060231082126/400657100000000400657121505030921000000001500023700321  000000000008200000000000000000000000000000000000000000000000000000000000000000000000000000000000000000000000000000000                          0000000000                                                                  000129
1021903727600017200000260206200016896                         00000000400659154613000000000000000000000000060231082126/400659100000000400659154613030921000000002000023704452  000000000008200000000000000000000000000000000000000000000000000000000000000000000000000000000000000000000000000000000                          7600000000                                                                  000130
1021903727600017200000260206200016896                         0000000040066111436P000000000000000000000000060231082126/40066110000000040066111436P030921000000000800023704428  000000000008200000000000000000000000000000000000000000000000000000000000000000000000000000000000000000000000000000000                          7600000000                                                                  000131
1021903727600017200000260206200016896                         00000000400666475778000000000000000000000000060231082126/400666400000000400666475778030921000000004000023704602  000000000008200000000000000000000000000000000000000000000000000000000000000000000000000000000000000000000000000000000                          0000000000                                                                  000132
1021903727600017200000260206200016896                         00000000400668793297000000000000000000000000060231082126/400668700000000400668793297030921000000001000023700320  000000000008200000000000000000000000000000000000000000000000000000000000000000000000000000000000000000000000000000000                          0000000000                                                                  000133
1021903727600017200000260206200016896                         00000000400675172664000000000000000000000000060231082126/400675100000000400675172664030921000000000800023704452  000000000008200000000000000000000000000000000000000000000000000000000000000000000000000000000000000000000000000000000                          0000000000                                                                  000134
1021903727600017200000260206200016896                         00000000400677846948000000000000000000000000060231082126/400677800000000400677846948030921000000000800023704151  000000000008200000000000000000000000000000000000000000000000000000000000000000000000000000000000000000000000000000000                          0000000000                                                                  000135
1021903727600017200000260206200016896                         00000000400682450467000000000000000000000000060231082126/400682400000000400682450467030921000000000800023704602  000000000008200000000000000000000000000000000000000000000000000000000000000000000000000000000000000000000000000000000                          7600000000                                                                  000136
1021903727600017200000260206200016896                         00000000400694230950000000000000000000000000060231082126/400694200000000400694230950030921000000002500023704452  000000000008200000000000000000000000000000000000000000000000000000000000000000000000000000000000000000000000000000000                          0000000000                                                                  000137
1021903727600017200000260206200016896                         00000000400695724132000000000000000000000000060231082126/400695700000000400695724132030921000000001500023704452  000000000008200000000000000000000000000000000000000000000000000000000000000000000000000000000000000000000000000000000                          0000000000                                                                  000138
1021903727600017200000260206200016896                         00000000400702917081000000000000000000000000060231082126/400702900000000400702917081030921000000001500023704144  000000000008200000000000000000000000000000000000000000000000000000000000000000000000000000000000000000000000000000000                          0000000000                                                                  000139
1021903727600017200000260206200016896                         00000000400718957938000000000000000000000000060231082126/400718900000000400718957938030921000000002000023704424  000000000008200000000000000000000000000000000000000000000000000000000000000000000000000000000000000000000000000000000                          0000000000                                                                  000140
1021903727600017200000260206200016896                         00000000400723167546000000000000000000000000060231082126/400723100000000400723167546030921000000005000023704144  000000000008200000000000000000000000000000000000000000000000000000000000000000000000000000000000000000000000000000000                          0000000000                                                                  000141
1021903727600017200000260206200016896                         00000000400724227704000000000000000000000000060231082126/400724200000000400724227704030921000000000800023704452  000000000008200000000000000000000000000000000000000000000000000000000000000000000000000000000000000000000000000000000                          7600000000                                                                  000142
1021903727600017200000260206200016896                         00000000400735030597000000000000000000000000060231082126/400735000000000400735030597030921000000001500023704452  000000000008200000000000000000000000000000000000000000000000000000000000000000000000000000000000000000000000000000000                          0000000000                                                                  000143
1021903727600017200000260206200016896                         00000000400744575679000000000000000000000000060231082126/400744500000000400744575679030921000000012000023704143  000000000008200000000000000000000000000000000000000000000000000000000000000000000000000000000000000000000000000000000                          7600000000                                                                  000144
1021903727600017200000260206200016896                         00000000400745111420000000000000000000000000060231082126/400745100000000400745111420030921000000000800023704159  000000000008200000000000000000000000000000000000000000000000000000000000000000000000000000000000000000000000000000000                          0000000000                                                                  000145
1021903727600017200000260206200016896                         00000000400746213464000000000000000000000000060231082126/400746200000000400746213464030921000000005000023704602  000000000008200000000000000000000000000000000000000000000000000000000000000000000000000000000000000000000000000000000                          0000000000                                                                  000146
1021903727600017200000260206200016896                         00000000400759946673000000000000000000000000060231082126/400759900000000400759946673030921000000003000023704426  000000000008200000000000000000000000000000000000000000000000000000000000000000000000000000000000000000000000000000000                          7600000000                                                                  000147
1021903727600017200000260206200016896                         00000000400760554312000000000000000000000000060231082126/400760500000000400760554312030921000000001500023700320  000000000008200000000000000000000000000000000000000000000000000000000000000000000000000000000000000000000000000000000                          0000000000                                                                  000148
1021903727600017200000260206200016896                         00000000400762676318000000000000000000000000060231082126/400762600000000400762676318030921000000000800023704159  000000000008200000000000000000000000000000000000000000000000000000000000000000000000000000000000000000000000000000000                          0000000000                                                                  000149
1021903727600017200000260206200016896                         0000000040076358252P000000000000000000000000060231082126/40076350000000040076358252P030921000000001000023700435  000000000008200000000000000000000000000000000000000000000000000000000000000000000000000000000000000000000000000000000                          0000000000                                                                  000150
1021903727600017200000260206200016896                         00000000400765863496000000000000000000000000060231082126/400765800000000400765863496030921000000001500023704154  000000000008200000000000000000000000000000000000000000000000000000000000000000000000000000000000000000000000000000000                          0000000000                                                                  000151
1021903727600017200000260206200016896                         00000000400767891799000000000000000000000000060231082126/400767800000000400767891799030921000000001500023704143  000000000008200000000000000000000000000000000000000000000000000000000000000000000000000000000000000000000000000000000                          0000000000                                                                  000152
1021903727600017200000260206200016896                         00000000400769702640000000000000000000000000060231082126/400769700000000400769702640030921000000000800023704159  000000000008200000000000000000000000000000000000000000000000000000000000000000000000000000000000000000000000000000000                          0000000000                                                                  000153
1021903727600017200000260206200016896                         00000000400770112466000000000000000000000000060231082126/400770100000000400770112466030921000000001450023700320  000000000008200000000000000000000000000000000000000000000000000000000000000000000000000000000000000000000000000000000                          0000000000                                                                  000154
1021903727600017200000260206200016896                         00000000400772448976000000000000000000000000060231082126/400772400000000400772448976030921000000004400023704157  000000000008200000000000000000000000000000000000000000000000000000000000000000000000000000000000000000000000000000000                          0000000000                                                                  000155
1021903727600017200000260206200016896                         00000000400774457530000000000000000000000000060231082126/400774400000000400774457530030921000000012000023704154  000000000008200000000000000000000000000000000000000000000000000000000000000000000000000000000000000000000000000000000                          0000000000                                                                  000156
1021903727600017200000260206200016896                         00000000400779699176000000000000000000000000060231082126/400779600000000400779699176030921000000000800023704159  000000000008200000000000000000000000000000000000000000000000000000000000000000000000000000000000000000000000000000000                          0000000000                                                                  000157
1021903727600017200000260206200016896                         00000000400794287364000000000000000000000000060231082126/400794200000000400794287364030921000000057000023704428  000000000008200000000000000000000000000000000000000000000000000000000000000000000000000000000000000000000000000000000                          0000000000                                                                  000158
1021903727600017200000260206200016896                         00000000400799737279000000000000000000000000060231082126/400799700000000400799737279030921000000003200023704602  000000000008200000000000000000000000000000000000000000000000000000000000000000000000000000000000000000000000000000000                          0000000000                                                                  000159
1021903727600017200000260206200016896                         00000000400800853830000000000000000000000000060231082126/400800800000000400800853830030921000000000800023704159  000000000008200000000000000000000000000000000000000000000000000000000000000000000000000000000000000000000000000000000                          0000000000                                                                  000160
1021903727600017200000260206200016896                         00000000400803213638000000000000000000000000060231082126/400803200000000400803213638030921000000001500023704157  000000000008200000000000000000000000000000000000000000000000000000000000000000000000000000000000000000000000000000000                          0000000000                                                                  000161
1021903727600017200000260206200016896                         00000000400820914828000000000000000000000000060231082126/400820900000000400820914828030921000000099000023704151  000000000008200000000000000000000000000000000000000000000000000000000000000000000000000000000000000000000000000000000                          7600000000                                                                  000162
1021903727600017200000260206200016896                         0000000040082830302P000000000000000000000000060231082126/40082830000000040082830302P030921000000003000023703109  000000000008200000000000000000000000000000000000000000000000000000000000000000000000000000000000000000000000000000000                          0000000000                                                                  000163
1021903727600017200000260206200016896                         00000000400835238470000000000000000000000000060231082126/400835200000000400835238470030921000000005000023704602  000000000008200000000000000000000000000000000000000000000000000000000000000000000000000000000000000000000000000000000                          0000000000                                                                  000164
1021903727600017200000260206200016896                         00000000400835677261000000000000000000000000060231082126/400835600000000400835677261030921000000000800023704159  000000000008200000000000000000000000000000000000000000000000000000000000000000000000000000000000000000000000000000000                          0000000000                                                                  000165
1021903727600017200000260206200016896                         00000000400848922524000000000000000000000000060231082126/400848900000000400848922524030921000000000800023704159  000000000008200000000000000000000000000000000000000000000000000000000000000000000000000000000000000000000000000000000                          0000000000                                                                  000166
1021903727600017200000260206200016896                         00000000400854379611000000000000000000000000060231082126/400854300000000400854379611030921000000000800023704152  000000000008200000000000000000000000000000000000000000000000000000000000000000000000000000000000000000000000000000000                          0000000000                                                                  000167
1021903727600017200000260206200016896                         00000000400865471439000000000000000000000000060231082126/400865400000000400865471439030921000000002000023704143  000000000008200000000000000000000000000000000000000000000000000000000000000000000000000000000000000000000000000000000                          0000000000                                                                  000168
1021903727600017200000260206200016896                         00000000400868767290000000000000000000000000060231082126/400868700000000400868767290030921000000001500023704424  000000000008200000000000000000000000000000000000000000000000000000000000000000000000000000000000000000000000000000000                          0000000000                                                                  000169
1021903727600017200000260206200016896                         00000000400873536477000000000000000000000000060231082126/400873500000000400873536477030921000000000800023704452  000000000000000000000000000000000000000000000000000000000000000000000000000000000000000000000000000000000000000000000                          0000000000                                                                  000170
1021903727600017200000260206200016896                         00000000400875153648000000000000000000000000060231082126/400875100000000400875153648030921000000002200023704426  000000000008200000000000000000000000000000000000000000000000000000000000000000000000000000000000000000000000000000000                          0000000000                                                                  000171
1021903727600017200000260206200016896                         00000000400882039060000000000000000000000000060231082126/400882000000000400882039060030921000000000800023704151  000000000008200000000000000000000000000000000000000000000000000000000000000000000000000000000000000000000000000000000                          0000000000                                                                  000172
1021903727600017200000260206200016896                         00000000400887935358000000000000000000000000060231082126/400887900000000400887935358030921000000004500023704147  000000000008200000000000000000000000000000000000000000000000000000000000000000000000000000000000000000000000000000000                          0000000000                                                                  000173
1021903727600017200000260206200016896                         00000000400890824850000000000000000000000000060231082126/400890800000000400890824850030921000000002270023704452  000000000008200000000000000000000000000000000000000000000000000000000000000000000000000000000000000000000000000000000                          7600000000                                                                  000174
1021903727600017200000260206200016896                         00000000400895308788000000000000000000000000060231082126/400895300000000400895308788030921000000006500023704157  000000000008200000000000000000000000000000000000000000000000000000000000000000000000000000000000000000000000000000000                          7600000000                                                                  000175
1021903727600017200000260206200016896                         00000000400900026540000000000000000000000000060231082126/400900000000000400900026540030921000000009000023704143  000000000008200000000000000000000000000000000000000000000000000000000000000000000000000000000000000000000000000000000                          0000000000                                                                  000176
1021903727600017200000260206200016896                         00000000400905625434000000000000000000000000060231082126/400905600000000400905625434030921000000001500023704151  000000000008200000000000000000000000000000000000000000000000000000000000000000000000000000000000000000000000000000000                          0000000000                                                                  000177
1021903727600017200000260206200016896                         00000000400928975165000000000000000000000000060231082126/400928900000000400928975165030921000000003000023704143  000000000000000000000000000000000000000000000000000000000000000000000000000000000000000000000000000000000000000000000                          7600000000                                                                  000178
1021903727600017200000260206200016896                         00000000400930055979000000000000000000000000060231082126/400930000000000400930055979030921000000000800023704422  000000000000000000000000000000000000000000000000000000000000000000000000000000000000000000000000000000000000000000000                          0000000000                                                                  000179
1021903727600017200000260206200016896                         00000000400939651620000000000000000000000000060231082126/400939600000000400939651620030921000000004000023704428  000000000008200000000000000000000000000000000000000000000000000000000000000000000000000000000000000000000000000000000                          0000000000                                                                  000180
1021903727600017200000260206200016896                         00000000400943785828000000000000000000000000060231082126/400943700000000400943785828030921000000001500023704426  000000000008200000000000000000000000000000000000000000000000000000000000000000000000000000000000000000000000000000000                          7600000000                                                                  000181
1021903727600017200000260206200016896                         00000000400952005959000000000000000000000000060231082126/400952000000000400952005959030921000000001000023702062  000000000008200000000000000000000000000000000000000000000000000000000000000000000000000000000000000000000000000000000                          0000000000                                                                  000182
1021903727600017200000260206200016896                         00000000400955448533000000000000000000000000060231082126/400955400000000400955448533030921000000000800023702062  000000000008200000000000000000000000000000000000000000000000000000000000000000000000000000000000000000000000000000000                          0000000000                                                                  000183
1021903727600017200000260206200016896                         00000000400957588235000000000000000000000000060231082126/400957500000000400957588235030921000000003000023704151  000000000008200000000000000000000000000000000000000000000000000000000000000000000000000000000000000000000000000000000                          0000000000                                                                  000184
1021903727600017200000260206200016896                         00000000400957638313000000000000000000000000060231082126/400957600000000400957638313030921000000001000023700153  000000000008200000000000000000000000000000000000000000000000000000000000000000000000000000000000000000000000000000000                          0000000000                                                                  000185
1021903727600017200000260206200016896                         00000000400961836235000000000000000000000000060231082126/400961800000000400961836235030921000000004500023700435  000000000008200000000000000000000000000000000000000000000000000000000000000000000000000000000000000000000000000000000                          0000000000                                                                  000186
1021903727600017200000260206200016896                         00000000400969023993000000000000000000000000060231082126/400969000000000400969023993030921000000002000023702062  000000000008200000000000000000000000000000000000000000000000000000000000000000000000000000000000000000000000000000000                          0000000000                                                                  000187
1021903727600017200000260206200016896                         00000000400973977535000000000000000000000000060231082126/400973900000000400973977535030921000000001500023700321  000000000008200000000000000000000000000000000000000000000000000000000000000000000000000000000000000000000000000000000                          0000000000                                                                  000188
1021903727600017200000260206200016896                         00000000400980462915000000000000000000000000060231082126/400980400000000400980462915030921000000007000023703109  000000000008200000000000000000000000000000000000000000000000000000000000000000000000000000000000000000000000000000000                          0000000000                                                                  000189
1021903727600017200000260206200016896                         00000000400996946432000000000000000000000000060231082126/400996900000000400996946432030921000000001500023700389  000000000008200000000000000000000000000000000000000000000000000000000000000000000000000000000000000000000000000000000                          0000000000                                                                  000190
1021903727600017200000260206200016896                         00000000400998336658000000000000000000000000060231082126/400998300000000400998336658030921000000000800023702062  000000000008200000000000000000000000000000000000000000000000000000000000000000000000000000000000000000000000000000000                          0000000000                                                                  000191
1021903727600017200000260206200016896                         00000000600078455956000000000000000000000000060231082126/600078400000000600078455956030921000000000319923704151  000000000008200000000000000000000000000000000000000000000000000000000000000000000000000000000000000000000000000000000                          0000000000                                                                  000192
1021903727600017200000260206200016896                         00000000600159965398000000000000000000000000060231082126/600159900000000600159965398030921000000000109923704602  000000000000000000000000000000000000000000000000000000000000000000000000000000000000000000000000000000000000000000000                          0000000000                                                                  000193
1021903727600017200000260206200016896                         00000000600283297492000000000000000000000000060231082126/600283200000000600283297492030921000000000520023702062  000000000008200000000000000000000000000000000000000000000000000000000000000000000000000000000000000000000000000000000                          7600000000                                                                  000194
1021903727600017200000260206200016896                         00000000600332187576000000000000000000000000060231082126/600332100000000600332187576030921000000001000023704400  000000000008200000000000000000000000000000000000000000000000000000000000000000000000000000000000000000000000000000000                          0000000000                                                                  000195
1021903727600017200000260206200016896                         00000000600343740366000000000000000000000000060231082126/600343700000000600343740366030921000000000500023704422  000000000008200000000000000000000000000000000000000000000000000000000000000000000000000000000000000000000000000000000                          0000000000                                                                  000196
1021903727600017200000260206200016896                         0000000060043929734P000000000000000000000000060231082126/60043920000000060043929734P030921000000000119923704452  000000000008200000000000000000000000000000000000000000000000000000000000000000000000000000000000000000000000000000000                          0000000000                                                                  000197
1021903727600017200000260206200016896                         00000000600508807096000000000000000000000000060231082126/600508800000000600508807096030921000000000269923704400  000000000000000000000000000000000000000000000000000000000000000000000000000000000000000000000000000000000000000000000                          0000000000                                                                  000198
1021903727600017200000260206200016896                         00000000600562379385000000000000000000000000060231082126/600562300000000600562379385030921000000000500023704436  000000000008200000000000000000000000000000000000000000000000000000000000000000000000000000000000000000000000000000000                          0000000000                                                                  000199
1021903727600017200000260206200016896                         00000000600903339190000000000000000000000000060231082126/600903300000000600903339190030921000000000500023700321  000000000008200000000000000000000000000000000000000000000000000000000000000000000000000000000000000000000000000000000                          0000000000                                                                  000200
1021903727600017200000260206200016896                         00000000400001925306000000000000000000000000060331082126/400001900000000400001925306020921000000001500023700321  000000000000000000000000000000000000000000000000000000000000000000000000000000000000000000000000000000000000000000000                          0900000000                                                                  000201
1021903727600017200000260206200016896                         00000000100031190129000000000000000000000000060631082126/100031100000000100031190129310821000000000223263300001  000000000000000000000000000000000000000000000000000000000000000000000000000000000000000223200000000000000000000000000   010921             00000000000000                                                                  000202
1021903727600017200000260206200016896                         00000000100031190315000000000000000000000000060631082126/100031100000000100031190315310821000000000651007700001  000000000000000000000000000000000000000000000000000000000000000000000000000000000000000651000000000000000000000000000   010921             00000000000000                                                                  000203
1021903727600017200000260206200016896                         00000000100031190897000000000000000000000000060631082126/100031100000000100031190897310821000000000895500103567  000000000000000000000000000000000000000000000000000000000000000000000000000000000000000895500000000000000000000000000   010921             00000000000000                                                                  000204
1021903727600017200000260206200016896                         00000000100031250059000000000000000000000000060631082126/100031200000000100031250059310821000000004559034108570  000000000000000000000000000000000000000000000000000000000000000000000000000000000000004559000000000000000000000000000   010921             00000000000000                                                                  000205
1021903727600017200000260206200016896                         00000000200349937368000000000000000000000000060631082126/200349900000000200349937368030921000000003000000101391  000000000000000000000000000000000000000000000000000000000000000000000000000000000000003000000000000000000000000000000   010921             00000000000000                                                                  000206
1021903727600017200000260206200016896                         00000000200400801417000000000000000000000000060631082126/200400800000000200400801417030921000000000331021200001  000000000000000000000000000000000000000000000000000000000000000000000000000000000000000331000000000000000000000000000   010921             00000000000000                                                                  000207
1021903727600017200000260206200016896                         00000000200495262011000000000000000000000000060631082126/200495200000000200495262011010921000000000425623702122  000000000000000000000000000000000000000000000000000000000000000000000000000000000000000425600000000000000000000000000   010921             00000000000000                                                                  000208
1021903727600017200000260206200016896                         00000000200550851676000000000000000000000000060631082126/200550800000000200550851676030921000000000622207700001  000000000000000000000000000000000000000000000000000000000000000000000000000000000000000622200000000000000000000000000   010921             00000000000000                                                                  000209
1021903727600017200000260206200016896                         00000000200654840188000000000000000000000000060631082126/200654800000000200654840188030921000000000500026000001  000000000000000000000000000000000000000000000000000000000000000000000000000000000000000500000000000000000000000000000   010921             00000000000000                                                                  000210
1021903727600017200000260206200016896                         00000000200854012018000000000000000000000000060631082126/200854000000000200854012018030921000000000500007700001  000000000000000000000000000000000000000000000000000000000000000000000000000000000000000500000000000000000000000000000   010921             00000000000000                                                                  000211
1021903727600017200000260206200016896                         00000000200936149275000000000000000000000000060631082126/200936100000000200936149275030921000000000269926000001  000000000000000000000000000000000000000000000000000000000000000000000000000000000000000269900000000000000000000000000   010921             00000000000000                                                                  000212
1021903727600017200000260206200016896                         00000000200941146403000000000000000000000000060631082126/200941100000000200941146403030921000000000206623702425  000000000000000000000000000000000000000000000000000000000000000000000000000000000000000206600000000000000000000000000   010921             00000000000000                                                                  000213
1021903727600017200000260206200016896                         00000000400012651925000000000000000000000000060631082126/400012600000000400012651925030921000000000800065500001  000000000000000000000000000000000000000000000000000000000000000000000000000000000000000800000000000000000000000000000   010921             00000000000000                                                                  000214
1021903727600017200000260206200016896                         00000000400023453939000000000000000000000000060631082126/400023400000000400023453939030921000000000800010401035  000000000000000000000000000000000000000000000000000000000000000000000000000000000000000800000000000000000000000000000   010921             00000000000000                                                                  000215
1021903727600017200000260206200016896                         00000000400028072127000000000000000000000000060631082126/400028000000000400028072127030921000000000800000101218  000000000000000000000000000000000000000000000000000000000000000000000000000000000000000800000000000000000000000000000   010921             00000000000000                                                                  000216
1021903727600017200000260206200016896                         00000000400037774819000000000000000000000000060631082126/400037700000000400037774819030921000000015000007700001  000000000000000000000000000000000000000000000000000000000000000000000000000000000000015000000000000000000000000000000   010921             00000000000000                                                                  000217
1021903727600017200000260206200016896                         00000000400054735975000000000000000000000000060631082126/400054700000000400054735975030921000000012000010400721  000000000000000000000000000000000000000000000000000000000000000000000000000000000000012000000000000000000000000000000   010921             00000000000000                                                                  000218
1021903727600017200000260206200016896                         00000000400062648844000000000000000000000000060631082126/400062600000000400062648844030921000000002500010400051  000000000000000000000000000000000000000000000000000000000000000000000000000000000000002500000000000000000000000000000   010921             00000000000000                                                                  000219
1021903727600017200000260206200016896                         00000000400100631241000000000000000000000000060631082126/400100600000000400100631241030921000000020000010401469  000000000000000000000000000000000000000000000000000000000000000000000000000000000000020000000000000000000000000000000   010921             00000000000000                                                                  000220
1021903727600017200000260206200016896                         00000000400107805962000000000000000000000000060631082126/400107800000000400107805962030921000000003000003303124  000000000000000000000000000000000000000000000000000000000000000000000000000000000000003000000000000000000000000000000   010921             00000000000000                                                                  000221
1021903727600017200000260206200016896                         00000000400111520263000000000000000000000000060631082126/400111500000000400111520263020921000000003000004101096  000000000000000000000000000000000000000000000000000000000000000000000000000000000000003000000000000000000000000000000   010921             00000000000000                                                                  000222
1021903727600017200000260206200016896                         00000000400115176826000000000000000000000000060631082126/400115100000000400115176826030921000000004000010401035  000000000000000000000000000000000000000000000000000000000000000000000000000000000000004000000000000000000000000000000   010921             00000000000000                                                                  000223
1021903727600017200000260206200016896                         00000000400125375649000000000000000000000000060631082126/400125300000000400125375649030921000000002170010403136  000000000000000000000000000000000000000000000000000000000000000000000000000000000000002170000000000000000000000000000   010921             00000000000000                                                                  000224
1021903727600017200000260206200016896                         00000000400125602831000000000000000000000000060631082126/400125600000000400125602831030921000000000800010400354  000000000000000000000000000000000000000000000000000000000000000000000000000000000000000800000000000000000000000000000   010921             00000000000000                                                                  000225
1021903727600017200000260206200016896                         00000000400131705901000000000000000000000000060631082126/400131700000000400131705901030921000000001500063300001  000000000000000000000000000000000000000000000000000000000000000000000000000000000000001500000000000000000000000000000   010921             00000000000000                                                                  000226
1021903727600017200000260206200016896                         00000000400135510668000000000000000000000000060631082126/400135500000000400135510668030921000000000800063300001  000000000000000000000000000000000000000000000000000000000000000000000000000000000000000800000000000000000000000000000   010921             00000000000000                                                                  000227
1021903727600017200000260206200016896                         00000000400140597496000000000000000000000000060631082126/400140500000000400140597496030921000000002750063300001  000000000000000000000000000000000000000000000000000000000000000000000000000000000000002750000000000000000000000000000   010921             00000000000000                                                                  000228
1021903727600017200000260206200016896                         00000000400142471805000000000000000000000000060631082126/400142400000000400142471805030921000000005000010400565  000000000000000000000000000000000000000000000000000000000000000000000000000000000000005000000000000000000000000000000   010921             00000000000000                                                                  000229
1021903727600017200000260206200016896                         00000000400146233747000000000000000000000000060631082126/400146200000000400146233747030921000000001260026000001  000000000000000000000000000000000000000000000000000000000000000000000000000000000000001260000000000000000000000000000   010921             00000000000000                                                                  000230
1021903727600017200000260206200016896                         00000000400149220069000000000000000000000000060631082126/400149200000000400149220069030921000000003130034100869  000000000000000000000000000000000000000000000000000000000000000000000000000000000000003130000000000000000000000000000   010921             00000000000000                                                                  000231
1021903727600017200000260206200016896                         00000000400153920350000000000000000000000000060631082126/400153900000000400153920350030921000000002500010403880  000000000000000000000000000000000000000000000000000000000000000000000000000000000000002500000000000000000000000000000   010921             00000000000000                                                                  000232
1021903727600017200000260206200016896                         00000000400154114595000000000000000000000000060631082126/400154100000000400154114595030921000000001000063300001  000000000000000000000000000000000000000000000000000000000000000000000000000000000000001000000000000000000000000000000   010921             00000000000000                                                                  000233
1021903727600017200000260206200016896                         00000000400156693851000000000000000000000000060631082126/400156600000000400156693851030921000000001000063300001  000000000000000000000000000000000000000000000000000000000000000000000000000000000000001000000000000000000000000000000   010921             00000000000000                                                                  000234
1021903727600017200000260206200016896                         00000000400161013745000000000000000000000000060631082126/400161000000000400161013745030921000000002950003304048  000000000000000000000000000000000000000000000000000000000000000000000000000000000000002950000000000000000000000000000   010921             00000000000000                                                                  000235
1021903727600017200000260206200016896                         00000000400169447159000000000000000000000000060631082126/400169400000000400169447159030921000000005000063300001  000000000000000000000000000000000000000000000000000000000000000000000000000000000000005000000000000000000000000000000   010921             00000000000000                                                                  000236
1021903727600017200000260206200016896                         0000000040017455009P000000000000000000000000060631082126/40017450000000040017455009P030921000000002000008100001  000000000000000000000000000000000000000000000000000000000000000000000000000000000000002000000000000000000000000000000   010921             00000000000000                                                                  000237
1021903727600017200000260206200016896                         00000000400178917680000000000000000000000000060631082126/400178900000000400178917680030921000000003000010403555  000000000000000000000000000000000000000000000000000000000000000000000000000000000000003000000000000000000000000000000   010921             00000000000000                                                                  000238
1021903727600017200000260206200016896                         00000000400189291678000000000000000000000000060631082126/400189200000000400189291678030921000000000820075600259  000000000000000000000000000000000000000000000000000000000000000000000000000000000000000820000000000000000000000000000   010921             00000000000000                                                                  000239
1021903727600017200000260206200016896                         00000000400189813712000000000000000000000000060631082126/400189800000000400189813712030921000000000800065500001  000000000000000000000000000000000000000000000000000000000000000000000000000000000000000800000000000000000000000000000   010921             00000000000000                                                                  000240
1021903727600017200000260206200016896                         00000000400202070422000000000000000000000000060631082126/400202000000000400202070422030921000000001000003302285  000000000000000000000000000000000000000000000000000000000000000000000000000000000000001000000000000000000000000000000   010921             00000000000000                                                                  000241
1021903727600017200000260206200016896                         00000000400211217029000000000000000000000000060631082126/400211200000000400211217029030921000000004000010400957  000000000000000000000000000000000000000000000000000000000000000000000000000000000000004000000000000000000000000000000   010921             00000000000000                                                                  000242
1021903727600017200000260206200016896                         00000000400212801204000000000000000000000000060631082126/400212800000000400212801204030921000000002000004100156  000000000000000000000000000000000000000000000000000000000000000000000000000000000000002000000000000000000000000000000   010921             00000000000000                                                                  000243
1021903727600017200000260206200016896                         00000000400218333407000000000000000000000000060631082126/400218300000000400218333407030921000000003000075604327  000000000000000000000000000000000000000000000000000000000000000000000000000000000000003000000000000000000000000000000   010921             00000000000000                                                                  000244
1021903727600017200000260206200016896                         00000000400232184074000000000000000000000000060631082126/400232100000000400232184074030921000000000810075600259  000000000000000000000000000000000000000000000000000000000000000000000000000000000000000810000000000000000000000000000   010921             00000000000000                                                                  000245
1021903727600017200000260206200016896                         00000000400247550727000000000000000000000000060631082126/400247500000000400247550727030921000000002500010403880  000000000000000000000000000000000000000000000000000000000000000000000000000000000000002500000000000000000000000000000   010921             00000000000000                                                                  000246
1021903727600017200000260206200016896                         00000000400251903278000000000000000000000000060631082126/400251900000000400251903278030921000000000800065500001  000000000000000000000000000000000000000000000000000000000000000000000000000000000000000800000000000000000000000000000   010921             00000000000000                                                                  000247
1021903727600017200000260206200016896                         00000000400260649856000000000000000000000000060631082126/400260600000000400260649856030921000000000800065500001  000000000000000000000000000000000000000000000000000000000000000000000000000000000000000800000000000000000000000000000   010921             00000000000000                                                                  000248
