02RETORNO01COBRANCA       00000000000005034448E-PREPAG ADMINISTRADORA DE CAR237BRADESCO       0111210160000000799                                                                                                                                                                                                                                                                          031121         000001
1021903727600017200000260206200016896                         00000000100031777375000000000000000000000000060201112126/100031700000000100031777375021121000000002065923704144  000000000008200000000000000000000000000000000000000000000000000000000000000000000000000000000000000000000000000000000                          7600000000                                                                  000002
1021903727600017200000260206200016896                         00000000100031780120000000000000000000000000060201112126/100031700000000100031780120021121000000002646523704436  000000000008200000000000000000000000000000000000000000000000000000000000000000000000000000000000000000000000000000000                          0000000000                                                                  000003
1021903727600017200000260206200016896                         00000000100031780694000000000000000000000000060201112126/100031700000000100031780694021121000000033833323704602  000000000008200000000000000000000000000000000000000000000000000000000000000000000000000000000000000000000000000000000                          0000000000                                                                  000004
1021903727600017200000260206200016896                         00000000100031782921000000000000000000000000060201112126/100031700000000100031782921021121000000000148823704151  000000000008200000000000000000000000000000000000000000000000000000000000000000000000000000000000000000000000000000000                          0000000000                                                                  000005
1021903727600017200000260206200016896                         00000000100031788733000000000000000000000000060201112126/100031700000000100031788733021121000000003164823704400  000000000008200000000000000000000000000000000000000000000000000000000000000000000000000000000000000000000000000000000                          0000000000                                                                  000006
1021903727600017200000260206200016896                         0000000010003178892P000000000000000000000000060201112126/10003170000000010003178892P021121000000000093023704151  000000000008200000000000000000000000000000000000000000000000000000000000000000000000000000000000000000000000000000000                          0000000000                                                                  000007
1021903727600017200000260206200016896                         00000000200155529390000000000000000000000000060201112126/200155500000000200155529390031121000000002761323704426  000000000008200000000000000000000000000000000000000000000000000000000000000000000000000000000000000000000000000000000                          0000000000                                                                  000008
1021903727600017200000260206200016896                         00000000200194620168000000000000000000000000060201112126/200194600000000200194620168031121000000000459623704151  000000000008200000000000000000000000000000000000000000000000000000000000000000000000000000000000000000000000000000000                          0000000000                                                                  000009
1021903727600017200000260206200016896                         00000000200393230727000000000000000000000000060201112126/200393200000000200393230727041121000000001352823704151  000000000008200000000000000000000000000000000000000000000000000000000000000000000000000000000000000000000000000000000                          0000000000                                                                  000010
1021903727600017200000260206200016896                         00000000200417587400000000000000000000000000060201112126/200417500000000200417587400041121000000000301223700140  000000000008200000000000000000000000000000000000000000000000000000000000000000000000000000000000000000000000000000000                          0000000000                                                                  000011
1021903727600017200000260206200016896                         00000000200611782168000000000000000000000000060201112126/200611700000000200611782168041121000000001902423704426  000000000008200000000000000000000000000000000000000000000000000000000000000000000000000000000000000000000000000000000                          0000000000                                                                  000012
1021903727600017200000260206200016896                         00000000200686689759000000000000000000000000060201112126/200686600000000200686689759041121000000000329923704157  000000000008200000000000000000000000000000000000000000000000000000000000000000000000000000000000000000000000000000000                          0000000000                                                                  000013
1021903727600017200000260206200016896                         00000000200719580200000000000000000000000000060201112126/200719500000000200719580200041121000000000301223700140  000000000008200000000000000000000000000000000000000000000000000000000000000000000000000000000000000000000000000000000                          0000000000                                                                  000014
1021903727600017200000260206200016896                         0000000020082651394P000000000000000000000000060201112126/20082650000000020082651394P041121000000000970023704400  000000000000000000000000000000000000000000000000000000000000000000000000000000000000000000000000000000000000000000000                          0000000000                                                                  000015
1021903727600017200000260206200016896                         0000000020085431071P000000000000000000000000060201112126/20085430000000020085431071P041121000000000189023704400  000000000008200000000000000000000000000000000000000000000000000000000000000000000000000000000000000000000000000000000                          0000000000                                                                  000016
1021903727600017200000260206200016896                         00000000400071507323000000000000000000000000060201112126/400071500000000400071507323031121000000001400023704452  000000000008200000000000000000000000000000000000000000000000000000000000000000000000000000000000000000000000000000000                          0000000000                                                                  000017
1021903727600017200000260206200016896                         00000000400106644760000000000000000000000000060201112126/400106600000000400106644760021121000000009270023704158  000000000008200000000000000000000000000000000000000000000000000000000000000000000000000000000000000000000000000000000                          0000000000                                                                  000018
1021903727600017200000260206200016896                         00000000400110630871000000000000000000000000060201112126/400110600000000400110630871021121000000000800023704159  000000000008200000000000000000000000000000000000000000000000000000000000000000000000000000000000000000000000000000000                          0000000000                                                                  000019
1021903727600017200000260206200016896                         0000000040011204435P000000000000000000000000060201112126/40011200000000040011204435P041121000000000800023704159  000000000008200000000000000000000000000000000000000000000000000000000000000000000000000000000000000000000000000000000                          0000000000                                                                  000020
1021903727600017200000260206200016896                         00000000400113466924000000000000000000000000060201112126/400113400000000400113466924041121000000001750023704143  000000000008200000000000000000000000000000000000000000000000000000000000000000000000000000000000000000000000000000000                          7600000000                                                                  000021
1021903727600017200000260206200016896                         00000000400121666134000000000000000000000000060201112126/400121600000000400121666134041121000000005520023700153  000000000008200000000000000000000000000000000000000000000000000000000000000000000000000000000000000000000000000000000                          0000000000                                                                  000022
1021903727600017200000260206200016896                         0000000040012582611P000000000000000000000000060201112126/40012580000000040012582611P021121000000000800023704159  000000000008200000000000000000000000000000000000000000000000000000000000000000000000000000000000000000000000000000000                          0000000000                                                                  000023
1021903727600017200000260206200016896                         00000000400149996032000000000000000000000000060201112126/400149900000000400149996032041121000000005000023704426  000000000008200000000000000000000000000000000000000000000000000000000000000000000000000000000000000000000000000000000                          0000000000                                                                  000024
1021903727600017200000260206200016896                         00000000400172176921000000000000000000000000060201112126/400172100000000400172176921041121000000015000023704157  000000000008200000000000000000000000000000000000000000000000000000000000000000000000000000000000000000000000000000000                          0000000000                                                                  000025
1021903727600017200000260206200016896                         00000000400177287136000000000000000000000000060201112126/400177200000000400177287136041121000000001570023704158  000000000008200000000000000000000000000000000000000000000000000000000000000000000000000000000000000000000000000000000                          0000000000                                                                  000026
1021903727600017200000260206200016896                         00000000400187582195000000000000000000000000060201112126/400187500000000400187582195041121000000001500023704452  000000000008200000000000000000000000000000000000000000000000000000000000000000000000000000000000000000000000000000000                          0000000000                                                                  000027
1021903727600017200000260206200016896                         00000000400196781052000000000000000000000000060201112126/400196700000000400196781052041121000000000800023704159  000000000008200000000000000000000000000000000000000000000000000000000000000000000000000000000000000000000000000000000                          0000000000                                                                  000028
1021903727600017200000260206200016896                         00000000400198851872000000000000000000000000060201112126/400198800000000400198851872041121000000000800023704159  000000000008200000000000000000000000000000000000000000000000000000000000000000000000000000000000000000000000000000000                          0000000000                                                                  000029
1021903727600017200000260206200016896                         0000000040021744874P000000000000000000000000060201112126/40021740000000040021744874P021121000000000980023704424  000000000008200000000000000000000000000000000000000000000000000000000000000000000000000000000000000000000000000000000                          0000000000                                                                  000030
1021903727600017200000260206200016896                         00000000400223252474000000000000000000000000060201112126/400223200000000400223252474041121000000000800023704159  000000000008200000000000000000000000000000000000000000000000000000000000000000000000000000000000000000000000000000000                          0000000000                                                                  000031
1021903727600017200000260206200016896                         0000000040023241584P000000000000000000000000060201112126/40023240000000040023241584P021121000000000800023704159  000000000008200000000000000000000000000000000000000000000000000000000000000000000000000000000000000000000000000000000                          0000000000                                                                  000032
1021903727600017200000260206200016896                         00000000400232651128000000000000000000000000060201112126/400232600000000400232651128041121000000001500023704424  000000000008200000000000000000000000000000000000000000000000000000000000000000000000000000000000000000000000000000000                          0000000000                                                                  000033
1021903727600017200000260206200016896                         00000000400245683495000000000000000000000000060201112126/400245600000000400245683495041121000000150000023704428  000000000008200000000000000000000000000000000000000000000000000000000000000000000000000000000000000000000000000000000                          7600000000                                                                  000034
1021903727600017200000260206200016896                         00000000400249101407000000000000000000000000060201112126/400249100000000400249101407021121000000000800023704159  000000000008200000000000000000000000000000000000000000000000000000000000000000000000000000000000000000000000000000000                          0000000000                                                                  000035
1021903727600017200000260206200016896                         00000000400290089782000000000000000000000000060201112126/400290000000000400290089782041121000000000800023704159  000000000008200000000000000000000000000000000000000000000000000000000000000000000000000000000000000000000000000000000                          0000000000                                                                  000036
1021903727600017200000260206200016896                         00000000400301711073000000000000000000000000060201112126/400301700000000400301711073021121000000000820023704602  000000000008200000000000000000000000000000000000000000000000000000000000000000000000000000000000000000000000000000000                          7600000000                                                                  000037
1021903727600017200000260206200016896                         00000000400320243072000000000000000000000000060201112126/400320200000000400320243072031121000000000800023704452  000000000008200000000000000000000000000000000000000000000000000000000000000000000000000000000000000000000000000000000                          0000000000                                                                  000038
1021903727600017200000260206200016896                         00000000400321519497000000000000000000000000060201112126/400321500000000400321519497021121000000000800023704602  000000000008200000000000000000000000000000000000000000000000000000000000000000000000000000000000000000000000000000000                          7600000000                                                                  000039
1021903727600017200000260206200016896                         00000000400338554571000000000000000000000000060201112126/400338500000000400338554571041121000000002500023702062  000000000008200000000000000000000000000000000000000000000000000000000000000000000000000000000000000000000000000000000                          0000000000                                                                  000040
1021903727600017200000260206200016896                         0000000040035656004P000000000000000000000000060201112126/40035650000000040035656004P031121000000000800023704151  000000000008200000000000000000000000000000000000000000000000000000000000000000000000000000000000000000000000000000000                          0000000000                                                                  000041
1021903727600017200000260206200016896                         00000000400372116877000000000000000000000000060201112126/400372100000000400372116877041121000000002500023700435  000000000008200000000000000000000000000000000000000000000000000000000000000000000000000000000000000000000000000000000                          0000000000                                                                  000042
1021903727600017200000260206200016896                         00000000400382061272000000000000000000000000060201112126/400382000000000400382061272041121000000000800023704159  000000000008200000000000000000000000000000000000000000000000000000000000000000000000000000000000000000000000000000000                          0000000000                                                                  000043
1021903727600017200000260206200016896                         00000000400387652643000000000000000000000000060201112126/400387600000000400387652643021121000000000800023704159  000000000008200000000000000000000000000000000000000000000000000000000000000000000000000000000000000000000000000000000                          0000000000                                                                  000044
1021903727600017200000260206200016896                         00000000400391795009000000000000000000000000060201112126/400391700000000400391795009041121000000004000023702062  000000000008200000000000000000000000000000000000000000000000000000000000000000000000000000000000000000000000000000000                          0000000000                                                                  000045
1021903727600017200000260206200016896                         00000000400421007809000000000000000000000000060201112126/400421000000000400421007809021121000000000830023704602  000000000008200000000000000000000000000000000000000000000000000000000000000000000000000000000000000000000000000000000                          7600000000                                                                  000046
1021903727600017200000260206200016896                         00000000400450601124000000000000000000000000060201112126/400450600000000400450601124041121000000002500023700320  000000000008200000000000000000000000000000000000000000000000000000000000000000000000000000000000000000000000000000000                          0000000000                                                                  000047
1021903727600017200000260206200016896                         00000000400461029589000000000000000000000000060201112126/400461000000000400461029589041121000000005350023704154  000000000008200000000000000000000000000000000000000000000000000000000000000000000000000000000000000000000000000000000                          0000000000                                                                  000048
1021903727600017200000260206200016896                         00000000400476627040000000000000000000000000060201112126/400476600000000400476627040041121000000000800023704159  000000000008200000000000000000000000000000000000000000000000000000000000000000000000000000000000000000000000000000000                          0000000000                                                                  000049
1021903727600017200000260206200016896                         00000000400490642001000000000000000000000000060201112126/400490600000000400490642001041121000000003000023704151  000000000008200000000000000000000000000000000000000000000000000000000000000000000000000000000000000000000000000000000                          0000000000                                                                  000050
1021903727600017200000260206200016896                         0000000040052786381P000000000000000000000000060201112126/40052780000000040052786381P041121000000000800023704159  000000000008200000000000000000000000000000000000000000000000000000000000000000000000000000000000000000000000000000000                          0000000000                                                                  000051
1021903727600017200000260206200016896                         0000000040053847064P000000000000000000000000060201112126/40053840000000040053847064P021121000000001500023704424  000000000008200000000000000000000000000000000000000000000000000000000000000000000000000000000000000000000000000000000                          0000000000                                                                  000052
1021903727600017200000260206200016896                         00000000400542909966000000000000000000000000060201112126/400542900000000400542909966031121000000002000023704159  000000000008200000000000000000000000000000000000000000000000000000000000000000000000000000000000000000000000000000000                          0000000000                                                                  000053
1021903727600017200000260206200016896                         00000000400556133049000000000000000000000000060201112126/400556100000000400556133049021121000000000800023704159  000000000008200000000000000000000000000000000000000000000000000000000000000000000000000000000000000000000000000000000                          0000000000                                                                  000054
1021903727600017200000260206200016896                         00000000400558096515000000000000000000000000060201112126/400558000000000400558096515041121000000001520023700140  000000000008200000000000000000000000000000000000000000000000000000000000000000000000000000000000000000000000000000000                          0000000000                                                                  000055
1021903727600017200000260206200016896                         00000000400559832967000000000000000000000000060201112126/400559800000000400559832967041121000000004150023704159  000000000008200000000000000000000000000000000000000000000000000000000000000000000000000000000000000000000000000000000                          0000000000                                                                  000056
1021903727600017200000260206200016896                         00000000400579314377000000000000000000000000060201112126/400579300000000400579314377041121000000002500023704428  000000000008200000000000000000000000000000000000000000000000000000000000000000000000000000000000000000000000000000000                          0000000000                                                                  000057
1021903727600017200000260206200016896                         00000000400584052461000000000000000000000000060201112126/400584000000000400584052461041121000000007000023700140  000000000008200000000000000000000000000000000000000000000000000000000000000000000000000000000000000000000000000000000                          0000000000                                                                  000058
1021903727600017200000260206200016896                         00000000400588647354000000000000000000000000060201112126/400588600000000400588647354041121000000003750023700321  000000000008200000000000000000000000000000000000000000000000000000000000000000000000000000000000000000000000000000000                          0000000000                                                                  000059
1021903727600017200000260206200016896                         00000000400594616886000000000000000000000000060201112126/400594600000000400594616886041121000000000800023704422  000000000008200000000000000000000000000000000000000000000000000000000000000000000000000000000000000000000000000000000                          0000000000                                                                  000060
1021903727600017200000260206200016896                         00000000400609403175000000000000000000000000060201112126/400609400000000400609403175041121000000000800023704159  000000000008200000000000000000000000000000000000000000000000000000000000000000000000000000000000000000000000000000000                          0000000000                                                                  000061
1021903727600017200000260206200016896                         00000000400614161651000000000000000000000000060201112126/400614100000000400614161651021121000000000800023704159  000000000008200000000000000000000000000000000000000000000000000000000000000000000000000000000000000000000000000000000                          0000000000                                                                  000062
1021903727600017200000260206200016896                         00000000400620662778000000000000000000000000060201112126/400620600000000400620662778041121000000000800023704159  000000000008200000000000000000000000000000000000000000000000000000000000000000000000000000000000000000000000000000000                          0000000000                                                                  000063
1021903727600017200000260206200016896                         00000000400622306928000000000000000000000000060201112126/400622300000000400622306928031121000000001200023704452  000000000008200000000000000000000000000000000000000000000000000000000000000000000000000000000000000000000000000000000                          0000000000                                                                  000064
1021903727600017200000260206200016896                         00000000400648831311000000000000000000000000060201112126/400648800000000400648831311021121000000000800023704159  000000000008200000000000000000000000000000000000000000000000000000000000000000000000000000000000000000000000000000000                          0000000000                                                                  000065
1021903727600017200000260206200016896                         00000000400673866189000000000000000000000000060201112126/400673800000000400673866189031121000000003100023704159  000000000008200000000000000000000000000000000000000000000000000000000000000000000000000000000000000000000000000000000                          0000000000                                                                  000066
1021903727600017200000260206200016896                         00000000400676983836000000000000000000000000060201112126/400676900000000400676983836031121000000001600023704452  000000000008200000000000000000000000000000000000000000000000000000000000000000000000000000000000000000000000000000000                          0000000000                                                                  000067
1021903727600017200000260206200016896                         00000000400680298749000000000000000000000000060201112126/400680200000000400680298749041121000000000800023704159  000000000008200000000000000000000000000000000000000000000000000000000000000000000000000000000000000000000000000000000                          0000000000                                                                  000068
1021903727600017200000260206200016896                         00000000400683613564000000000000000000000000060201112126/400683600000000400683613564021121000000000810023704602  000000000008200000000000000000000000000000000000000000000000000000000000000000000000000000000000000000000000000000000                          7600000000                                                                  000069
1021903727600017200000260206200016896                         00000000400692365492000000000000000000000000060201112126/400692300000000400692365492021121000000000980023704424  000000000008200000000000000000000000000000000000000000000000000000000000000000000000000000000000000000000000000000000                          0000000000                                                                  000070
1021903727600017200000260206200016896                         00000000400698518614000000000000000000000000060201112126/400698500000000400698518614021121000000000800023704159  000000000008200000000000000000000000000000000000000000000000000000000000000000000000000000000000000000000000000000000                          0000000000                                                                  000071
1021903727600017200000260206200016896                         00000000400708527994000000000000000000000000060201112126/400708500000000400708527994041121000000010000023704144  000000000008200000000000000000000000000000000000000000000000000000000000000000000000000000000000000000000000000000000                          0000000000                                                                  000072
1021903727600017200000260206200016896                         00000000400710238789000000000000000000000000060201112126/400710200000000400710238789041121000000000800023704159  000000000008200000000000000000000000000000000000000000000000000000000000000000000000000000000000000000000000000000000                          0000000000                                                                  000073
1021903727600017200000260206200016896                         00000000400716731673000000000000000000000000060201112126/400716700000000400716731673041121000000012000023703109  000000000008200000000000000000000000000000000000000000000000000000000000000000000000000000000000000000000000000000000                          0000000000                                                                  000074
1021903727600017200000260206200016896                         00000000400730811531000000000000000000000000060201112126/400730800000000400730811531041121000000000800023700140  000000000008200000000000000000000000000000000000000000000000000000000000000000000000000000000000000000000000000000000                          0000000000                                                                  000075
1021903727600017200000260206200016896                         00000000400741912372000000000000000000000000060201112126/400741900000000400741912372041121000000012000023704157  000000000008200000000000000000000000000000000000000000000000000000000000000000000000000000000000000000000000000000000                          0000000000                                                                  000076
1021903727600017200000260206200016896                         00000000400761156574000000000000000000000000060201112126/400761100000000400761156574041121000000000800023704159  000000000008200000000000000000000000000000000000000000000000000000000000000000000000000000000000000000000000000000000                          0000000000                                                                  000077
1021903727600017200000260206200016896                         00000000400764515656000000000000000000000000060201112126/400764500000000400764515656021121000000003750023704157  000000000008200000000000000000000000000000000000000000000000000000000000000000000000000000000000000000000000000000000                          0000000000                                                                  000078
1021903727600017200000260206200016896                         00000000400768920873000000000000000000000000060201112126/400768900000000400768920873041121000000012000023704151  000000000008200000000000000000000000000000000000000000000000000000000000000000000000000000000000000000000000000000000                          0000000000                                                                  000079
1021903727600017200000260206200016896                         00000000400769793646000000000000000000000000060201112126/400769700000000400769793646041121000000001500023704424  000000000008200000000000000000000000000000000000000000000000000000000000000000000000000000000000000000000000000000000                          0000000000                                                                  000080
1021903727600017200000260206200016896                         00000000400790596230000000000000000000000000060201112126/400790500000000400790596230021121000000001500023704151  000000000008200000000000000000000000000000000000000000000000000000000000000000000000000000000000000000000000000000000                          0000000000                                                                  000081
1021903727600017200000260206200016896                         00000000400811674504000000000000000000000000060201112126/400811600000000400811674504021121000000002630023704154  000000000008200000000000000000000000000000000000000000000000000000000000000000000000000000000000000000000000000000000                          0000000000                                                                  000082
1021903727600017200000260206200016896                         0000000040081264305P000000000000000000000000060201112126/40081260000000040081264305P041121000000003000023704159  000000000008200000000000000000000000000000000000000000000000000000000000000000000000000000000000000000000000000000000                          0000000000                                                                  000083
1021903727600017200000260206200016896                         0000000040083350453P000000000000000000000000060201112126/40083350000000040083350453P041121000000012000023704154  000000000008200000000000000000000000000000000000000000000000000000000000000000000000000000000000000000000000000000000                          0000000000                                                                  000084
1021903727600017200000260206200016896                         00000000400841486710000000000000000000000000060201112126/400841400000000400841486710021121000000000800023704159  000000000008200000000000000000000000000000000000000000000000000000000000000000000000000000000000000000000000000000000                          0000000000                                                                  000085
1021903727600017200000260206200016896                         00000000400843306655000000000000000000000000060201112126/400843300000000400843306655021121000000000800023704159  000000000008200000000000000000000000000000000000000000000000000000000000000000000000000000000000000000000000000000000                          0000000000                                                                  000086
1021903727600017200000260206200016896                         00000000400869342080000000000000000000000000060201112126/400869300000000400869342080021121000000000800023704159  000000000008200000000000000000000000000000000000000000000000000000000000000000000000000000000000000000000000000000000                          0000000000                                                                  000087
1021903727600017200000260206200016896                         00000000400874920211000000000000000000000000060201112126/400874900000000400874920211041121000000001750023704422  000000000008200000000000000000000000000000000000000000000000000000000000000000000000000000000000000000000000000000000                          0000000000                                                                  000088
1021903727600017200000260206200016896                         00000000400876695584000000000000000000000000060201112126/400876600000000400876695584021121000000000800023704159  000000000008200000000000000000000000000000000000000000000000000000000000000000000000000000000000000000000000000000000                          0000000000                                                                  000089
1021903727600017200000260206200016896                         00000000400879592476000000000000000000000000060201112126/400879500000000400879592476041121000000000800023704159  000000000008200000000000000000000000000000000000000000000000000000000000000000000000000000000000000000000000000000000                          0000000000                                                                  000090
1021903727600017200000260206200016896                         00000000400893305986000000000000000000000000060201112126/400893300000000400893305986041121000000005180023704143  000000000008200000000000000000000000000000000000000000000000000000000000000000000000000000000000000000000000000000000                          7600000000                                                                  000091
1021903727600017200000260206200016896                         00000000400894309497000000000000000000000000060201112126/400894300000000400894309497041121000000001500023704158  000000000008200000000000000000000000000000000000000000000000000000000000000000000000000000000000000000000000000000000                          0000000000                                                                  000092
1021903727600017200000260206200016896                         00000000400900330509000000000000000000000000060201112126/400900300000000400900330509041121000000000800023704143  000000000008200000000000000000000000000000000000000000000000000000000000000000000000000000000000000000000000000000000                          7600000000                                                                  000093
1021903727600017200000260206200016896                         00000000400912866668000000000000000000000000060201112126/400912800000000400912866668021121000000000800023704159  000000000008200000000000000000000000000000000000000000000000000000000000000000000000000000000000000000000000000000000                          0000000000                                                                  000094
1021903727600017200000260206200016896                         00000000400933104563000000000000000000000000060201112126/400933100000000400933104563041121000000001500023704452  000000000008200000000000000000000000000000000000000000000000000000000000000000000000000000000000000000000000000000000                          0000000000                                                                  000095
1021903727600017200000260206200016896                         00000000400941534089000000000000000000000000060201112126/400941500000000400941534089041121000000000800023704159  000000000008200000000000000000000000000000000000000000000000000000000000000000000000000000000000000000000000000000000                          0000000000                                                                  000096
1021903727600017200000260206200016896                         00000000400941569826000000000000000000000000060201112126/400941500000000400941569826041121000000001000023704159  000000000008200000000000000000000000000000000000000000000000000000000000000000000000000000000000000000000000000000000                          0000000000                                                                  000097
1021903727600017200000260206200016896                         00000000400951058072000000000000000000000000060201112126/400951000000000400951058072041121000000000800023704159  000000000008200000000000000000000000000000000000000000000000000000000000000000000000000000000000000000000000000000000                          0000000000                                                                  000098
1021903727600017200000260206200016896                         00000000400960901920000000000000000000000000060201112126/400960900000000400960901920021121000000001500023704424  000000000008200000000000000000000000000000000000000000000000000000000000000000000000000000000000000000000000000000000                          0000000000                                                                  000099
1021903727600017200000260206200016896                         00000000400961559312000000000000000000000000060201112126/400961500000000400961559312041121000000001120023700320  000000000008200000000000000000000000000000000000000000000000000000000000000000000000000000000000000000000000000000000                          0000000000                                                                  000100
1021903727600017200000260206200016896                         00000000400975074435000000000000000000000000060201112126/400975000000000400975074435041121000000005000023704143  000000000008200000000000000000000000000000000000000000000000000000000000000000000000000000000000000000000000000000000                          0000000000                                                                  000101
1021903727600017200000260206200016896                         00000000400996419483000000000000000000000000060201112126/400996400000000400996419483021121000000000800023704159  000000000008200000000000000000000000000000000000000000000000000000000000000000000000000000000000000000000000000000000                          0000000000                                                                  000102
1021903727600017200000260206200016896                         00000000400998558162000000000000000000000000060201112126/400998500000000400998558162021121000000002500023704452  000000000008200000000000000000000000000000000000000000000000000000000000000000000000000000000000000000000000000000000                          0000000000                                                                  000103
1021903727600017200000260206200016896                         00000000600585612974000000000000000000000000060201112126/600585600000000600585612974041121000000000900023700321  000000000008200000000000000000000000000000000000000000000000000000000000000000000000000000000000000000000000000000000                          0000000000                                                                  000104
1021903727600017200000260206200016896                         00000000600769642345000000000000000000000000060201112126/600769600000000600769642345021121000000000269923704144  000000000008200000000000000000000000000000000000000000000000000000000000000000000000000000000000000000000000000000000                          0000000000                                                                  000105
1021903727600017200000260206200016896                         00000000600904599692000000000000000000000000060201112126/600904500000000600904599692021121000000000169923704422  000000000008200000000000000000000000000000000000000000000000000000000000000000000000000000000000000000000000000000000                          7600000000                                                                  000106
1021903727600017200000260206200016896                         00000000100031780120000000000000000000000000060601112126/100031700000000100031780120021121000000002646563300001  000000000000000000000000000000000000000000000000000000000000000000000000000000000000002646500000000000000000000000000   031121             00000000000000                                                                  000107
1021903727600017200000260206200016896                         00000000100031780694000000000000000000000000060601112126/100031700000000100031780694021121000000033833334106805  000000000000000000000000000000000000000000000000000000000000000000000000000000000000033833300000000000000000000000000   031121             00000000000000                                                                  000108
1021903727600017200000260206200016896                         00000000100031782921000000000000000000000000060601112126/100031700000000100031782921021121000000000148834109926  000000000000000000000000000000000000000000000000000000000000000000000000000000000000000148800000000000000000000000000   031121             00000000000000                                                                  000109
1021903727600017200000260206200016896                         00000000100031788733000000000000000000000000060601112126/100031700000000100031788733021121000000003164834108570  000000000000000000000000000000000000000000000000000000000000000000000000000000000000003164800000000000000000000000000   031121             00000000000000                                                                  000110
1021903727600017200000260206200016896                         0000000010003178892P000000000000000000000000060601112126/10003170000000010003178892P021121000000000093000103567  000000000000000000000000000000000000000000000000000000000000000000000000000000000000000093000000000000000000000000000   031121             00000000000000                                                                  000111
1021903727600017200000260206200016896                         00000000200155529390000000000000000000000000060601112126/200155500000000200155529390031121000000002761304100043  000000000000000000000000000000000000000000000000000000000000000000000000000000000000002761300000000000000000000000000   031121             00000000000000                                                                  000112
1021903727600017200000260206200016896                         00000000200194620168000000000000000000000000060601112126/200194600000000200194620168031121000000000459610403880  000000000000000000000000000000000000000000000000000000000000000000000000000000000000000459600000000000000000000000000   031121             00000000000000                                                                  000113
1021903727600017200000260206200016896                         00000000200393230727000000000000000000000000060601112126/200393200000000200393230727041121000000001352810404632  000000000000000000000000000000000000000000000000000000000000000000000000000000000000001352800000000000000000000000000   031121             00000000000000                                                                  000114
1021903727600017200000260206200016896                         00000000200611782168000000000000000000000000060601112126/200611700000000200611782168041121000000001902404100043  000000000000000000000000000000000000000000000000000000000000000000000000000000000000001902400000000000000000000000000   031121             00000000000000                                                                  000115
1021903727600017200000260206200016896                         00000000200719580200000000000000000000000000060601112126/200719500000000200719580200041121000000000301263300001  000000000000000000000000000000000000000000000000000000000000000000000000000000000000000301200000000000000000000000000   031121             00000000000000                                                                  000116
1021903727600017200000260206200016896                         0000000020082651394P000000000000000000000000060601112126/20082650000000020082651394P041121000000000970034103767  000000000000000000000000000000000000000000000000000000000000000000000000000000000000000970000000000000000000000000000   031121             00000000000000                                                                  000117
1021903727600017200000260206200016896                         00000000400071507323000000000000000000000000060601112126/400071500000000400071507323031121000000001400075604327  000000000000000000000000000000000000000000000000000000000000000000000000000000000000001400000000000000000000000000000   031121             00000000000000                                                                  000118
1021903727600017200000260206200016896                         00000000400106644760000000000000000000000000060601112126/400106600000000400106644760021121000000009270010400407  000000000000000000000000000000000000000000000000000000000000000000000000000000000000009270000000000000000000000000000   031121             00000000000000                                                                  000119
1021903727600017200000260206200016896                         00000000400110630871000000000000000000000000060601112126/400110600000000400110630871021121000000000800065500001  000000000000000000000000000000000000000000000000000000000000000000000000000000000000000800000000000000000000000000000   031121             00000000000000                                                                  000120
1021903727600017200000260206200016896                         0000000040011204435P000000000000000000000000060601112126/40011200000000040011204435P041121000000000800065500001  000000000000000000000000000000000000000000000000000000000000000000000000000000000000000800000000000000000000000000000   031121             00000000000000                                                                  000121
1021903727600017200000260206200016896                         00000000400113466924000000000000000000000000060601112126/400113400000000400113466924041121000000001750023702151  000000000000000000000000000000000000000000000000000000000000000000000000000000000000001750000000000000000000000000000   031121             00000000000000                                                                  000122
1021903727600017200000260206200016896                         00000000400121666134000000000000000000000000060601112126/400121600000000400121666134041121000000005520023705889  000000000000000000000000000000000000000000000000000000000000000000000000000000000000005520000000000000000000000000000   031121             00000000000000                                                                  000123
1021903727600017200000260206200016896                         0000000040012582611P000000000000000000000000060601112126/40012580000000040012582611P021121000000000800065500001  000000000000000000000000000000000000000000000000000000000000000000000000000000000000000800000000000000000000000000000   031121             00000000000000                                                                  000124
1021903727600017200000260206200016896                         00000000400149996032000000000000000000000000060601112126/400149900000000400149996032041121000000005000010403711  000000000000000000000000000000000000000000000000000000000000000000000000000000000000005000000000000000000000000000000   031121             00000000000000                                                                  000125
1021903727600017200000260206200016896                         00000000400172176921000000000000000000000000060601112126/400172100000000400172176921041121000000015000023701422  000000000000000000000000000000000000000000000000000000000000000000000000000000000000015000000000000000000000000000000   031121             00000000000000                                                                  000126
1021903727600017200000260206200016896                         00000000400177287136000000000000000000000000060601112126/400177200000000400177287136041121000000001570000102020  000000000000000000000000000000000000000000000000000000000000000000000000000000000000001570000000000000000000000000000   031121             00000000000000                                                                  000127
1021903727600017200000260206200016896                         00000000400187582195000000000000000000000000060601112126/400187500000000400187582195041121000000001500010403880  000000000000000000000000000000000000000000000000000000000000000000000000000000000000001500000000000000000000000000000   031121             00000000000000                                                                  000128
1021903727600017200000260206200016896                         00000000400196781052000000000000000000000000060601112126/400196700000000400196781052041121000000000800065500001  000000000000000000000000000000000000000000000000000000000000000000000000000000000000000800000000000000000000000000000   031121             00000000000000                                                                  000129
1021903727600017200000260206200016896                         0000000040023241584P000000000000000000000000060601112126/40023240000000040023241584P021121000000000800065500001  000000000000000000000000000000000000000000000000000000000000000000000000000000000000000800000000000000000000000000000   031121             00000000000000                                                                  000130
1021903727600017200000260206200016896                         00000000400232651128000000000000000000000000060601112126/400232600000000400232651128041121000000001500010403880  000000000000000000000000000000000000000000000000000000000000000000000000000000000000001500000000000000000000000000000   031121             00000000000000                                                                  000131
1021903727600017200000260206200016896                         00000000400245683495000000000000000000000000060601112126/400245600000000400245683495041121000000150000000103478  000000000000000000000000000000000000000000000000000000000000000000000000000000000000150000000000000000000000000000000   031121             00000000000000                                                                  000132
1021903727600017200000260206200016896                         00000000400249101407000000000000000000000000060601112126/400249100000000400249101407021121000000000800065500001  000000000000000000000000000000000000000000000000000000000000000000000000000000000000000800000000000000000000000000000   031121             00000000000000                                                                  000133
1021903727600017200000260206200016896                         00000000400290089782000000000000000000000000060601112126/400290000000000400290089782041121000000000800065500001  000000000000000000000000000000000000000000000000000000000000000000000000000000000000000800000000000000000000000000000   031121             00000000000000                                                                  000134
1021903727600017200000260206200016896                         00000000400301711073000000000000000000000000060601112126/400301700000000400301711073021121000000000820075600259  000000000000000000000000000000000000000000000000000000000000000000000000000000000000000820000000000000000000000000000   031121             00000000000000                                                                  000135
1021903727600017200000260206200016896                         00000000400320243072000000000000000000000000060601112126/400320200000000400320243072031121000000000800075604327  000000000000000000000000000000000000000000000000000000000000000000000000000000000000000800000000000000000000000000000   031121             00000000000000                                                                  000136
1021903727600017200000260206200016896                         00000000400321519497000000000000000000000000060601112126/400321500000000400321519497021121000000000800075600259  000000000000000000000000000000000000000000000000000000000000000000000000000000000000000800000000000000000000000000000   031121             00000000000000                                                                  000137
1021903727600017200000260206200016896                         00000000400338554571000000000000000000000000060601112126/400338500000000400338554571041121000000002500010403880  000000000000000000000000000000000000000000000000000000000000000000000000000000000000002500000000000000000000000000000   031121             00000000000000                                                                  000138
1021903727600017200000260206200016896                         0000000040035656004P000000000000000000000000060601112126/40035650000000040035656004P031121000000000800063300001  000000000000000000000000000000000000000000000000000000000000000000000000000000000000000800000000000000000000000000000   031121             00000000000000                                                                  000139
1021903727600017200000260206200016896                         00000000400372116877000000000000000000000000060601112126/400372100000000400372116877041121000000002500010403880  000000000000000000000000000000000000000000000000000000000000000000000000000000000000002500000000000000000000000000000   031121             00000000000000                                                                  000140
1021903727600017200000260206200016896                         00000000400386288409000000000000000000000000060601112126/400386200000000400386288409011121000000005480002100112  000000000000000000000000000000000000000000000000000000000000000000000000000000000000005480000000000000000000000000000   031121             00000000000000                                                                  000141
1021903727600017200000260206200016896                         00000000400387652643000000000000000000000000060601112126/400387600000000400387652643021121000000000800065500001  000000000000000000000000000000000000000000000000000000000000000000000000000000000000000800000000000000000000000000000   031121             00000000000000                                                                  000142
1021903727600017200000260206200016896                         00000000400391795009000000000000000000000000060601112126/400391700000000400391795009041121000000004000063300001  000000000000000000000000000000000000000000000000000000000000000000000000000000000000004000000000000000000000000000000   031121             00000000000000                                                                  000143
1021903727600017200000260206200016896                         00000000400421007809000000000000000000000000060601112126/400421000000000400421007809021121000000000830075600259  000000000000000000000000000000000000000000000000000000000000000000000000000000000000000830000000000000000000000000000   031121             00000000000000                                                                  000144
1021903727600017200000260206200016896                         00000000400423258507000000000000000000000000060601112126/400423200000000400423258507011121000000003000010400422  000000000000000000000000000000000000000000000000000000000000000000000000000000000000003000000000000000000000000000000   031121             00000000000000                                                                  000145
1021903727600017200000260206200016896                         00000000400450601124000000000000000000000000060601112126/400450600000000400450601124041121000000002500010403880  000000000000000000000000000000000000000000000000000000000000000000000000000000000000002500000000000000000000000000000   031121             00000000000000                                                                  000146
1021903727600017200000260206200016896                         00000000400476627040000000000000000000000000060601112126/400476600000000400476627040041121000000000800065500001  000000000000000000000000000000000000000000000000000000000000000000000000000000000000000800000000000000000000000000000   031121             00000000000000                                                                  000147
1021903727600017200000260206200016896                         00000000400490642001000000000000000000000000060601112126/400490600000000400490642001041121000000003000010400280  000000000000000000000000000000000000000000000000000000000000000000000000000000000000003000000000000000000000000000000   031121             00000000000000                                                                  000148
1021903727600017200000260206200016896                         00000000400542909966000000000000000000000000060601112126/400542900000000400542909966031121000000002000003300773  000000000000000000000000000000000000000000000000000000000000000000000000000000000000002000000000000000000000000000000   031121             00000000000000                                                                  000149
1021903727600017200000260206200016896                         00000000400556133049000000000000000000000000060601112126/400556100000000400556133049021121000000000800065500001  000000000000000000000000000000000000000000000000000000000000000000000000000000000000000800000000000000000000000000000   031121             00000000000000                                                                  000150
1021903727600017200000260206200016896                         00000000400558096515000000000000000000000000060601112126/400558000000000400558096515041121000000001520010403136  000000000000000000000000000000000000000000000000000000000000000000000000000000000000001520000000000000000000000000000   031121             00000000000000                                                                  000151
1021903727600017200000260206200016896                         00000000400559832967000000000000000000000000060601112126/400559800000000400559832967041121000000004150075604327  000000000000000000000000000000000000000000000000000000000000000000000000000000000000004150000000000000000000000000000   031121             00000000000000                                                                  000152
1021903727600017200000260206200016896                         00000000400579314377000000000000000000000000060601112126/400579300000000400579314377041121000000002500010403880  000000000000000000000000000000000000000000000000000000000000000000000000000000000000002500000000000000000000000000000   031121             00000000000000                                                                  000153
1021903727600017200000260206200016896                         00000000400584052461000000000000000000000000060601112126/400584000000000400584052461041121000000007000075604327  000000000000000000000000000000000000000000000000000000000000000000000000000000000000007000000000000000000000000000000   031121             00000000000000                                                                  000154
1021903727600017200000260206200016896                         00000000400588647354000000000000000000000000060601112126/400588600000000400588647354041121000000003750010403880  000000000000000000000000000000000000000000000000000000000000000000000000000000000000003750000000000000000000000000000   031121             00000000000000                                                                  000155
1021903727600017200000260206200016896                         00000000400594616886000000000000000000000000060601112126/400594600000000400594616886041121000000000800000103192  000000000000000000000000000000000000000000000000000000000000000000000000000000000000000800000000000000000000000000000   031121             00000000000000                                                                  000156
1021903727600017200000260206200016896                         00000000400614161651000000000000000000000000060601112126/400614100000000400614161651021121000000000800065500001  000000000000000000000000000000000000000000000000000000000000000000000000000000000000000800000000000000000000000000000   031121             00000000000000                                                                  000157
1021903727600017200000260206200016896                         00000000400620662778000000000000000000000000060601112126/400620600000000400620662778041121000000000800065500001  000000000000000000000000000000000000000000000000000000000000000000000000000000000000000800000000000000000000000000000   031121             00000000000000                                                                  000158
1021903727600017200000260206200016896                         00000000400622306928000000000000000000000000060601112126/400622300000000400622306928031121000000001200075604327  000000000000000000000000000000000000000000000000000000000000000000000000000000000000001200000000000000000000000000000   031121             00000000000000                                                                  000159
1021903727600017200000260206200016896                         00000000400648831311000000000000000000000000060601112126/400648800000000400648831311021121000000000800065500001  000000000000000000000000000000000000000000000000000000000000000000000000000000000000000800000000000000000000000000000   031121             00000000000000                                                                  000160
1021903727600017200000260206200016896                         00000000400673866189000000000000000000000000060601112126/400673800000000400673866189031121000000003100063300001  000000000000000000000000000000000000000000000000000000000000000000000000000000000000003100000000000000000000000000000   031121             00000000000000                                                                  000161
1021903727600017200000260206200016896                         00000000400676983836000000000000000000000000060601112126/400676900000000400676983836031121000000001600075604327  000000000000000000000000000000000000000000000000000000000000000000000000000000000000001600000000000000000000000000000   031121             00000000000000                                                                  000162
1021903727600017200000260206200016896                         00000000400683613564000000000000000000000000060601112126/400683600000000400683613564021121000000000810075600259  000000000000000000000000000000000000000000000000000000000000000000000000000000000000000810000000000000000000000000000   031121             00000000000000                                                                  000163
1021903727600017200000260206200016896                         00000000400698518614000000000000000000000000060601112126/400698500000000400698518614021121000000000800065500001  000000000000000000000000000000000000000000000000000000000000000000000000000000000000000800000000000000000000000000000   031121             00000000000000                                                                  000164
1021903727600017200000260206200016896                         00000000400708527994000000000000000000000000060601112126/400708500000000400708527994041121000000010000010400397  000000000000000000000000000000000000000000000000000000000000000000000000000000000000010000000000000000000000000000000   031121             00000000000000                                                                  000165
1021903727600017200000260206200016896                         00000000400710238789000000000000000000000000060601112126/400710200000000400710238789041121000000000800075604327  000000000000000000000000000000000000000000000000000000000000000000000000000000000000000800000000000000000000000000000   031121             00000000000000                                                                  000166
1021903727600017200000260206200016896                         00000000400716731673000000000000000000000000060601112126/400716700000000400716731673041121000000012000000104450  000000000000000000000000000000000000000000000000000000000000000000000000000000000000012000000000000000000000000000000   031121             00000000000000                                                                  000167
1021903727600017200000260206200016896                         00000000400730811531000000000000000000000000060601112126/400730800000000400730811531041121000000000800010403189  000000000000000000000000000000000000000000000000000000000000000000000000000000000000000800000000000000000000000000000   031121             00000000000000                                                                  000168
1021903727600017200000260206200016896                         00000000400741912372000000000000000000000000060601112126/400741900000000400741912372041121000000012000010400389  000000000000000000000000000000000000000000000000000000000000000000000000000000000000012000000000000000000000000000000   031121             00000000000000                                                                  000169
1021903727600017200000260206200016896                         00000000400764515656000000000000000000000000060601112126/400764500000000400764515656021121000000003750010403880  000000000000000000000000000000000000000000000000000000000000000000000000000000000000003750000000000000000000000000000   031121             00000000000000                                                                  000170
1021903727600017200000260206200016896                         00000000400768920873000000000000000000000000060601112126/400768900000000400768920873041121000000012000063300001  000000000000000000000000000000000000000000000000000000000000000000000000000000000000012000000000000000000000000000000   031121             00000000000000                                                                  000171
1021903727600017200000260206200016896                         00000000400769793646000000000000000000000000060601112126/400769700000000400769793646041121000000001500010403880  000000000000000000000000000000000000000000000000000000000000000000000000000000000000001500000000000000000000000000000   031121             00000000000000                                                                  000172
1021903727600017200000260206200016896                         00000000400790596230000000000000000000000000060601112126/400790500000000400790596230021121000000001500010403880  000000000000000000000000000000000000000000000000000000000000000000000000000000000000001500000000000000000000000000000   031121             00000000000000                                                                  000173
1021903727600017200000260206200016896                         00000000400811674504000000000000000000000000060601112126/400811600000000400811674504021121000000002630002100112  000000000000000000000000000000000000000000000000000000000000000000000000000000000000002630000000000000000000000000000   031121             00000000000000                                                                  000174
1021903727600017200000260206200016896                         0000000040083350453P000000000000000000000000060601112126/40083350000000040083350453P041121000000012000010400721  000000000000000000000000000000000000000000000000000000000000000000000000000000000000012000000000000000000000000000000   031121             00000000000000                                                                  000175
1021903727600017200000260206200016896                         00000000400841486710000000000000000000000000060601112126/400841400000000400841486710021121000000000800065500001  000000000000000000000000000000000000000000000000000000000000000000000000000000000000000800000000000000000000000000000   031121             00000000000000                                                                  000176
1021903727600017200000260206200016896                         00000000400843306655000000000000000000000000060601112126/400843300000000400843306655021121000000000800065500001  000000000000000000000000000000000000000000000000000000000000000000000000000000000000000800000000000000000000000000000   031121             00000000000000                                                                  000177
1021903727600017200000260206200016896                         00000000400869342080000000000000000000000000060601112126/400869300000000400869342080021121000000000800065500001  000000000000000000000000000000000000000000000000000000000000000000000000000000000000000800000000000000000000000000000   031121             00000000000000                                                                  000178
1021903727600017200000260206200016896                         00000000400874920211000000000000000000000000060601112126/400874900000000400874920211041121000000001750010402089  000000000000000000000000000000000000000000000000000000000000000000000000000000000000001750000000000000000000000000000   031121             00000000000000                                                                  000179
1021903727600017200000260206200016896                         00000000400876695584000000000000000000000000060601112126/400876600000000400876695584021121000000000800065500001  000000000000000000000000000000000000000000000000000000000000000000000000000000000000000800000000000000000000000000000   031121             00000000000000                                                                  000180
1021903727600017200000260206200016896                         00000000400879592476000000000000000000000000060601112126/400879500000000400879592476041121000000000800065500001  000000000000000000000000000000000000000000000000000000000000000000000000000000000000000800000000000000000000000000000   031121             00000000000000                                                                  000181
1021903727600017200000260206200016896                         00000000400894309497000000000000000000000000060601112126/400894300000000400894309497041121000000001500023700365  000000000000000000000000000000000000000000000000000000000000000000000000000000000000001500000000000000000000000000000   031121             00000000000000                                                                  000182
1021903727600017200000260206200016896                         00000000400900330509000000000000000000000000060601112126/400900300000000400900330509041121000000000800010400878  000000000000000000000000000000000000000000000000000000000000000000000000000000000000000800000000000000000000000000000   031121             00000000000000                                                                  000183
1021903727600017200000260206200016896                         00000000400912866668000000000000000000000000060601112126/400912800000000400912866668021121000000000800065500001  000000000000000000000000000000000000000000000000000000000000000000000000000000000000000800000000000000000000000000000   031121             00000000000000                                                                  000184
1021903727600017200000260206200016896                         00000000400933104563000000000000000000000000060601112126/400933100000000400933104563041121000000001500010403880  000000000000000000000000000000000000000000000000000000000000000000000000000000000000001500000000000000000000000000000   031121             00000000000000                                                                  000185
1021903727600017200000260206200016896                         00000000400941489644000000000000000000000000060601112126/400941400000000400941489644011121000000005000010400795  000000000000000000000000000000000000000000000000000000000000000000000000000000000000005000000000000000000000000000000   031121             00000000000000                                                                  000186
1021903727600017200000260206200016896                         00000000400951058072000000000000000000000000060601112126/400951000000000400951058072041121000000000800065500001  000000000000000000000000000000000000000000000000000000000000000000000000000000000000000800000000000000000000000000000   031121             00000000000000                                                                  000187
1021903727600017200000260206200016896                         00000000400960901920000000000000000000000000060601112126/400960900000000400960901920021121000000001500010403880  000000000000000000000000000000000000000000000000000000000000000000000000000000000000001500000000000000000000000000000   031121             00000000000000                                                                  000188
1021903727600017200000260206200016896                         00000000400961559312000000000000000000000000060601112126/400961500000000400961559312041121000000001120065500001  000000000000000000000000000000000000000000000000000000000000000000000000000000000000001120000000000000000000000000000   031121             00000000000000                                                                  000189
1021903727600017200000260206200016896                         00000000400975074435000000000000000000000000060601112126/400975000000000400975074435041121000000005000010403646  000000000000000000000000000000000000000000000000000000000000000000000000000000000000005000000000000000000000000000000   031121             00000000000000                                                                  000190
1021903727600017200000260206200016896                         00000000400996419483000000000000000000000000060601112126/400996400000000400996419483021121000000000800065500001  000000000000000000000000000000000000000000000000000000000000000000000000000000000000000800000000000000000000000000000   031121             00000000000000                                                                  000191
1021903727600017200000260206200016896                         00000000400998558162000000000000000000000000060601112126/400998500000000400998558162021121000000002500010403880  000000000000000000000000000000000000000000000000000000000000000000000000000000000000002500000000000000000000000000000   031121             00000000000000                                                                  000192
1021903727600017200000260206200016896                         00000000600585612974000000000000000000000000060601112126/600585600000000600585612974041121000000000900026000001  000000000000000000000000000000000000000000000000000000000000000000000000000000000000000900000000000000000000000000000   031121             00000000000000                                                                  000193
1021903727600017200000260206200016896                         00000000200070677137000000000000000000000000061001112126/200070600000000200070677137010921000000006900023700000  000000000000000000000000000000000000000000000000000000000000000000000000000000000000000000000000000000000000000000000                          1600000000                                                                  000194
1021903727600017200000260206200016896                         00000000200291007276000000000000000000000000061001112126/200291000000000200291007276300821000000000193323700000  000000000000000000000000000000000000000000000000000000000000000000000000000000000000000000000000000000000000000000000                          1600000000                                                                  000195
1021903727600017200000260206200016896                         00000000200300033145000000000000000000000000061001112126/200300000000000200300033145010921000000000049923700000  000000000000000000000000000000000000000000000000000000000000000000000000000000000000000000000000000000000000000000000                          1600000000                                                                  000196
1021903727600017200000260206200016896                         00000000200335528708000000000000000000000000061001112126/200335500000000200335528708300821000000000177523700000  000000000000000000000000000000000000000000000000000000000000000000000000000000000000000000000000000000000000000000000                          1600000000                                                                  000197
1021903727600017200000260206200016896                         00000000200383111878000000000000000000000000061001112126/200383100000000200383111878010921000000001092323700000  000000000000000000000000000000000000000000000000000000000000000000000000000000000000000000000000000000000000000000000                          1600000000                                                                  000198
1021903727600017200000260206200016896                         00000000200461443815000000000000000000000000061001112126/200461400000000200461443815300821000000000803923700000  000000000000000000000000000000000000000000000000000000000000000000000000000000000000000000000000000000000000000000000                          1600000000                                                                  000199
1021903727600017200000260206200016896                         00000000200488005097000000000000000000000000061001112126/200488000000000200488005097300821000000003000023700000  000000000000000000000000000000000000000000000000000000000000000000000000000000000000000000000000000000000000000000000                          1600000000                                                                  000200
1021903727600017200000260206200016896                         00000000200514659211000000000000000000000000061001112126/200514600000000200514659211010921000000000119923700000  000000000000000000000000000000000000000000000000000000000000000000000000000000000000000000000000000000000000000000000                          1600000000                                                                  000201
1021903727600017200000260206200016896                         00000000200569142218000000000000000000000000061001112126/200569100000000200569142218010921000000000049923700000  000000000000000000000000000000000000000000000000000000000000000000000000000000000000000000000000000000000000000000000                          1600000000                                                                  000202
1021903727600017200000260206200016896                         00000000200946819813000000000000000000000000061001112126/200946800000000200946819813300821000000000630523700000  000000000000000000000000000000000000000000000000000000000000000000000000000000000000000000000000000000000000000000000                          1600000000                                                                  000203
1021903727600017200000260206200016896                         00000000400063582545000000000000000000000000061001112126/400063500000000400063582545310821000000000800023700000  000000000000000000000000000000000000000000000000000000000000000000000000000000000000000000000000000000000000000000000                          1600000000                                                                  000204
1021903727600017200000260206200016896                         0000000040010302785P000000000000000000000000061001112126/40010300000000040010302785P300821000000002000023700000  000000000000000000000000000000000000000000000000000000000000000000000000000000000000000000000000000000000000000000000                          1600000000                                                                  000205
1021903727600017200000260206200016896                         00000000400131586546000000000000000000000000061001112126/400131500000000400131586546010921000000001000023700000  000000000000000000000000000000000000000000000000000000000000000000000000000000000000000000000000000000000000000000000                          1600000000                                                                  000206
1021903727600017200000260206200016896                         00000000400160101322000000000000000000000000061001112126/400160100000000400160101322310821000000000800023700000  000000000000000000000000000000000000000000000000000000000000000000000000000000000000000000000000000000000000000000000                          1600000000                                                                  000207
1021903727600017200000260206200016896                         00000000400160854827000000000000000000000000061001112126/400160800000000400160854827300821000000002000023700000  000000000000000000000000000000000000000000000000000000000000000000000000000000000000000000000000000000000000000000000                          1600000000                                                                  000208
1021903727600017200000260206200016896                         00000000400162006904000000000000000000000000061001112126/400162000000000400162006904310821000000003000023700000  000000000000000000000000000000000000000000000000000000000000000000000000000000000000000000000000000000000000000000000                          1600000000                                                                  000209
1021903727600017200000260206200016896                         0000000040017249026P000000000000000000000000061001112126/40017240000000040017249026P310821000000000800023700000  000000000000000000000000000000000000000000000000000000000000000000000000000000000000000000000000000000000000000000000                          1600000000                                                                  000210
1021903727600017200000260206200016896                         00000000400184165097000000000000000000000000061001112126/400184100000000400184165097300821000000000800023700000  000000000000000000000000000000000000000000000000000000000000000000000000000000000000000000000000000000000000000000000                          1600000000                                                                  000211
1021903727600017200000260206200016896                         00000000400223987970000000000000000000000000061001112126/400223900000000400223987970300821000000005000023700000  000000000000000000000000000000000000000000000000000000000000000000000000000000000000000000000000000000000000000000000                          1600000000                                                                  000212
1021903727600017200000260206200016896                         00000000400243130723000000000000000000000000061001112126/400243100000000400243130723310821000000002710023700000  000000000000000000000000000000000000000000000000000000000000000000000000000000000000000000000000000000000000000000000                          1600000000                                                                  000213
1021903727600017200000260206200016896                         00000000400246682425000000000000000000000000061001112126/400246600000000400246682425310821000000012000023700000  000000000000000000000000000000000000000000000000000000000000000000000000000000000000000000000000000000000000000000000                          1600000000                                                                  000214
1021903727600017200000260206200016896                         00000000400258822273000000000000000000000000061001112126/400258800000000400258822273010921000000001000023700000  000000000000000000000000000000000000000000000000000000000000000000000000000000000000000000000000000000000000000000000                          1600000000                                                                  000215
1021903727600017200000260206200016896                         00000000400268723028000000000000000000000000061001112126/400268700000000400268723028300821000000003000023700000  000000000000000000000000000000000000000000000000000000000000000000000000000000000000000000000000000000000000000000000                          1600000000                                                                  000216
1021903727600017200000260206200016896                         00000000400288275196000000000000000000000000061001112126/400288200000000400288275196300821000000000800023700000  000000000000000000000000000000000000000000000000000000000000000000000000000000000000000000000000000000000000000000000                          1600000000                                                                  000217
1021903727600017200000260206200016896                         00000000400304769579000000000000000000000000061001112126/400304700000000400304769579300821000000002660023700000  000000000000000000000000000000000000000000000000000000000000000000000000000000000000000000000000000000000000000000000                          1600000000                                                                  000218
1021903727600017200000260206200016896                         00000000400319208670000000000000000000000000061001112126/400319200000000400319208670310821000000000800023700000  000000000000000000000000000000000000000000000000000000000000000000000000000000000000000000000000000000000000000000000                          1600000000                                                                  000219
1021903727600017200000260206200016896                         00000000400364277969000000000000000000000000061001112126/400364200000000400364277969310821000000002170023700000  000000000000000000000000000000000000000000000000000000000000000000000000000000000000000000000000000000000000000000000                          1600000000                                                                  000220
1021903727600017200000260206200016896                         00000000400378845307000000000000000000000000061001112126/400378800000000400378845307310821000000000800023700000  000000000000000000000000000000000000000000000000000000000000000000000000000000000000000000000000000000000000000000000                          1600000000                                                                  000221
1021903727600017200000260206200016896                         00000000400403170883000000000000000000000000061001112126/400403100000000400403170883300821000000000800023700000  000000000000000000000000000000000000000000000000000000000000000000000000000000000000000000000000000000000000000000000                          1600000000                                                                  000222
1021903727600017200000260206200016896                         00000000400416586663000000000000000000000000061001112126/400416500000000400416586663300821000000001500023700000  000000000000000000000000000000000000000000000000000000000000000000000000000000000000000000000000000000000000000000000                          1600000000                                                                  000223
1021903727600017200000260206200016896                         00000000400431472216000000000000000000000000061001112126/400431400000000400431472216310821000000003500023700000  000000000000000000000000000000000000000000000000000000000000000000000000000000000000000000000000000000000000000000000                          1600000000                                                                  000224
1021903727600017200000260206200016896                         00000000400439710701000000000000000000000000061001112126/400439700000000400439710701310821000000000800023700000  000000000000000000000000000000000000000000000000000000000000000000000000000000000000000000000000000000000000000000000                          1600000000                                                                  000225
1021903727600017200000260206200016896                         00000000400444096582000000000000000000000000061001112126/400444000000000400444096582310821000000003360023700000  000000000000000000000000000000000000000000000000000000000000000000000000000000000000000000000000000000000000000000000                          1600000000                                                                  000226
1021903727600017200000260206200016896                         00000000400465346449000000000000000000000000061001112126/400465300000000400465346449310821000000000800023700000  000000000000000000000000000000000000000000000000000000000000000000000000000000000000000000000000000000000000000000000                          1600000000                                                                  000227
1021903727600017200000260206200016896                         00000000400466744081000000000000000000000000061001112126/400466700000000400466744081010921000000000800023700000  000000000000000000000000000000000000000000000000000000000000000000000000000000000000000000000000000000000000000000000                          1600000000                                                                  000228
1021903727600017200000260206200016896                         00000000400477530202000000000000000000000000061001112126/400477500000000400477530202310821000000000800023700000  000000000000000000000000000000000000000000000000000000000000000000000000000000000000000000000000000000000000000000000                          1600000000                                                                  000229
1021903727600017200000260206200016896                         00000000400518370258000000000000000000000000061001112126/400518300000000400518370258300821000000001000023700000  000000000000000000000000000000000000000000000000000000000000000000000000000000000000000000000000000000000000000000000                          1600000000                                                                  000230
1021903727600017200000260206200016896                         00000000400527072324000000000000000000000000061001112126/400527000000000400527072324300821000000005000023700000  000000000000000000000000000000000000000000000000000000000000000000000000000000000000000000000000000000000000000000000                          1600000000                                                                  000231
1021903727600017200000260206200016896                         00000000400530984962000000000000000000000000061001112126/400530900000000400530984962300821000000000800023700000  000000000000000000000000000000000000000000000000000000000000000000000000000000000000000000000000000000000000000000000                          1600000000                                                                  000232
1021903727600017200000260206200016896                         00000000400550253476000000000000000000000000061001112126/400550200000000400550253476310821000000003000023700000  000000000000000000000000000000000000000000000000000000000000000000000000000000000000000000000000000000000000000000000                          1600000000                                                                  000233
1021903727600017200000260206200016896                         0000000040056871456P000000000000000000000000061001112126/40056870000000040056871456P310821000000000800023700000  000000000000000000000000000000000000000000000000000000000000000000000000000000000000000000000000000000000000000000000                          1600000000                                                                  000234
1021903727600017200000260206200016896                         00000000400573903389000000000000000000000000061001112126/400573900000000400573903389010921000000000800023700000  000000000000000000000000000000000000000000000000000000000000000000000000000000000000000000000000000000000000000000000                          1600000000                                                                  000235
1021903727600017200000260206200016896                         00000000400591024589000000000000000000000000061001112126/400591000000000400591024589300821000000000800023700000  000000000000000000000000000000000000000000000000000000000000000000000000000000000000000000000000000000000000000000000                          1600000000                                                                  000236
1021903727600017200000260206200016896                         00000000400597319955000000000000000000000000061001112126/400597300000000400597319955310821000000002000023700000  000000000000000000000000000000000000000000000000000000000000000000000000000000000000000000000000000000000000000000000                          1600000000                                                                  000237
1021903727600017200000260206200016896                         00000000400608150842000000000000000000000000061001112126/400608100000000400608150842310821000000000800023700000  000000000000000000000000000000000000000000000000000000000000000000000000000000000000000000000000000000000000000000000                          1600000000                                                                  000238
1021903727600017200000260206200016896                         00000000400614202099000000000000000000000000061001112126/400614200000000400614202099310821000000000800023700000  000000000000000000000000000000000000000000000000000000000000000000000000000000000000000000000000000000000000000000000                          1600000000                                                                  000239
1021903727600017200000260206200016896                         00000000400617268600000000000000000000000000061001112126/400617200000000400617268600300821000000000800023700000  000000000000000000000000000000000000000000000000000000000000000000000000000000000000000000000000000000000000000000000                          1600000000                                                                  000240
1021903727600017200000260206200016896                         00000000400622514032000000000000000000000000061001112126/400622500000000400622514032310821000000000800023700000  000000000000000000000000000000000000000000000000000000000000000000000000000000000000000000000000000000000000000000000                          1600000000                                                                  000241
1021903727600017200000260206200016896                         00000000400623966360000000000000000000000000061001112126/400623900000000400623966360310821000000000800023700000  000000000000000000000000000000000000000000000000000000000000000000000000000000000000000000000000000000000000000000000                          1600000000                                                                  000242
1021903727600017200000260206200016896                         00000000400632736025000000000000000000000000061001112126/400632700000000400632736025300821000000000800023700000  000000000000000000000000000000000000000000000000000000000000000000000000000000000000000000000000000000000000000000000                          1600000000                                                                  000243
1021903727600017200000260206200016896                         00000000400645218139000000000000000000000000061001112126/400645200000000400645218139310821000000000800023700000  000000000000000000000000000000000000000000000000000000000000000000000000000000000000000000000000000000000000000000000                          1600000000                                                                  000244
1021903727600017200000260206200016896                         00000000400650671038000000000000000000000000061001112126/400650600000000400650671038310821000000001000023700000  000000000000000000000000000000000000000000000000000000000000000000000000000000000000000000000000000000000000000000000                          1600000000                                                                  000245
1021903727600017200000260206200016896                         00000000400657114630000000000000000000000000061001112126/400657100000000400657114630010921000000000800023700000  000000000000000000000000000000000000000000000000000000000000000000000000000000000000000000000000000000000000000000000                          1600000000                                                                  000246
1021903727600017200000260206200016896                         0000000040065921490P000000000000000000000000061001112126/40065920000000040065921490P300821000000000800023700000  000000000000000000000000000000000000000000000000000000000000000000000000000000000000000000000000000000000000000000000                          1600000000                                                                  000247
1021903727600017200000260206200016896                         0000000040066601391P000000000000000000000000061001112126/40066600000000040066601391P300821000000004250023700000  000000000000000000000000000000000000000000000000000000000000000000000000000000000000000000000000000000000000000000000                          1600000000                                                                  000248
