02RETORNO01COBRANCA       00000000000005034448E-PREPAG ADMINISTRADORA DE CAR237BRADESCO       2308210160000000751                                                                                                                                                                                                                                                                          240821         000001
1021903727600017200000260206200016896                         00000000100031127354000000000000000000000000060223082126/100031100000000100031127354240821000000000980023704151  000000000008200000000000000000000000000000000000000000000000000000000000000000000000000000000000000000000000000000000                          0000000000                                                                  000002
1021903727600017200000260206200016896                         00000000100031133303000000000000000000000000060223082126/100031100000000100031133303240821000000060372023704602  000000000008200000000000000000000000000000000000000000000000000000000000000000000000000000000000000000000000000000000                          0000000000                                                                  000003
1021903727600017200000260206200016896                         00000000100031161188000000000000000000000000060223082126/100031100000000100031161188240821000000001562123704151  000000000008200000000000000000000000000000000000000000000000000000000000000000000000000000000000000000000000000000000                          7600000000                                                                  000004
1021903727600017200000260206200016896                         00000000100031184285000000000000000000000000060223082126/100031100000000100031184285240821000000003150923704400  000000000008200000000000000000000000000000000000000000000000000000000000000000000000000000000000000000000000000000000                          0000000000                                                                  000005
1021903727600017200000260206200016896                         00000000200107218758000000000000000000000000060223082126/200107200000000200107218758250821000000000288323704151  000000000008200000000000000000000000000000000000000000000000000000000000000000000000000000000000000000000000000000000                          0000000000                                                                  000006
1021903727600017200000260206200016896                         00000000200112050989000000000000000000000000060223082126/200112000000000200112050989260821000000000317123700140  000000000008200000000000000000000000000000000000000000000000000000000000000000000000000000000000000000000000000000000                          7600000000                                                                  000007
1021903727600017200000260206200016896                         00000000200156229064000000000000000000000000060223082126/200156200000000200156229064240821000000000049923704602  000000000008200000000000000000000000000000000000000000000000000000000000000000000000000000000000000000000000000000000                          7600000000                                                                  000008
1021903727600017200000260206200016896                         00000000200210496928000000000000000000000000060223082126/200210400000000200210496928250821000000000049923704152  000000000008200000000000000000000000000000000000000000000000000000000000000000000000000000000000000000000000000000000                          0000000000                                                                  000009
1021903727600017200000260206200016896                         00000000200223749248000000000000000000000000060223082126/200223700000000200223749248240821000000000967623700321  000000000008200000000000000000000000000000000000000000000000000000000000000000000000000000000000000000000000000000000                          0000000000                                                                  000010
1021903727600017200000260206200016896                         00000000200240471350000000000000000000000000060223082126/200240400000000200240471350260821000000000079923704151  000000000008200000000000000000000000000000000000000000000000000000000000000000000000000000000000000000000000000000000                          7600000000                                                                  000011
1021903727600017200000260206200016896                         00000000200277325834000000000000000000000000060223082126/200277300000000200277325834240821000000001000023704422  000000000008200000000000000000000000000000000000000000000000000000000000000000000000000000000000000000000000000000000                          0000000000                                                                  000012
1021903727600017200000260206200016896                         00000000200285257058000000000000000000000000060223082126/200285200000000200285257058240821000000000510023704436  000000000008200000000000000000000000000000000000000000000000000000000000000000000000000000000000000000000000000000000                          0000000000                                                                  000013
1021903727600017200000260206200016896                         00000000200308902126000000000000000000000000060223082126/200308900000000200308902126240821000000000500023700321  000000000008200000000000000000000000000000000000000000000000000000000000000000000000000000000000000000000000000000000                          0000000000                                                                  000014
1021903727600017200000260206200016896                         00000000200347509288000000000000000000000000060223082126/200347500000000200347509288240821000000000510023702062  000000000008200000000000000000000000000000000000000000000000000000000000000000000000000000000000000000000000000000000                          0000000000                                                                  000015
1021903727600017200000260206200016896                         00000000200378525249000000000000000000000000060223082126/200378500000000200378525249260821000000000049923700523  000000000008200000000000000000000000000000000000000000000000000000000000000000000000000000000000000000000000000000000                          0000000000                                                                  000016
1021903727600017200000260206200016896                         00000000200414850585000000000000000000000000060223082126/200414800000000200414850585240821000000000288323704424  000000000008200000000000000000000000000000000000000000000000000000000000000000000000000000000000000000000000000000000                          0000000000                                                                  000017
1021903727600017200000260206200016896                         00000000200452947398000000000000000000000000060223082126/200452900000000200452947398240821000000000197423704602  000000000008200000000000000000000000000000000000000000000000000000000000000000000000000000000000000000000000000000000                          0000000000                                                                  000018
1021903727600017200000260206200016896                         00000000200536809004000000000000000000000000060223082126/200536800000000200536809004250821000000000645423704143  000000000008200000000000000000000000000000000000000000000000000000000000000000000000000000000000000000000000000000000                          7600000000                                                                  000019
1021903727600017200000260206200016896                         00000000200593078334000000000000000000000000060223082126/200593000000000200593078334250821000000002720023704151  000000000008200000000000000000000000000000000000000000000000000000000000000000000000000000000000000000000000000000000                          7600000000                                                                  000020
1021903727600017200000260206200016896                         00000000200607933712000000000000000000000000060223082126/200607900000000200607933712260821000000001917623704151  000000000008200000000000000000000000000000000000000000000000000000000000000000000000000000000000000000000000000000000                          0000000000                                                                  000021
1021903727600017200000260206200016896                         00000000200690168631000000000000000000000000060223082126/200690100000000200690168631240821000000000069923700408  000000000008200000000000000000000000000000000000000000000000000000000000000000000000000000000000000000000000000000000                          0000000000                                                                  000022
1021903727600017200000260206200016896                         00000000200799419464000000000000000000000000060223082126/200799400000000200799419464250821000000000181323704400  000000000008200000000000000000000000000000000000000000000000000000000000000000000000000000000000000000000000000000000                          0000000000                                                                  000023
1021903727600017200000260206200016896                         00000000200862598765000000000000000000000000060223082126/200862500000000200862598765250821000000001000023704400  000000000008200000000000000000000000000000000000000000000000000000000000000000000000000000000000000000000000000000000                          0000000000                                                                  000024
1021903727600017200000260206200016896                         00000000200901761792000000000000000000000000060223082126/200901700000000200901761792260821000000000079923704151  000000000008200000000000000000000000000000000000000000000000000000000000000000000000000000000000000000000000000000000                          7600000000                                                                  000025
1021903727600017200000260206200016896                         00000000200913481078000000000000000000000000060223082126/200913400000000200913481078260821000000000319923704147  000000000008200000000000000000000000000000000000000000000000000000000000000000000000000000000000000000000000000000000                          0000000000                                                                  000026
1021903727600017200000260206200016896                         00000000200914536534000000000000000000000000060223082126/200914500000000200914536534240821000000000269923704144  000000000008200000000000000000000000000000000000000000000000000000000000000000000000000000000000000000000000000000000                          7600000000                                                                  000027
1021903727600017200000260206200016896                         00000000200934901530000000000000000000000000060223082126/200934900000000200934901530260821000000000079923704151  000000000008200000000000000000000000000000000000000000000000000000000000000000000000000000000000000000000000000000000                          7600000000                                                                  000028
1021903727600017200000260206200016896                         00000000200962294534000000000000000000000000060223082126/200962200000000200962294534240821000000000800023704400  000000000008200000000000000000000000000000000000000000000000000000000000000000000000000000000000000000000000000000000                          0000000000                                                                  000029
1021903727600017200000260206200016896                         00000000200985990589000000000000000000000000060223082126/200985900000000200985990589260821000000001080123704602  000000000008200000000000000000000000000000000000000000000000000000000000000000000000000000000000000000000000000000000                          7600000000                                                                  000030
1021903727600017200000260206200016896                         00000000400015086293000000000000000000000000060223082126/400015000000000400015086293260821000000002500023700320  000000000008200000000000000000000000000000000000000000000000000000000000000000000000000000000000000000000000000000000                          0000000000                                                                  000031
1021903727600017200000260206200016896                         00000000400025145840000000000000000000000000060223082126/400025100000000400025145840250821000000000800023704159  000000000008200000000000000000000000000000000000000000000000000000000000000000000000000000000000000000000000000000000                          0000000000                                                                  000032
1021903727600017200000260206200016896                         00000000400026873297000000000000000000000000060223082126/400026800000000400026873297240821000000001500023700320  000000000008200000000000000000000000000000000000000000000000000000000000000000000000000000000000000000000000000000000                          0000000000                                                                  000033
1021903727600017200000260206200016896                         00000000400029801602000000000000000000000000060223082126/400029800000000400029801602260821000000000800023704151  000000000008200000000000000000000000000000000000000000000000000000000000000000000000000000000000000000000000000000000                          0000000000                                                                  000034
1021903727600017200000260206200016896                         00000000400065986570000000000000000000000000060223082126/400065900000000400065986570240821000000005000023704152  000000000008200000000000000000000000000000000000000000000000000000000000000000000000000000000000000000000000000000000                          0000000000                                                                  000035
1021903727600017200000260206200016896                         00000000400069998980000000000000000000000000060223082126/400069900000000400069998980250821000000000800023702062  000000000008200000000000000000000000000000000000000000000000000000000000000000000000000000000000000000000000000000000                          0000000000                                                                  000036
1021903727600017200000260206200016896                         00000000400087090287000000000000000000000000060223082126/400087000000000400087090287260821000000004560023700320  000000000008200000000000000000000000000000000000000000000000000000000000000000000000000000000000000000000000000000000                          0000000000                                                                  000037
1021903727600017200000260206200016896                         00000000400095387078000000000000000000000000060223082126/400095300000000400095387078260821000000005020023704154  000000000008200000000000000000000000000000000000000000000000000000000000000000000000000000000000000000000000000000000                          0000000000                                                                  000038
1021903727600017200000260206200016896                         00000000400098199086000000000000000000000000060223082126/400098100000000400098199086260821000000005000023704422  000000000008200000000000000000000000000000000000000000000000000000000000000000000000000000000000000000000000000000000                          0000000000                                                                  000039
1021903727600017200000260206200016896                         0000000040010348861P000000000000000000000000060223082126/40010340000000040010348861P240821000000000900023704422  000000000008200000000000000000000000000000000000000000000000000000000000000000000000000000000000000000000000000000000                          0000000000                                                                  000040
1021903727600017200000260206200016896                         00000000400108898972000000000000000000000000060223082126/400108800000000400108898972260821000000002500023702062  000000000008200000000000000000000000000000000000000000000000000000000000000000000000000000000000000000000000000000000                          0000000000                                                                  000041
1021903727600017200000260206200016896                         00000000400109458313000000000000000000000000060223082126/400109400000000400109458313260821000000000800023704452  000000000008200000000000000000000000000000000000000000000000000000000000000000000000000000000000000000000000000000000                          0000000000                                                                  000042
1021903727600017200000260206200016896                         00000000400111936672000000000000000000000000060223082126/400111900000000400111936672260821000000008000023704426  000000000008200000000000000000000000000000000000000000000000000000000000000000000000000000000000000000000000000000000                          0000000000                                                                  000043
1021903727600017200000260206200016896                         00000000400114936517000000000000000000000000060223082126/400114900000000400114936517260821000000003750023704400  000000000008200000000000000000000000000000000000000000000000000000000000000000000000000000000000000000000000000000000                          7600000000                                                                  000044
1021903727600017200000260206200016896                         00000000400119239768000000000000000000000000060223082126/400119200000000400119239768260821000000010000023704159  000000000008200000000000000000000000000000000000000000000000000000000000000000000000000000000000000000000000000000000                          0000000000                                                                  000045
1021903727600017200000260206200016896                         00000000400126244254000000000000000000000000060223082126/400126200000000400126244254240821000000000800023700321  000000000008200000000000000000000000000000000000000000000000000000000000000000000000000000000000000000000000000000000                          0000000000                                                                  000046
1021903727600017200000260206200016896                         00000000400132251181000000000000000000000000060223082126/400132200000000400132251181260821000000012000023704152  000000000008200000000000000000000000000000000000000000000000000000000000000000000000000000000000000000000000000000000                          0000000000                                                                  000047
1021903727600017200000260206200016896                         00000000400147309992000000000000000000000000060223082126/400147300000000400147309992250821000000000800023704159  000000000008200000000000000000000000000000000000000000000000000000000000000000000000000000000000000000000000000000000                          0000000000                                                                  000048
1021903727600017200000260206200016896                         00000000400148696558000000000000000000000000060223082126/400148600000000400148696558250821000000000800023704159  000000000008200000000000000000000000000000000000000000000000000000000000000000000000000000000000000000000000000000000                          0000000000                                                                  000049
1021903727600017200000260206200016896                         00000000400152009883000000000000000000000000060223082126/400152000000000400152009883240821000000000800023704159  000000000008200000000000000000000000000000000000000000000000000000000000000000000000000000000000000000000000000000000                          0000000000                                                                  000050
1021903727600017200000260206200016896                         0000000040015234268P000000000000000000000000060223082126/40015230000000040015234268P240821000000002000023704436  000000000008200000000000000000000000000000000000000000000000000000000000000000000000000000000000000000000000000000000                          0000000000                                                                  000051
1021903727600017200000260206200016896                         00000000400155116494000000000000000000000000060223082126/400155100000000400155116494240821000000001000023704422  000000000008200000000000000000000000000000000000000000000000000000000000000000000000000000000000000000000000000000000                          0000000000                                                                  000052
1021903727600017200000260206200016896                         00000000400157956740000000000000000000000000060223082126/400157900000000400157956740260821000000005020023704154  000000000008200000000000000000000000000000000000000000000000000000000000000000000000000000000000000000000000000000000                          0000000000                                                                  000053
1021903727600017200000260206200016896                         00000000400161489677000000000000000000000000060223082126/400161400000000400161489677260821000000000800023704159  000000000008200000000000000000000000000000000000000000000000000000000000000000000000000000000000000000000000000000000                          0000000000                                                                  000054
1021903727600017200000260206200016896                         00000000400162535303000000000000000000000000060223082126/400162500000000400162535303260821000000000800023704424  000000000008200000000000000000000000000000000000000000000000000000000000000000000000000000000000000000000000000000000                          0000000000                                                                  000055
1021903727600017200000260206200016896                         00000000400167709105000000000000000000000000060223082126/400167700000000400167709105250821000000011980023704144  000000000008200000000000000000000000000000000000000000000000000000000000000000000000000000000000000000000000000000000                          0000000000                                                                  000056
1021903727600017200000260206200016896                         00000000400169848145000000000000000000000000060223082126/400169800000000400169848145260821000000009330023704143  000000000008200000000000000000000000000000000000000000000000000000000000000000000000000000000000000000000000000000000                          0000000000                                                                  000057
1021903727600017200000260206200016896                         00000000400170470733000000000000000000000000060223082126/400170400000000400170470733260821000000000800023704159  000000000008200000000000000000000000000000000000000000000000000000000000000000000000000000000000000000000000000000000                          0000000000                                                                  000058
1021903727600017200000260206200016896                         00000000400175757380000000000000000000000000060223082126/400175700000000400175757380250821000000000800023704159  000000000008200000000000000000000000000000000000000000000000000000000000000000000000000000000000000000000000000000000                          0000000000                                                                  000059
1021903727600017200000260206200016896                         00000000400176261427000000000000000000000000060223082126/400176200000000400176261427260821000000004500023704157  000000000008200000000000000000000000000000000000000000000000000000000000000000000000000000000000000000000000000000000                          0000000000                                                                  000060
1021903727600017200000260206200016896                         00000000400176402217000000000000000000000000060223082126/400176400000000400176402217240821000000002500023704151  000000000008200000000000000000000000000000000000000000000000000000000000000000000000000000000000000000000000000000000                          0000000000                                                                  000061
1021903727600017200000260206200016896                         00000000400182391235000000000000000000000000060223082126/400182300000000400182391235240821000000009000023704144  000000000008200000000000000000000000000000000000000000000000000000000000000000000000000000000000000000000000000000000                          0000000000                                                                  000062
1021903727600017200000260206200016896                         00000000400184429787000000000000000000000000060223082126/400184400000000400184429787260821000000002640023704452  000000000008200000000000000000000000000000000000000000000000000000000000000000000000000000000000000000000000000000000                          0000000000                                                                  000063
1021903727600017200000260206200016896                         00000000400188507731000000000000000000000000060223082126/400188500000000400188507731240821000000003000023703109  000000000008200000000000000000000000000000000000000000000000000000000000000000000000000000000000000000000000000000000                          0000000000                                                                  000064
1021903727600017200000260206200016896                         00000000400188737796000000000000000000000000060223082126/400188700000000400188737796250821000000000800023704159  000000000008200000000000000000000000000000000000000000000000000000000000000000000000000000000000000000000000000000000                          0000000000                                                                  000065
1021903727600017200000260206200016896                         00000000400191021661000000000000000000000000060223082126/400191000000000400191021661240821000000002000023703109  000000000008200000000000000000000000000000000000000000000000000000000000000000000000000000000000000000000000000000000                          0000000000                                                                  000066
1021903727600017200000260206200016896                         00000000400195952201000000000000000000000000060223082126/400195900000000400195952201250821000000000800023704147  000000000008200000000000000000000000000000000000000000000000000000000000000000000000000000000000000000000000000000000                          0000000000                                                                  000067
1021903727600017200000260206200016896                         00000000400201745213000000000000000000000000060223082126/400201700000000400201745213240821000000003000023702062  000000000008200000000000000000000000000000000000000000000000000000000000000000000000000000000000000000000000000000000                          0000000000                                                                  000068
1021903727600017200000260206200016896                         00000000400204160941000000000000000000000000060223082126/400204100000000400204160941250821000000000800023704422  000000000008200000000000000000000000000000000000000000000000000000000000000000000000000000000000000000000000000000000                          0000000000                                                                  000069
1021903727600017200000260206200016896                         00000000400209735497000000000000000000000000060223082126/400209700000000400209735497240821000000005670023704158  000000000008200000000000000000000000000000000000000000000000000000000000000000000000000000000000000000000000000000000                          0000000000                                                                  000070
1021903727600017200000260206200016896                         00000000400216912833000000000000000000000000060223082126/400216900000000400216912833240821000000000800023704157  000000000008200000000000000000000000000000000000000000000000000000000000000000000000000000000000000000000000000000000                          7600000000                                                                  000071
1021903727600017200000260206200016896                         00000000400220381915000000000000000000000000060223082126/400220300000000400220381915260821000000003000023704152  000000000008200000000000000000000000000000000000000000000000000000000000000000000000000000000000000000000000000000000                          0000000000                                                                  000072
1021903727600017200000260206200016896                         00000000400220848902000000000000000000000000060223082126/400220800000000400220848902260821000000001180023703109  000000000008200000000000000000000000000000000000000000000000000000000000000000000000000000000000000000000000000000000                          0000000000                                                                  000073
1021903727600017200000260206200016896                         00000000400226134502000000000000000000000000060223082126/400226100000000400226134502260821000000001100023702062  000000000008200000000000000000000000000000000000000000000000000000000000000000000000000000000000000000000000000000000                          0000000000                                                                  000074
1021903727600017200000260206200016896                         00000000400229004340000000000000000000000000060223082126/400229000000000400229004340260821000000002640023704452  000000000008200000000000000000000000000000000000000000000000000000000000000000000000000000000000000000000000000000000                          0000000000                                                                  000075
1021903727600017200000260206200016896                         00000000400231798036000000000000000000000000060223082126/400231700000000400231798036240821000000000800023700435  000000000008200000000000000000000000000000000000000000000000000000000000000000000000000000000000000000000000000000000                          0000000000                                                                  000076
1021903727600017200000260206200016896                         00000000400236141329000000000000000000000000060223082126/400236100000000400236141329260821000000000800023702062  000000000008200000000000000000000000000000000000000000000000000000000000000000000000000000000000000000000000000000000                          0000000000                                                                  000077
1021903727600017200000260206200016896                         00000000400239770874000000000000000000000000060223082126/400239700000000400239770874250821000000000800023704422  000000000008200000000000000000000000000000000000000000000000000000000000000000000000000000000000000000000000000000000                          0000000000                                                                  000078
1021903727600017200000260206200016896                         0000000040024115384P000000000000000000000000060223082126/40024110000000040024115384P240821000000010000023703109  000000000008200000000000000000000000000000000000000000000000000000000000000000000000000000000000000000000000000000000                          0000000000                                                                  000079
1021903727600017200000260206200016896                         00000000400243104358000000000000000000000000060223082126/400243100000000400243104358240821000000002000023704602  000000000008200000000000000000000000000000000000000000000000000000000000000000000000000000000000000000000000000000000                          0000000000                                                                  000080
1021903727600017200000260206200016896                         00000000400243904346000000000000000000000000060223082126/400243900000000400243904346240821000000002000023704422  000000000008200000000000000000000000000000000000000000000000000000000000000000000000000000000000000000000000000000000                          0000000000                                                                  000081
1021903727600017200000260206200016896                         00000000400245810446000000000000000000000000060223082126/400245800000000400245810446260821000000000800023704400  000000000008200000000000000000000000000000000000000000000000000000000000000000000000000000000000000000000000000000000                          0000000000                                                                  000082
1021903727600017200000260206200016896                         00000000400247086583000000000000000000000000060223082126/400247000000000400247086583240821000000000800023700435  000000000008200000000000000000000000000000000000000000000000000000000000000000000000000000000000000000000000000000000                          0000000000                                                                  000083
1021903727600017200000260206200016896                         00000000400251960549000000000000000000000000060223082126/400251900000000400251960549240821000000002000023704436  000000000008200000000000000000000000000000000000000000000000000000000000000000000000000000000000000000000000000000000                          0000000000                                                                  000084
1021903727600017200000260206200016896                         00000000400254799269000000000000000000000000060223082126/400254700000000400254799269240821000000000800023704452  000000000008200000000000000000000000000000000000000000000000000000000000000000000000000000000000000000000000000000000                          0000000000                                                                  000085
1021903727600017200000260206200016896                         0000000040025826694P000000000000000000000000060223082126/40025820000000040025826694P240821000000003000023704400  000000000008200000000000000000000000000000000000000000000000000000000000000000000000000000000000000000000000000000000                          0000000000                                                                  000086
1021903727600017200000260206200016896                         0000000040025989314P000000000000000000000000060223082126/40025980000000040025989314P240821000000002250023704452  000000000008200000000000000000000000000000000000000000000000000000000000000000000000000000000000000000000000000000000                          0000000000                                                                  000087
1021903727600017200000260206200016896                         00000000400260534234000000000000000000000000060223082126/400260500000000400260534234240821000000007000023700140  000000000008200000000000000000000000000000000000000000000000000000000000000000000000000000000000000000000000000000000                          0000000000                                                                  000088
1021903727600017200000260206200016896                         00000000400267542690000000000000000000000000060223082126/400267500000000400267542690250821000000001000023704426  000000000008200000000000000000000000000000000000000000000000000000000000000000000000000000000000000000000000000000000                          0000000000                                                                  000089
1021903727600017200000260206200016896                         00000000400268327394000000000000000000000000060223082126/400268300000000400268327394260821000000005000023700140  000000000008200000000000000000000000000000000000000000000000000000000000000000000000000000000000000000000000000000000                          0000000000                                                                  000090
1021903727600017200000260206200016896                         00000000400269581014000000000000000000000000060223082126/400269500000000400269581014260821000000001000023704424  000000000008200000000000000000000000000000000000000000000000000000000000000000000000000000000000000000000000000000000                          0000000000                                                                  000091
1021903727600017200000260206200016896                         00000000400278370840000000000000000000000000060223082126/400278300000000400278370840240821000000008000023703109  000000000008200000000000000000000000000000000000000000000000000000000000000000000000000000000000000000000000000000000                          0000000000                                                                  000092
1021903727600017200000260206200016896                         00000000400279252337000000000000000000000000060223082126/400279200000000400279252337240821000000001500023704424  000000000008200000000000000000000000000000000000000000000000000000000000000000000000000000000000000000000000000000000                          0000000000                                                                  000093
1021903727600017200000260206200016896                         00000000400279366340000000000000000000000000060223082126/400279300000000400279366340240821000000005000023704426  000000000008200000000000000000000000000000000000000000000000000000000000000000000000000000000000000000000000000000000                          0000000000                                                                  000094
1021903727600017200000260206200016896                         00000000400279400786000000000000000000000000060223082126/400279400000000400279400786240821000000000800023704159  000000000008200000000000000000000000000000000000000000000000000000000000000000000000000000000000000000000000000000000                          0000000000                                                                  000095
1021903727600017200000260206200016896                         00000000400281394866000000000000000000000000060223082126/400281300000000400281394866240821000000005000023704152  000000000008200000000000000000000000000000000000000000000000000000000000000000000000000000000000000000000000000000000                          0000000000                                                                  000096
1021903727600017200000260206200016896                         0000000040028178785P000000000000000000000000060223082126/40028170000000040028178785P240821000000001000023703109  000000000008200000000000000000000000000000000000000000000000000000000000000000000000000000000000000000000000000000000                          0000000000                                                                  000097
1021903727600017200000260206200016896                         00000000400286566673000000000000000000000000060223082126/400286500000000400286566673260821000000001000023702062  000000000008200000000000000000000000000000000000000000000000000000000000000000000000000000000000000000000000000000000                          0000000000                                                                  000098
1021903727600017200000260206200016896                         00000000400287177352000000000000000000000000060223082126/400287100000000400287177352240821000000010000023702062  000000000008200000000000000000000000000000000000000000000000000000000000000000000000000000000000000000000000000000000                          0000000000                                                                  000099
1021903727600017200000260206200016896                         00000000400287356249000000000000000000000000060223082126/400287300000000400287356249240821000000000800023704452  000000000008200000000000000000000000000000000000000000000000000000000000000000000000000000000000000000000000000000000                          0000000000                                                                  000100
1021903727600017200000260206200016896                         00000000400288468660000000000000000000000000060223082126/400288400000000400288468660250821000000001240023704400  000000000008200000000000000000000000000000000000000000000000000000000000000000000000000000000000000000000000000000000                          0000000000                                                                  000101
1021903727600017200000260206200016896                         00000000400290023226000000000000000000000000060223082126/400290000000000400290023226240821000000000800023700435  000000000008200000000000000000000000000000000000000000000000000000000000000000000000000000000000000000000000000000000                          0000000000                                                                  000102
1021903727600017200000260206200016896                         00000000400293873549000000000000000000000000060223082126/400293800000000400293873549260821000000000800023704159  000000000008200000000000000000000000000000000000000000000000000000000000000000000000000000000000000000000000000000000                          0000000000                                                                  000103
1021903727600017200000260206200016896                         00000000400299774313000000000000000000000000060223082126/400299700000000400299774313240821000000000800023704452  000000000008200000000000000000000000000000000000000000000000000000000000000000000000000000000000000000000000000000000                          7600000000                                                                  000104
1021903727600017200000260206200016896                         00000000400301627277000000000000000000000000060223082126/400301600000000400301627277240821000000000800023704159  000000000008200000000000000000000000000000000000000000000000000000000000000000000000000000000000000000000000000000000                          0000000000                                                                  000105
1021903727600017200000260206200016896                         00000000400301805884000000000000000000000000060223082126/400301800000000400301805884240821000000000800023704152  000000000008200000000000000000000000000000000000000000000000000000000000000000000000000000000000000000000000000000000                          0000000000                                                                  000106
1021903727600017200000260206200016896                         00000000400310619635000000000000000000000000060223082126/400310600000000400310619635260821000000000800023704143  000000000008200000000000000000000000000000000000000000000000000000000000000000000000000000000000000000000000000000000                          0000000000                                                                  000107
1021903727600017200000260206200016896                         00000000400311681601000000000000000000000000060223082126/400311600000000400311681601250821000000002000023704158  000000000008200000000000000000000000000000000000000000000000000000000000000000000000000000000000000000000000000000000                          0000000000                                                                  000108
1021903727600017200000260206200016896                         00000000400319840326000000000000000000000000060223082126/400319800000000400319840326240821000000003000023700405  000000000008200000000000000000000000000000000000000000000000000000000000000000000000000000000000000000000000000000000                          0000000000                                                                  000109
1021903727600017200000260206200016896                         00000000400321273080000000000000000000000000060223082126/400321200000000400321273080240821000000001000023704158  000000000008200000000000000000000000000000000000000000000000000000000000000000000000000000000000000000000000000000000                          0000000000                                                                  000110
1021903727600017200000260206200016896                         00000000400321626870000000000000000000000000060223082126/400321600000000400321626870260821000000004080023704452  000000000000000000000000000000000000000000000000000000000000000000000000000000000000000000000000000000000000000000000                          7600000000                                                                  000111
1021903727600017200000260206200016896                         00000000400321651174000000000000000000000000060223082126/400321600000000400321651174240821000000001000023700320  000000000008200000000000000000000000000000000000000000000000000000000000000000000000000000000000000000000000000000000                          0000000000                                                                  000112
1021903727600017200000260206200016896                         00000000400327674176000000000000000000000000060223082126/400327600000000400327674176240821000000001000023704144  000000000008200000000000000000000000000000000000000000000000000000000000000000000000000000000000000000000000000000000                          0000000000                                                                  000113
1021903727600017200000260206200016896                         00000000400329479176000000000000000000000000060223082126/400329400000000400329479176260821000000002500023704428  000000000008200000000000000000000000000000000000000000000000000000000000000000000000000000000000000000000000000000000                          0000000000                                                                  000114
1021903727600017200000260206200016896                         00000000400338184049000000000000000000000000060223082126/400338100000000400338184049240821000000000800023704159  000000000008200000000000000000000000000000000000000000000000000000000000000000000000000000000000000000000000000000000                          0000000000                                                                  000115
1021903727600017200000260206200016896                         00000000400338201458000000000000000000000000060223082126/400338200000000400338201458250821000000000800023704159  000000000008200000000000000000000000000000000000000000000000000000000000000000000000000000000000000000000000000000000                          0000000000                                                                  000116
1021903727600017200000260206200016896                         00000000400339021550000000000000000000000000060223082126/400339000000000400339021550240821000000005000023704152  000000000008200000000000000000000000000000000000000000000000000000000000000000000000000000000000000000000000000000000                          0000000000                                                                  000117
1021903727600017200000260206200016896                         00000000400339816375000000000000000000000000060223082126/400339800000000400339816375240821000000000800023704159  000000000008200000000000000000000000000000000000000000000000000000000000000000000000000000000000000000000000000000000                          0000000000                                                                  000118
1021903727600017200000260206200016896                         00000000400349186248000000000000000000000000060223082126/400349100000000400349186248240821000000003000023704422  000000000008200000000000000000000000000000000000000000000000000000000000000000000000000000000000000000000000000000000                          0000000000                                                                  000119
1021903727600017200000260206200016896                         00000000400350785759000000000000000000000000060223082126/400350700000000400350785759260821000000002000023704422  000000000008200000000000000000000000000000000000000000000000000000000000000000000000000000000000000000000000000000000                          0000000000                                                                  000120
1021903727600017200000260206200016896                         00000000400353552550000000000000000000000000060223082126/400353500000000400353552550260821000000000800023704452  000000000008200000000000000000000000000000000000000000000000000000000000000000000000000000000000000000000000000000000                          0000000000                                                                  000121
1021903727600017200000260206200016896                         00000000400357254848000000000000000000000000060223082126/400357200000000400357254848260821000000000800023704159  000000000008200000000000000000000000000000000000000000000000000000000000000000000000000000000000000000000000000000000                          0000000000                                                                  000122
1021903727600017200000260206200016896                         00000000400360977982000000000000000000000000060223082126/400360900000000400360977982260821000000002500023704428  000000000008200000000000000000000000000000000000000000000000000000000000000000000000000000000000000000000000000000000                          0000000000                                                                  000123
1021903727600017200000260206200016896                         00000000400363365589000000000000000000000000060223082126/400363300000000400363365589240821000000003000023704159  000000000008200000000000000000000000000000000000000000000000000000000000000000000000000000000000000000000000000000000                          0000000000                                                                  000124
1021903727600017200000260206200016896                         00000000400363467756000000000000000000000000060223082126/400363400000000400363467756240821000000000800023704422  000000000008200000000000000000000000000000000000000000000000000000000000000000000000000000000000000000000000000000000                          0000000000                                                                  000125
1021903727600017200000260206200016896                         00000000400367466584000000000000000000000000060223082126/400367400000000400367466584260821000000006000023700153  000000000008200000000000000000000000000000000000000000000000000000000000000000000000000000000000000000000000000000000                          0000000000                                                                  000126
1021903727600017200000260206200016896                         00000000400383341570000000000000000000000000060223082126/400383300000000400383341570250821000000000800023704159  000000000008200000000000000000000000000000000000000000000000000000000000000000000000000000000000000000000000000000000                          0000000000                                                                  000127
1021903727600017200000260206200016896                         00000000400387075719000000000000000000000000060223082126/400387000000000400387075719240821000000000800023704143  000000000008200000000000000000000000000000000000000000000000000000000000000000000000000000000000000000000000000000000                          0000000000                                                                  000128
1021903727600017200000260206200016896                         00000000400389780908000000000000000000000000060223082126/400389700000000400389780908260821000000001050023704151  000000000008200000000000000000000000000000000000000000000000000000000000000000000000000000000000000000000000000000000                          0000000000                                                                  000129
1021903727600017200000260206200016896                         00000000400393424385000000000000000000000000060223082126/400393400000000400393424385240821000000001000023704152  000000000008200000000000000000000000000000000000000000000000000000000000000000000000000000000000000000000000000000000                          0000000000                                                                  000130
1021903727600017200000260206200016896                         00000000400394694300000000000000000000000000060223082126/400394600000000400394694300250821000000002000023704143  000000000008200000000000000000000000000000000000000000000000000000000000000000000000000000000000000000000000000000000                          7600000000                                                                  000131
1021903727600017200000260206200016896                         00000000400398869830000000000000000000000000060223082126/400398800000000400398869830260821000000012000023704158  000000000008200000000000000000000000000000000000000000000000000000000000000000000000000000000000000000000000000000000                          0000000000                                                                  000132
1021903727600017200000260206200016896                         00000000400402386300000000000000000000000000060223082126/400402300000000400402386300240821000000000800023704159  000000000008200000000000000000000000000000000000000000000000000000000000000000000000000000000000000000000000000000000                          0000000000                                                                  000133
1021903727600017200000260206200016896                         00000000400402526498000000000000000000000000060223082126/400402500000000400402526498240821000000001000023700389  000000000008200000000000000000000000000000000000000000000000000000000000000000000000000000000000000000000000000000000                          0000000000                                                                  000134
1021903727600017200000260206200016896                         00000000400404587435000000000000000000000000060223082126/400404500000000400404587435260821000000001500023704151  000000000008200000000000000000000000000000000000000000000000000000000000000000000000000000000000000000000000000000000                          0000000000                                                                  000135
1021903727600017200000260206200016896                         00000000400405962558000000000000000000000000060223082126/400405900000000400405962558260821000000000800023704159  000000000008200000000000000000000000000000000000000000000000000000000000000000000000000000000000000000000000000000000                          0000000000                                                                  000136
1021903727600017200000260206200016896                         00000000400406148617000000000000000000000000060223082126/400406100000000400406148617240821000000001000023704452  000000000008200000000000000000000000000000000000000000000000000000000000000000000000000000000000000000000000000000000                          0000000000                                                                  000137
1021903727600017200000260206200016896                         00000000400409178215000000000000000000000000060223082126/400409100000000400409178215260821000000000800023700405  000000000008200000000000000000000000000000000000000000000000000000000000000000000000000000000000000000000000000000000                          0000000000                                                                  000138
1021903727600017200000260206200016896                         00000000400425023302000000000000000000000000060223082126/400425000000000400425023302240821000000001900023704452  000000000008200000000000000000000000000000000000000000000000000000000000000000000000000000000000000000000000000000000                          7600000000                                                                  000139
1021903727600017200000260206200016896                         0000000040043936238P000000000000000000000000060223082126/40043930000000040043936238P260821000000000800023704159  000000000008200000000000000000000000000000000000000000000000000000000000000000000000000000000000000000000000000000000                          0000000000                                                                  000140
1021903727600017200000260206200016896                         00000000400444448306000000000000000000000000060223082126/400444400000000400444448306240821000000003000023704602  000000000008200000000000000000000000000000000000000000000000000000000000000000000000000000000000000000000000000000000                          0000000000                                                                  000141
1021903727600017200000260206200016896                         00000000400449920283000000000000000000000000060223082126/400449900000000400449920283260821000000002500023704424  000000000008200000000000000000000000000000000000000000000000000000000000000000000000000000000000000000000000000000000                          0000000000                                                                  000142
1021903727600017200000260206200016896                         00000000400458510071000000000000000000000000060223082126/400458500000000400458510071240821000000002000023704159  000000000008200000000000000000000000000000000000000000000000000000000000000000000000000000000000000000000000000000000                          0000000000                                                                  000143
1021903727600017200000260206200016896                         00000000400463109490000000000000000000000000060223082126/400463100000000400463109490240821000000010000023703109  000000000008200000000000000000000000000000000000000000000000000000000000000000000000000000000000000000000000000000000                          0000000000                                                                  000144
1021903727600017200000260206200016896                         00000000400468093479000000000000000000000000060223082126/400468000000000400468093479250821000000011990023704144  000000000008200000000000000000000000000000000000000000000000000000000000000000000000000000000000000000000000000000000                          0000000000                                                                  000145
1021903727600017200000260206200016896                         00000000400468213261000000000000000000000000060223082126/400468200000000400468213261260821000000000800023704452  000000000008200000000000000000000000000000000000000000000000000000000000000000000000000000000000000000000000000000000                          0000000000                                                                  000146
1021903727600017200000260206200016896                         00000000400471783060000000000000000000000000060223082126/400471700000000400471783060260821000000025250023704400  000000000008200000000000000000000000000000000000000000000000000000000000000000000000000000000000000000000000000000000                          0000000000                                                                  000147
1021903727600017200000260206200016896                         00000000400472242314000000000000000000000000060223082126/400472200000000400472242314260821000000001500023704452  000000000008200000000000000000000000000000000000000000000000000000000000000000000000000000000000000000000000000000000                          0000000000                                                                  000148
1021903727600017200000260206200016896                         0000000040047807751P000000000000000000000000060223082126/40047800000000040047807751P260821000000010000023704400  000000000008200000000000000000000000000000000000000000000000000000000000000000000000000000000000000000000000000000000                          0000000000                                                                  000149
1021903727600017200000260206200016896                         00000000400481506758000000000000000000000000060223082126/400481500000000400481506758240821000000001500023704159  000000000008200000000000000000000000000000000000000000000000000000000000000000000000000000000000000000000000000000000                          0000000000                                                                  000150
1021903727600017200000260206200016896                         00000000400485979871000000000000000000000000060223082126/400485900000000400485979871250821000000002000023704452  000000000008200000000000000000000000000000000000000000000000000000000000000000000000000000000000000000000000000000000                          0000000000                                                                  000151
1021903727600017200000260206200016896                         00000000400487514728000000000000000000000000060223082126/400487500000000400487514728260821000000002500023704143  000000000008200000000000000000000000000000000000000000000000000000000000000000000000000000000000000000000000000000000                          0000000000                                                                  000152
1021903727600017200000260206200016896                         0000000040049143867P000000000000000000000000060223082126/40049140000000040049143867P260821000000001500023704159  000000000008200000000000000000000000000000000000000000000000000000000000000000000000000000000000000000000000000000000                          0000000000                                                                  000153
1021903727600017200000260206200016896                         00000000400497222938000000000000000000000000060223082126/400497200000000400497222938240821000000000800023704159  000000000008200000000000000000000000000000000000000000000000000000000000000000000000000000000000000000000000000000000                          0000000000                                                                  000154
1021903727600017200000260206200016896                         00000000400501058420000000000000000000000000060223082126/400501000000000400501058420240821000000001340023704274  000000000008200000000000000000000000000000000000000000000000000000000000000000000000000000000000000000000000000000000                          0000000000                                                                  000155
1021903727600017200000260206200016896                         0000000040050123671P000000000000000000000000060223082126/40050120000000040050123671P240821000000001500023704452  000000000008200000000000000000000000000000000000000000000000000000000000000000000000000000000000000000000000000000000                          0000000000                                                                  000156
1021903727600017200000260206200016896                         00000000400513996892000000000000000000000000060223082126/400513900000000400513996892260821000000002700023703109  000000000008200000000000000000000000000000000000000000000000000000000000000000000000000000000000000000000000000000000                          0000000000                                                                  000157
1021903727600017200000260206200016896                         00000000400514250304000000000000000000000000060223082126/400514200000000400514250304250821000000009000023700140  000000000008200000000000000000000000000000000000000000000000000000000000000000000000000000000000000000000000000000000                          0000000000                                                                  000158
1021903727600017200000260206200016896                         0000000040051654383P000000000000000000000000060223082126/40051650000000040051654383P260821000000006000023700140  000000000008200000000000000000000000000000000000000000000000000000000000000000000000000000000000000000000000000000000                          0000000000                                                                  000159
1021903727600017200000260206200016896                         00000000400517890703000000000000000000000000060223082126/400517800000000400517890703250821000000012000023704144  000000000008200000000000000000000000000000000000000000000000000000000000000000000000000000000000000000000000000000000                          0000000000                                                                  000160
1021903727600017200000260206200016896                         00000000400522349697000000000000000000000000060223082126/400522300000000400522349697260821000000002000023704452  000000000008200000000000000000000000000000000000000000000000000000000000000000000000000000000000000000000000000000000                          0000000000                                                                  000161
1021903727600017200000260206200016896                         00000000400528022711000000000000000000000000060223082126/400528000000000400528022711240821000000000800023704159  000000000008200000000000000000000000000000000000000000000000000000000000000000000000000000000000000000000000000000000                          0000000000                                                                  000162
1021903727600017200000260206200016896                         00000000400531838137000000000000000000000000060223082126/400531800000000400531838137260821000000044300023704143  000000000008200000000000000000000000000000000000000000000000000000000000000000000000000000000000000000000000000000000                          0000000000                                                                  000163
1021903727600017200000260206200016896                         00000000400536220948000000000000000000000000060223082126/400536200000000400536220948260821000000003000023704152  000000000008200000000000000000000000000000000000000000000000000000000000000000000000000000000000000000000000000000000                          0000000000                                                                  000164
1021903727600017200000260206200016896                         0000000040053691625P000000000000000000000000060223082126/40053690000000040053691625P260821000000003000023704143  000000000008200000000000000000000000000000000000000000000000000000000000000000000000000000000000000000000000000000000                          7600000000                                                                  000165
1021903727600017200000260206200016896                         0000000040054044821P000000000000000000000000060223082126/40054040000000040054044821P240821000000001000023700435  000000000008200000000000000000000000000000000000000000000000000000000000000000000000000000000000000000000000000000000                          0000000000                                                                  000166
1021903727600017200000260206200016896                         0000000040054147415P000000000000000000000000060223082126/40054140000000040054147415P240821000000004000023704422  000000000008200000000000000000000000000000000000000000000000000000000000000000000000000000000000000000000000000000000                          0000000000                                                                  000167
1021903727600017200000260206200016896                         00000000400542338837000000000000000000000000060223082126/400542300000000400542338837240821000000001000023704422  000000000008200000000000000000000000000000000000000000000000000000000000000000000000000000000000000000000000000000000                          0000000000                                                                  000168
1021903727600017200000260206200016896                         00000000400544297984000000000000000000000000060223082126/400544200000000400544297984260821000000012000023704154  000000000008200000000000000000000000000000000000000000000000000000000000000000000000000000000000000000000000000000000                          0000000000                                                                  000169
1021903727600017200000260206200016896                         00000000400550461699000000000000000000000000060223082126/400550400000000400550461699240821000000002000023704151  000000000008200000000000000000000000000000000000000000000000000000000000000000000000000000000000000000000000000000000                          0000000000                                                                  000170
1021903727600017200000260206200016896                         00000000400557214794000000000000000000000000060223082126/400557200000000400557214794240821000000003000023704143  000000000008200000000000000000000000000000000000000000000000000000000000000000000000000000000000000000000000000000000                          0000000000                                                                  000171
1021903727600017200000260206200016896                         00000000400558909516000000000000000000000000060223082126/400558900000000400558909516240821000000000900023700405  000000000008200000000000000000000000000000000000000000000000000000000000000000000000000000000000000000000000000000000                          7600000000                                                                  000172
1021903727600017200000260206200016896                         00000000400559056681000000000000000000000000060223082126/400559000000000400559056681240821000000002000023704602  000000000008200000000000000000000000000000000000000000000000000000000000000000000000000000000000000000000000000000000                          7600000000                                                                  000173
1021903727600017200000260206200016896                         0000000040056160971P000000000000000000000000060223082126/40056160000000040056160971P240821000000003000023704159  000000000008200000000000000000000000000000000000000000000000000000000000000000000000000000000000000000000000000000000                          0000000000                                                                  000174
1021903727600017200000260206200016896                         0000000040056201535P000000000000000000000000060223082126/40056200000000040056201535P240821000000000810023704602  000000000008200000000000000000000000000000000000000000000000000000000000000000000000000000000000000000000000000000000                          0000000000                                                                  000175
1021903727600017200000260206200016896                         0000000040056592363P000000000000000000000000060223082126/40056590000000040056592363P240821000000001500023703162  000000000008200000000000000000000000000000000000000000000000000000000000000000000000000000000000000000000000000000000                          0000000000                                                                  000176
1021903727600017200000260206200016896                         00000000400566239872000000000000000000000000060223082126/400566200000000400566239872250821000000000800023704151  000000000008200000000000000000000000000000000000000000000000000000000000000000000000000000000000000000000000000000000                          0000000000                                                                  000177
1021903727600017200000260206200016896                         00000000400567140373000000000000000000000000060223082126/400567100000000400567140373240821000000000800023704428  000000000008200000000000000000000000000000000000000000000000000000000000000000000000000000000000000000000000000000000                          0000000000                                                                  000178
1021903727600017200000260206200016896                         0000000040057292787P000000000000000000000000060223082126/40057290000000040057292787P260821000000001500023704147  000000000008200000000000000000000000000000000000000000000000000000000000000000000000000000000000000000000000000000000                          0000000000                                                                  000179
1021903727600017200000260206200016896                         00000000400573998339000000000000000000000000060223082126/400573900000000400573998339240821000000005000023700073  000000000008200000000000000000000000000000000000000000000000000000000000000000000000000000000000000000000000000000000                          0000000000                                                                  000180
1021903727600017200000260206200016896                         00000000400575090873000000000000000000000000060223082126/400575000000000400575090873240821000000000800023704159  000000000008200000000000000000000000000000000000000000000000000000000000000000000000000000000000000000000000000000000                          0000000000                                                                  000181
1021903727600017200000260206200016896                         00000000400575417880000000000000000000000000060223082126/400575400000000400575417880260821000000001000023704452  000000000008200000000000000000000000000000000000000000000000000000000000000000000000000000000000000000000000000000000                          0000000000                                                                  000182
1021903727600017200000260206200016896                         00000000400576037356000000000000000000000000060223082126/400576000000000400576037356250821000000000800023704159  000000000008200000000000000000000000000000000000000000000000000000000000000000000000000000000000000000000000000000000                          0000000000                                                                  000183
1021903727600017200000260206200016896                         00000000400584545824000000000000000000000000060223082126/400584500000000400584545824240821000000002500023704157  000000000008200000000000000000000000000000000000000000000000000000000000000000000000000000000000000000000000000000000                          0000000000                                                                  000184
1021903727600017200000260206200016896                         00000000400586888745000000000000000000000000060223082126/400586800000000400586888745240821000000005000023704400  000000000008200000000000000000000000000000000000000000000000000000000000000000000000000000000000000000000000000000000                          0000000000                                                                  000185
1021903727600017200000260206200016896                         00000000400589056295000000000000000000000000060223082126/400589000000000400589056295240821000000000800023704452  000000000008200000000000000000000000000000000000000000000000000000000000000000000000000000000000000000000000000000000                          0000000000                                                                  000186
1021903727600017200000260206200016896                         00000000400598076835000000000000000000000000060223082126/400598000000000400598076835240821000000002000023700153  000000000008200000000000000000000000000000000000000000000000000000000000000000000000000000000000000000000000000000000                          7600000000                                                                  000187
1021903727600017200000260206200016896                         00000000400598413424000000000000000000000000060223082126/400598400000000400598413424260821000000005000023704143  000000000008200000000000000000000000000000000000000000000000000000000000000000000000000000000000000000000000000000000                          0000000000                                                                  000188
1021903727600017200000260206200016896                         00000000400605303095000000000000000000000000060223082126/400605300000000400605303095240821000000002500023704452  000000000008200000000000000000000000000000000000000000000000000000000000000000000000000000000000000000000000000000000                          0000000000                                                                  000189
1021903727600017200000260206200016896                         00000000400606132391000000000000000000000000060223082126/400606100000000400606132391250821000000000800023704147  000000000008200000000000000000000000000000000000000000000000000000000000000000000000000000000000000000000000000000000                          0000000000                                                                  000190
1021903727600017200000260206200016896                         00000000400606574912000000000000000000000000060223082126/400606500000000400606574912250821000000001300023704422  000000000008200000000000000000000000000000000000000000000000000000000000000000000000000000000000000000000000000000000                          0000000000                                                                  000191
1021903727600017200000260206200016896                         00000000400614528679000000000000000000000000060223082126/400614500000000400614528679250821000000001010023703162  000000000008200000000000000000000000000000000000000000000000000000000000000000000000000000000000000000000000000000000                          0000000000                                                                  000192
1021903727600017200000260206200016896                         00000000400614741763000000000000000000000000060223082126/400614700000000400614741763240821000000003000023703109  000000000008200000000000000000000000000000000000000000000000000000000000000000000000000000000000000000000000000000000                          0000000000                                                                  000193
1021903727600017200000260206200016896                         00000000400616897965000000000000000000000000060223082126/400616800000000400616897965260821000000000810023702062  000000000008200000000000000000000000000000000000000000000000000000000000000000000000000000000000000000000000000000000                          0000000000                                                                  000194
1021903727600017200000260206200016896                         00000000400619254178000000000000000000000000060223082126/400619200000000400619254178260821000000010000023704452  000000000008200000000000000000000000000000000000000000000000000000000000000000000000000000000000000000000000000000000                          7600000000                                                                  000195
1021903727600017200000260206200016896                         00000000400625306244000000000000000000000000060223082126/400625300000000400625306244240821000000004000023704143  000000000008200000000000000000000000000000000000000000000000000000000000000000000000000000000000000000000000000000000                          0000000000                                                                  000196
1021903727600017200000260206200016896                         00000000400626045347000000000000000000000000060223082126/400626000000000400626045347240821000000011200023700320  000000000008200000000000000000000000000000000000000000000000000000000000000000000000000000000000000000000000000000000                          0000000000                                                                  000197
1021903727600017200000260206200016896                         00000000400627278574000000000000000000000000060223082126/400627200000000400627278574240821000000000800023704159  000000000008200000000000000000000000000000000000000000000000000000000000000000000000000000000000000000000000000000000                          0000000000                                                                  000198
1021903727600017200000260206200016896                         00000000400631349923000000000000000000000000060223082126/400631300000000400631349923240821000000002000023700153  000000000008200000000000000000000000000000000000000000000000000000000000000000000000000000000000000000000000000000000                          0000000000                                                                  000199
1021903727600017200000260206200016896                         0000000040063218491P000000000000000000000000060223082126/40063210000000040063218491P260821000000000800023704159  000000000008200000000000000000000000000000000000000000000000000000000000000000000000000000000000000000000000000000000                          0000000000                                                                  000200
1021903727600017200000260206200016896                         00000000400638280236000000000000000000000000060223082126/400638200000000400638280236250821000000000800023704159  000000000008200000000000000000000000000000000000000000000000000000000000000000000000000000000000000000000000000000000                          0000000000                                                                  000201
1021903727600017200000260206200016896                         0000000040064130930P000000000000000000000000060223082126/40064130000000040064130930P250821000000000800023704159  000000000008200000000000000000000000000000000000000000000000000000000000000000000000000000000000000000000000000000000                          0000000000                                                                  000202
1021903727600017200000260206200016896                         00000000400647598478000000000000000000000000060223082126/400647500000000400647598478240821000000001200023700153  000000000008200000000000000000000000000000000000000000000000000000000000000000000000000000000000000000000000000000000                          0000000000                                                                  000203
1021903727600017200000260206200016896                         00000000400652212332000000000000000000000000060223082126/400652200000000400652212332260821000000049000023704151  000000000008200000000000000000000000000000000000000000000000000000000000000000000000000000000000000000000000000000000                          7600000000                                                                  000204
1021903727600017200000260206200016896                         00000000400652607868000000000000000000000000060223082126/400652600000000400652607868240821000000000800023704426  000000000008200000000000000000000000000000000000000000000000000000000000000000000000000000000000000000000000000000000                          0000000000                                                                  000205
1021903727600017200000260206200016896                         00000000400657731907000000000000000000000000060223082126/400657700000000400657731907240821000000000800023704159  000000000008200000000000000000000000000000000000000000000000000000000000000000000000000000000000000000000000000000000                          0000000000                                                                  000206
1021903727600017200000260206200016896                         00000000400658055867000000000000000000000000060223082126/400658000000000400658055867250821000000000800023703109  000000000008200000000000000000000000000000000000000000000000000000000000000000000000000000000000000000000000000000000                          0000000000                                                                  000207
1021903727600017200000260206200016896                         00000000400659283669000000000000000000000000060223082126/400659200000000400659283669240821000000003000023704602  000000000008200000000000000000000000000000000000000000000000000000000000000000000000000000000000000000000000000000000                          0000000000                                                                  000208
1021903727600017200000260206200016896                         0000000040066119584P000000000000000000000000060223082126/40066110000000040066119584P240821000000001500023704143  000000000008200000000000000000000000000000000000000000000000000000000000000000000000000000000000000000000000000000000                          0000000000                                                                  000209
1021903727600017200000260206200016896                         00000000400664522647000000000000000000000000060223082126/400664500000000400664522647240821000000001500023700320  000000000008200000000000000000000000000000000000000000000000000000000000000000000000000000000000000000000000000000000                          0000000000                                                                  000210
1021903727600017200000260206200016896                         00000000400668071356000000000000000000000000060223082126/400668000000000400668071356240821000000004000023700140  000000000008200000000000000000000000000000000000000000000000000000000000000000000000000000000000000000000000000000000                          0000000000                                                                  000211
1021903727600017200000260206200016896                         00000000400672160738000000000000000000000000060223082126/400672100000000400672160738260821000000008000023704151  000000000008200000000000000000000000000000000000000000000000000000000000000000000000000000000000000000000000000000000                          0000000000                                                                  000212
1021903727600017200000260206200016896                         00000000400678227036000000000000000000000000060223082126/400678200000000400678227036240821000000000900023704426  000000000008200000000000000000000000000000000000000000000000000000000000000000000000000000000000000000000000000000000                          0000000000                                                                  000213
1021903727600017200000260206200016896                         0000000040068120991P000000000000000000000000060223082126/40068120000000040068120991P260821000000000800023704159  000000000008200000000000000000000000000000000000000000000000000000000000000000000000000000000000000000000000000000000                          0000000000                                                                  000214
1021903727600017200000260206200016896                         00000000400681623295000000000000000000000000060223082126/400681600000000400681623295260821000000012000023703162  000000000008200000000000000000000000000000000000000000000000000000000000000000000000000000000000000000000000000000000                          0000000000                                                                  000215
1021903727600017200000260206200016896                         00000000400686639734000000000000000000000000060223082126/400686600000000400686639734260821000000000800023704159  000000000008200000000000000000000000000000000000000000000000000000000000000000000000000000000000000000000000000000000                          0000000000                                                                  000216
1021903727600017200000260206200016896                         00000000400691754258000000000000000000000000060223082126/400691700000000400691754258250821000000000800023703109  000000000008200000000000000000000000000000000000000000000000000000000000000000000000000000000000000000000000000000000                          0000000000                                                                  000217
1021903727600017200000260206200016896                         00000000400691807084000000000000000000000000060223082126/400691800000000400691807084240821000000001500023700320  000000000008200000000000000000000000000000000000000000000000000000000000000000000000000000000000000000000000000000000                          0000000000                                                                  000218
1021903727600017200000260206200016896                         00000000400694135362000000000000000000000000060223082126/400694100000000400694135362240821000000002000023704151  000000000008200000000000000000000000000000000000000000000000000000000000000000000000000000000000000000000000000000000                          0000000000                                                                  000219
1021903727600017200000260206200016896                         00000000400697534969000000000000000000000000060223082126/400697500000000400697534969260821000000000900023702062  000000000008200000000000000000000000000000000000000000000000000000000000000000000000000000000000000000000000000000000                          0000000000                                                                  000220
1021903727600017200000260206200016896                         00000000400705354843000000000000000000000000060223082126/400705300000000400705354843260821000000000800023704159  000000000008200000000000000000000000000000000000000000000000000000000000000000000000000000000000000000000000000000000                          0000000000                                                                  000221
1021903727600017200000260206200016896                         00000000400706155151000000000000000000000000060223082126/400706100000000400706155151240821000000000800023704143  000000000008200000000000000000000000000000000000000000000000000000000000000000000000000000000000000000000000000000000                          0000000000                                                                  000222
1021903727600017200000260206200016896                         00000000400710581378000000000000000000000000060223082126/400710500000000400710581378240821000000002920023703109  000000000008200000000000000000000000000000000000000000000000000000000000000000000000000000000000000000000000000000000                          0000000000                                                                  000223
1021903727600017200000260206200016896                         00000000400711805946000000000000000000000000060223082126/400711800000000400711805946240821000000002000023704452  000000000008200000000000000000000000000000000000000000000000000000000000000000000000000000000000000000000000000000000                          7600000000                                                                  000224
1021903727600017200000260206200016896                         00000000400716762978000000000000000000000000060223082126/400716700000000400716762978250821000000000800023704159  000000000008200000000000000000000000000000000000000000000000000000000000000000000000000000000000000000000000000000000                          0000000000                                                                  000225
1021903727600017200000260206200016896                         00000000400724747201000000000000000000000000060223082126/400724700000000400724747201260821000000002000023704159  000000000008200000000000000000000000000000000000000000000000000000000000000000000000000000000000000000000000000000000                          0000000000                                                                  000226
1021903727600017200000260206200016896                         0000000040072564290P000000000000000000000000060223082126/40072560000000040072564290P240821000000002350023704602  000000000008200000000000000000000000000000000000000000000000000000000000000000000000000000000000000000000000000000000                          0000000000                                                                  000227
1021903727600017200000260206200016896                         00000000400727250111000000000000000000000000060223082126/400727200000000400727250111240821000000001500023704452  000000000008200000000000000000000000000000000000000000000000000000000000000000000000000000000000000000000000000000000                          0000000000                                                                  000228
1021903727600017200000260206200016896                         00000000400729540486000000000000000000000000060223082126/400729500000000400729540486240821000000000900023704452  000000000008200000000000000000000000000000000000000000000000000000000000000000000000000000000000000000000000000000000                          0000000000                                                                  000229
1021903727600017200000260206200016896                         00000000400730124658000000000000000000000000060223082126/400730100000000400730124658240821000000000800023704159  000000000008200000000000000000000000000000000000000000000000000000000000000000000000000000000000000000000000000000000                          0000000000                                                                  000230
1021903727600017200000260206200016896                         00000000400733101756000000000000000000000000060223082126/400733100000000400733101756240821000000000800023704452  000000000008200000000000000000000000000000000000000000000000000000000000000000000000000000000000000000000000000000000                          0000000000                                                                  000231
1021903727600017200000260206200016896                         00000000400737098350000000000000000000000000060223082126/400737000000000400737098350260821000000005710023700140  000000000008200000000000000000000000000000000000000000000000000000000000000000000000000000000000000000000000000000000                          0000000000                                                                  000232
1021903727600017200000260206200016896                         00000000400742905906000000000000000000000000060223082126/400742900000000400742905906250821000000004550023700389  000000000008200000000000000000000000000000000000000000000000000000000000000000000000000000000000000000000000000000000                          0000000000                                                                  000233
1021903727600017200000260206200016896                         00000000400743356019000000000000000000000000060223082126/400743300000000400743356019240821000000000800023704452  000000000008200000000000000000000000000000000000000000000000000000000000000000000000000000000000000000000000000000000                          0000000000                                                                  000234
1021903727600017200000260206200016896                         00000000400750906946000000000000000000000000060223082126/400750900000000400750906946260821000000001700023704422  000000000008200000000000000000000000000000000000000000000000000000000000000000000000000000000000000000000000000000000                          0000000000                                                                  000235
1021903727600017200000260206200016896                         00000000400753571937000000000000000000000000060223082126/400753500000000400753571937250821000000000800023700320  000000000008200000000000000000000000000000000000000000000000000000000000000000000000000000000000000000000000000000000                          0000000000                                                                  000236
1021903727600017200000260206200016896                         00000000400757756435000000000000000000000000060223082126/400757700000000400757756435260821000000000800023704422  000000000008200000000000000000000000000000000000000000000000000000000000000000000000000000000000000000000000000000000                          0000000000                                                                  000237
1021903727600017200000260206200016896                         00000000400759285405000000000000000000000000060223082126/400759200000000400759285405260821000000000800023704159  000000000008200000000000000000000000000000000000000000000000000000000000000000000000000000000000000000000000000000000                          0000000000                                                                  000238
1021903727600017200000260206200016896                         0000000040076018728P000000000000000000000000060223082126/40076010000000040076018728P240821000000000800023704426  000000000008200000000000000000000000000000000000000000000000000000000000000000000000000000000000000000000000000000000                          7600000000                                                                  000239
1021903727600017200000260206200016896                         00000000400763564076000000000000000000000000060223082126/400763500000000400763564076240821000000000800023704426  000000000008200000000000000000000000000000000000000000000000000000000000000000000000000000000000000000000000000000000                          0000000000                                                                  000240
1021903727600017200000260206200016896                         00000000400763626136000000000000000000000000060223082126/400763600000000400763626136240821000000001000023704428  000000000008200000000000000000000000000000000000000000000000000000000000000000000000000000000000000000000000000000000                          0000000000                                                                  000241
1021903727600017200000260206200016896                         00000000400770506928000000000000000000000000060223082126/400770500000000400770506928260821000000023540023702062  000000000008200000000000000000000000000000000000000000000000000000000000000000000000000000000000000000000000000000000                          0000000000                                                                  000242
1021903727600017200000260206200016896                         00000000400775608176000000000000000000000000060223082126/400775600000000400775608176260821000000000800023704159  000000000008200000000000000000000000000000000000000000000000000000000000000000000000000000000000000000000000000000000                          0000000000                                                                  000243
1021903727600017200000260206200016896                         00000000400779158167000000000000000000000000060223082126/400779100000000400779158167260821000000002500023704428  000000000008200000000000000000000000000000000000000000000000000000000000000000000000000000000000000000000000000000000                          0000000000                                                                  000244
1021903727600017200000260206200016896                         00000000400780341498000000000000000000000000060223082126/400780300000000400780341498250821000000005000023704159  000000000008200000000000000000000000000000000000000000000000000000000000000000000000000000000000000000000000000000000                          0000000000                                                                  000245
1021903727600017200000260206200016896                         00000000400783057960000000000000000000000000060223082126/400783000000000400783057960260821000000002970023704426  000000000008200000000000000000000000000000000000000000000000000000000000000000000000000000000000000000000000000000000                          0000000000                                                                  000246
1021903727600017200000260206200016896                         00000000400787960347000000000000000000000000060223082126/400787900000000400787960347240821000000009000023704144  000000000008200000000000000000000000000000000000000000000000000000000000000000000000000000000000000000000000000000000                          0000000000                                                                  000247
1021903727600017200000260206200016896                         00000000400788227619000000000000000000000000060223082126/400788200000000400788227619250821000000000800023704159  000000000008200000000000000000000000000000000000000000000000000000000000000000000000000000000000000000000000000000000                          0000000000                                                                  000248
