02RETORNO01COBRANCA       00000000000005034448E-PREPAG ADMINISTRADORA DE CAR237BRADESCO       2510210160000000794                                                                                                                                                                                                                                                                          261021         000001
1021903727600017200000260206200016896                         00000000100031717453000000000000000000000000060225102126/100031700000000100031717453261021000000000810023704152  000000000008200000000000000000000000000000000000000000000000000000000000000000000000000000000000000000000000000000000                          0000000000                                                                  000002
1021903727600017200000260206200016896                         00000000100031718530000000000000000000000000060225102126/100031700000000100031718530261021000000024966923704602  000000000008200000000000000000000000000000000000000000000000000000000000000000000000000000000000000000000000000000000                          0000000000                                                                  000003
1021903727600017200000260206200016896                         00000000100031728277000000000000000000000000060225102126/100031700000000100031728277261021000000019311823704159  000000000008200000000000000000000000000000000000000000000000000000000000000000000000000000000000000000000000000000000                          0000000000                                                                  000004
1021903727600017200000260206200016896                         00000000100031736792000000000000000000000000060225102126/100031700000000100031736792261021000000001722223704144  000000000008200000000000000000000000000000000000000000000000000000000000000000000000000000000000000000000000000000000                          7600000000                                                                  000005
1021903727600017200000260206200016896                         00000000100031774791000000000000000000000000060225102126/100031700000000100031774791261021000000002833123704400  000000000008200000000000000000000000000000000000000000000000000000000000000000000000000000000000000000000000000000000                          0000000000                                                                  000006
1021903727600017200000260206200016896                         00000000200245135510000000000000000000000000060225102126/200245100000000200245135510261021000000000679523700408  000000000008200000000000000000000000000000000000000000000000000000000000000000000000000000000000000000000000000000000                          0000000000                                                                  000007
1021903727600017200000260206200016896                         00000000200360418496000000000000000000000000060225102126/200360400000000200360418496281021000000000203523704426  000000000008200000000000000000000000000000000000000000000000000000000000000000000000000000000000000000000000000000000                          0000000000                                                                  000008
1021903727600017200000260206200016896                         00000000200381250587000000000000000000000000060225102126/200381200000000200381250587271021000000001129723704151  000000000008200000000000000000000000000000000000000000000000000000000000000000000000000000000000000000000000000000000                          0000000000                                                                  000009
1021903727600017200000260206200016896                         00000000200519231341000000000000000000000000060225102126/200519200000000200519231341281021000000000790923704452  000000000008200000000000000000000000000000000000000000000000000000000000000000000000000000000000000000000000000000000                          0000000000                                                                  000010
1021903727600017200000260206200016896                         0000000020074565039P000000000000000000000000060225102126/20074560000000020074565039P261021000000001083223704424  000000000008200000000000000000000000000000000000000000000000000000000000000000000000000000000000000000000000000000000                          0000000000                                                                  000011
1021903727600017200000260206200016896                         00000000200758672651000000000000000000000000060225102126/200758600000000200758672651281021000000001016523704422  000000000008200000000000000000000000000000000000000000000000000000000000000000000000000000000000000000000000000000000                          0000000000                                                                  000012
1021903727600017200000260206200016896                         00000000200768372001000000000000000000000000060225102126/200768300000000200768372001261021000000000526623704400  000000000008200000000000000000000000000000000000000000000000000000000000000000000000000000000000000000000000000000000                          0000000000                                                                  000013
1021903727600017200000260206200016896                         00000000200809303850000000000000000000000000060225102126/200809300000000200809303850271021000000000217723700140  000000000008200000000000000000000000000000000000000000000000000000000000000000000000000000000000000000000000000000000                          0000000000                                                                  000014
1021903727600017200000260206200016896                         00000000200814271150000000000000000000000000060225102126/200814200000000200814271150271021000000002000023704151  000000000008200000000000000000000000000000000000000000000000000000000000000000000000000000000000000000000000000000000                          0000000000                                                                  000015
1021903727600017200000260206200016896                         00000000200889118927000000000000000000000000060225102126/200889100000000200889118927281021000000000678023704151  000000000008200000000000000000000000000000000000000000000000000000000000000000000000000000000000000000000000000000000                          0000000000                                                                  000016
1021903727600017200000260206200016896                         00000000400019308452000000000000000000000000060225102126/400019300000000400019308452261021000000000800023704151  000000000008200000000000000000000000000000000000000000000000000000000000000000000000000000000000000000000000000000000                          0000000000                                                                  000017
1021903727600017200000260206200016896                         00000000400088874931000000000000000000000000060225102126/400088800000000400088874931281021000000001500023704157  000000000008200000000000000000000000000000000000000000000000000000000000000000000000000000000000000000000000000000000                          0000000000                                                                  000018
1021903727600017200000260206200016896                         00000000400136700053000000000000000000000000060225102126/400136700000000400136700053281021000000001000023704158  000000000008200000000000000000000000000000000000000000000000000000000000000000000000000000000000000000000000000000000                          0000000000                                                                  000019
1021903727600017200000260206200016896                         00000000400138300982000000000000000000000000060225102126/400138300000000400138300982261021000000000800023704602  000000000008200000000000000000000000000000000000000000000000000000000000000000000000000000000000000000000000000000000                          7600000000                                                                  000020
1021903727600017200000260206200016896                         00000000400145104811000000000000000000000000060225102126/400145100000000400145104811281021000000000800023704422  000000000008200000000000000000000000000000000000000000000000000000000000000000000000000000000000000000000000000000000                          0000000000                                                                  000021
1021903727600017200000260206200016896                         00000000400146946409000000000000000000000000060225102126/400146900000000400146946409281021000000006460023700140  000000000008200000000000000000000000000000000000000000000000000000000000000000000000000000000000000000000000000000000                          0000000000                                                                  000022
1021903727600017200000260206200016896                         00000000400149309698000000000000000000000000060225102126/400149300000000400149309698281021000000000800023704159  000000000008200000000000000000000000000000000000000000000000000000000000000000000000000000000000000000000000000000000                          0000000000                                                                  000023
1021903727600017200000260206200016896                         0000000040015154890P000000000000000000000000060225102126/40015150000000040015154890P281021000000001000023704422  000000000008200000000000000000000000000000000000000000000000000000000000000000000000000000000000000000000000000000000                          0000000000                                                                  000024
1021903727600017200000260206200016896                         00000000400153381042000000000000000000000000060225102126/400153300000000400153381042281021000000000800023702062  000000000008200000000000000000000000000000000000000000000000000000000000000000000000000000000000000000000000000000000                          0000000000                                                                  000025
1021903727600017200000260206200016896                         00000000400161980982000000000000000000000000060225102126/400161900000000400161980982281021000000003000023704143  000000000008200000000000000000000000000000000000000000000000000000000000000000000000000000000000000000000000000000000                          7600000000                                                                  000026
1021903727600017200000260206200016896                         00000000400171977025000000000000000000000000060225102126/400171900000000400171977025281021000000002500023704143  000000000008200000000000000000000000000000000000000000000000000000000000000000000000000000000000000000000000000000000                          0000000000                                                                  000027
1021903727600017200000260206200016896                         00000000400172408520000000000000000000000000060225102126/400172400000000400172408520281021000000150000023704428  000000000008200000000000000000000000000000000000000000000000000000000000000000000000000000000000000000000000000000000                          7600000000                                                                  000028
1021903727600017200000260206200016896                         00000000400195850441000000000000000000000000060225102126/400195800000000400195850441281021000000000800023704158  000000000008200000000000000000000000000000000000000000000000000000000000000000000000000000000000000000000000000000000                          0000000000                                                                  000029
1021903727600017200000260206200016896                         00000000400209188550000000000000000000000000060225102126/400209100000000400209188550281021000000000800023703109  000000000008200000000000000000000000000000000000000000000000000000000000000000000000000000000000000000000000000000000                          0000000000                                                                  000030
1021903727600017200000260206200016896                         0000000040023378086P000000000000000000000000060225102126/40023370000000040023378086P281021000000001720023704158  000000000008200000000000000000000000000000000000000000000000000000000000000000000000000000000000000000000000000000000                          0000000000                                                                  000031
1021903727600017200000260206200016896                         00000000400288397720000000000000000000000000060225102126/400288300000000400288397720281021000000002000023704143  000000000008200000000000000000000000000000000000000000000000000000000000000000000000000000000000000000000000000000000                          0000000000                                                                  000032
1021903727600017200000260206200016896                         0000000040029260921P000000000000000000000000060225102126/40029260000000040029260921P281021000000000800023704422  000000000008200000000000000000000000000000000000000000000000000000000000000000000000000000000000000000000000000000000                          0000000000                                                                  000033
1021903727600017200000260206200016896                         00000000400326402369000000000000000000000000060225102126/400326400000000400326402369281021000000000800023704159  000000000008200000000000000000000000000000000000000000000000000000000000000000000000000000000000000000000000000000000                          0000000000                                                                  000034
1021903727600017200000260206200016896                         00000000400329282313000000000000000000000000060225102126/400329200000000400329282313261021000000002500023704424  000000000008200000000000000000000000000000000000000000000000000000000000000000000000000000000000000000000000000000000                          0000000000                                                                  000035
1021903727600017200000260206200016896                         00000000400334836785000000000000000000000000060225102126/400334800000000400334836785281021000000005000023700153  000000000008200000000000000000000000000000000000000000000000000000000000000000000000000000000000000000000000000000000                          0000000000                                                                  000036
1021903727600017200000260206200016896                         00000000400339943520000000000000000000000000060225102126/400339900000000400339943520281021000000001500023700435  000000000008200000000000000000000000000000000000000000000000000000000000000000000000000000000000000000000000000000000                          0000000000                                                                  000037
1021903727600017200000260206200016896                         0000000040034868757P000000000000000000000000060225102126/40034860000000040034868757P281021000000001990023700320  000000000008200000000000000000000000000000000000000000000000000000000000000000000000000000000000000000000000000000000                          0000000000                                                                  000038
1021903727600017200000260206200016896                         00000000400358224519000000000000000000000000060225102126/400358200000000400358224519281021000000000800023704159  000000000008200000000000000000000000000000000000000000000000000000000000000000000000000000000000000000000000000000000                          0000000000                                                                  000039
1021903727600017200000260206200016896                         00000000400360221004000000000000000000000000060225102126/400360200000000400360221004281021000000000800023704159  000000000008200000000000000000000000000000000000000000000000000000000000000000000000000000000000000000000000000000000                          0000000000                                                                  000040
1021903727600017200000260206200016896                         00000000400369643998000000000000000000000000060225102126/400369600000000400369643998281021000000005000023700140  000000000008200000000000000000000000000000000000000000000000000000000000000000000000000000000000000000000000000000000                          0000000000                                                                  000041
1021903727600017200000260206200016896                         00000000400379280516000000000000000000000000060225102126/400379200000000400379280516281021000000006000023700140  000000000008200000000000000000000000000000000000000000000000000000000000000000000000000000000000000000000000000000000                          0000000000                                                                  000042
1021903727600017200000260206200016896                         00000000400398085457000000000000000000000000060225102126/400398000000000400398085457281021000000000800023704159  000000000008200000000000000000000000000000000000000000000000000000000000000000000000000000000000000000000000000000000                          0000000000                                                                  000043
1021903727600017200000260206200016896                         00000000400424868678000000000000000000000000060225102126/400424800000000400424868678261021000000002000023704152  000000000008200000000000000000000000000000000000000000000000000000000000000000000000000000000000000000000000000000000                          0000000000                                                                  000044
1021903727600017200000260206200016896                         00000000400436626920000000000000000000000000060225102126/400436600000000400436626920281021000000010000023704157  000000000008200000000000000000000000000000000000000000000000000000000000000000000000000000000000000000000000000000000                          0000000000                                                                  000045
1021903727600017200000260206200016896                         00000000400451284556000000000000000000000000060225102126/400451200000000400451284556281021000000003000023704144  000000000008200000000000000000000000000000000000000000000000000000000000000000000000000000000000000000000000000000000                          0000000000                                                                  000046
1021903727600017200000260206200016896                         00000000400464016127000000000000000000000000060225102126/400464000000000400464016127251021000000003000023700140  000000000008200000000000000000000000000000000000000000000000000000000000000000000000000000000000000000000000000000000                          0000000000                                                                  000047
1021903727600017200000260206200016896                         00000000400474298791000000000000000000000000060225102126/400474200000000400474298791261021000000002500023700320  000000000008200000000000000000000000000000000000000000000000000000000000000000000000000000000000000000000000000000000                          0000000000                                                                  000048
1021903727600017200000260206200016896                         00000000400492851430000000000000000000000000060225102126/400492800000000400492851430281021000000000800023704159  000000000008200000000000000000000000000000000000000000000000000000000000000000000000000000000000000000000000000000000                          0000000000                                                                  000049
1021903727600017200000260206200016896                         00000000400505351165000000000000000000000000060225102126/400505300000000400505351165261021000000003750023704426  000000000008200000000000000000000000000000000000000000000000000000000000000000000000000000000000000000000000000000000                          0000000000                                                                  000050
1021903727600017200000260206200016896                         00000000400506729374000000000000000000000000060225102126/400506700000000400506729374281021000000001000023704159  000000000008200000000000000000000000000000000000000000000000000000000000000000000000000000000000000000000000000000000                          0000000000                                                                  000051
1021903727600017200000260206200016896                         00000000400532633849000000000000000000000000060225102126/400532600000000400532633849281021000000008000023704157  000000000008200000000000000000000000000000000000000000000000000000000000000000000000000000000000000000000000000000000                          0000000000                                                                  000052
1021903727600017200000260206200016896                         00000000400552247171000000000000000000000000060225102126/400552200000000400552247171281021000000003000023704159  000000000008200000000000000000000000000000000000000000000000000000000000000000000000000000000000000000000000000000000                          7600000000                                                                  000053
1021903727600017200000260206200016896                         00000000400554769191000000000000000000000000060225102126/400554700000000400554769191281021000000000800023704159  000000000008200000000000000000000000000000000000000000000000000000000000000000000000000000000000000000000000000000000                          0000000000                                                                  000054
1021903727600017200000260206200016896                         00000000400570089400000000000000000000000000060225102126/400570000000000400570089400281021000000000800023704159  000000000008200000000000000000000000000000000000000000000000000000000000000000000000000000000000000000000000000000000                          0000000000                                                                  000055
1021903727600017200000260206200016896                         00000000400581189997000000000000000000000000060225102126/400581100000000400581189997261021000000000810023704602  000000000008200000000000000000000000000000000000000000000000000000000000000000000000000000000000000000000000000000000                          7600000000                                                                  000056
1021903727600017200000260206200016896                         00000000400619495728000000000000000000000000060225102126/400619400000000400619495728281021000000000800023704422  000000000008200000000000000000000000000000000000000000000000000000000000000000000000000000000000000000000000000000000                          0000000000                                                                  000057
1021903727600017200000260206200016896                         00000000400623474689000000000000000000000000060225102126/400623400000000400623474689261021000000002000023704422  000000000008200000000000000000000000000000000000000000000000000000000000000000000000000000000000000000000000000000000                          7600000000                                                                  000058
1021903727600017200000260206200016896                         00000000400647253985000000000000000000000000060225102126/400647200000000400647253985281021000000012000023700153  000000000008200000000000000000000000000000000000000000000000000000000000000000000000000000000000000000000000000000000                          0000000000                                                                  000059
1021903727600017200000260206200016896                         00000000400655788235000000000000000000000000060225102126/400655700000000400655788235281021000000000800023704159  000000000008200000000000000000000000000000000000000000000000000000000000000000000000000000000000000000000000000000000                          0000000000                                                                  000060
1021903727600017200000260206200016896                         00000000400657239670000000000000000000000000060225102126/400657200000000400657239670261021000000010530023704154  000000000008200000000000000000000000000000000000000000000000000000000000000000000000000000000000000000000000000000000                          0000000000                                                                  000061
1021903727600017200000260206200016896                         00000000400662101679000000000000000000000000060225102126/400662100000000400662101679281021000000002500023704400  000000000008200000000000000000000000000000000000000000000000000000000000000000000000000000000000000000000000000000000                          0000000000                                                                  000062
1021903727600017200000260206200016896                         0000000040066711860P000000000000000000000000060225102126/40066710000000040066711860P281021000000000800023704159  000000000008200000000000000000000000000000000000000000000000000000000000000000000000000000000000000000000000000000000                          0000000000                                                                  000063
1021903727600017200000260206200016896                         00000000400669230628000000000000000000000000060225102126/400669200000000400669230628281021000000005000023702062  000000000008200000000000000000000000000000000000000000000000000000000000000000000000000000000000000000000000000000000                          0000000000                                                                  000064
1021903727600017200000260206200016896                         00000000400672920635000000000000000000000000060225102126/400672900000000400672920635281021000000002000023704152  000000000008200000000000000000000000000000000000000000000000000000000000000000000000000000000000000000000000000000000                          0000000000                                                                  000065
1021903727600017200000260206200016896                         00000000400682063684000000000000000000000000060225102126/400682000000000400682063684281021000000001500023704143  000000000008200000000000000000000000000000000000000000000000000000000000000000000000000000000000000000000000000000000                          0000000000                                                                  000066
1021903727600017200000260206200016896                         00000000400686028581000000000000000000000000060225102126/400686000000000400686028581281021000000000800023700140  000000000008200000000000000000000000000000000000000000000000000000000000000000000000000000000000000000000000000000000                          0000000000                                                                  000067
1021903727600017200000260206200016896                         00000000400689494052000000000000000000000000060225102126/400689400000000400689494052281021000000006550023704159  000000000008200000000000000000000000000000000000000000000000000000000000000000000000000000000000000000000000000000000                          0000000000                                                                  000068
1021903727600017200000260206200016896                         00000000400704095593000000000000000000000000060225102126/400704000000000400704095593271021000000000800023700320  000000000008200000000000000000000000000000000000000000000000000000000000000000000000000000000000000000000000000000000                          0000000000                                                                  000069
1021903727600017200000260206200016896                         00000000400704592791000000000000000000000000060225102126/400704500000000400704592791281021000000010510023704154  000000000008200000000000000000000000000000000000000000000000000000000000000000000000000000000000000000000000000000000                          0000000000                                                                  000070
1021903727600017200000260206200016896                         00000000400718655850000000000000000000000000060225102126/400718600000000400718655850281021000000005000023704602  000000000008200000000000000000000000000000000000000000000000000000000000000000000000000000000000000000000000000000000                          0000000000                                                                  000071
1021903727600017200000260206200016896                         00000000400723014901000000000000000000000000060225102126/400723000000000400723014901281021000000002500023700320  000000000008200000000000000000000000000000000000000000000000000000000000000000000000000000000000000000000000000000000                          0000000000                                                                  000072
1021903727600017200000260206200016896                         0000000040075692315P000000000000000000000000060225102126/40075690000000040075692315P281021000000000800023704159  000000000008200000000000000000000000000000000000000000000000000000000000000000000000000000000000000000000000000000000                          0000000000                                                                  000073
1021903727600017200000260206200016896                         00000000400758447584000000000000000000000000060225102126/400758400000000400758447584281021000000009560023704154  000000000008200000000000000000000000000000000000000000000000000000000000000000000000000000000000000000000000000000000                          0000000000                                                                  000074
1021903727600017200000260206200016896                         00000000400771428831000000000000000000000000060225102126/400771400000000400771428831281021000000000800023704159  000000000008200000000000000000000000000000000000000000000000000000000000000000000000000000000000000000000000000000000                          0000000000                                                                  000075
1021903727600017200000260206200016896                         00000000400783321889000000000000000000000000060225102126/400783300000000400783321889261021000000000820023704602  000000000008200000000000000000000000000000000000000000000000000000000000000000000000000000000000000000000000000000000                          7600000000                                                                  000076
1021903727600017200000260206200016896                         00000000400802728243000000000000000000000000060225102126/400802700000000400802728243281021000000001500023700389  000000000008200000000000000000000000000000000000000000000000000000000000000000000000000000000000000000000000000000000                          0000000000                                                                  000077
1021903727600017200000260206200016896                         00000000400811564911000000000000000000000000060225102126/400811500000000400811564911281021000000000800023704159  000000000008200000000000000000000000000000000000000000000000000000000000000000000000000000000000000000000000000000000                          0000000000                                                                  000078
1021903727600017200000260206200016896                         00000000400836917827000000000000000000000000060225102126/400836900000000400836917827281021000000001260023704157  000000000008200000000000000000000000000000000000000000000000000000000000000000000000000000000000000000000000000000000                          0000000000                                                                  000079
1021903727600017200000260206200016896                         00000000400848801131000000000000000000000000060225102126/400848800000000400848801131261021000000001500023704452  000000000008200000000000000000000000000000000000000000000000000000000000000000000000000000000000000000000000000000000                          0000000000                                                                  000080
1021903727600017200000260206200016896                         00000000400862825213000000000000000000000000060225102126/400862800000000400862825213281021000000000800023704422  000000000008200000000000000000000000000000000000000000000000000000000000000000000000000000000000000000000000000000000                          0000000000                                                                  000081
1021903727600017200000260206200016896                         00000000400872714304000000000000000000000000060225102126/400872700000000400872714304281021000000000800023704422  000000000008200000000000000000000000000000000000000000000000000000000000000000000000000000000000000000000000000000000                          0000000000                                                                  000082
1021903727600017200000260206200016896                         0000000040089466405P000000000000000000000000060225102126/40089460000000040089466405P281021000000001600023704143  000000000008200000000000000000000000000000000000000000000000000000000000000000000000000000000000000000000000000000000                          7600000000                                                                  000083
1021903727600017200000260206200016896                         00000000400896945072000000000000000000000000060225102126/400896900000000400896945072281021000000003000023703109  000000000008200000000000000000000000000000000000000000000000000000000000000000000000000000000000000000000000000000000                          0000000000                                                                  000084
1021903727600017200000260206200016896                         00000000400903315357000000000000000000000000060225102126/400903300000000400903315357281021000000000800023704159  000000000008200000000000000000000000000000000000000000000000000000000000000000000000000000000000000000000000000000000                          0000000000                                                                  000085
1021903727600017200000260206200016896                         00000000400908759695000000000000000000000000060225102126/400908700000000400908759695281021000000010860023704143  000000000008200000000000000000000000000000000000000000000000000000000000000000000000000000000000000000000000000000000                          0000000000                                                                  000086
1021903727600017200000260206200016896                         00000000400908973271000000000000000000000000060225102126/400908900000000400908973271261021000000001800023704159  000000000008200000000000000000000000000000000000000000000000000000000000000000000000000000000000000000000000000000000                          0000000000                                                                  000087
1021903727600017200000260206200016896                         00000000400912560534000000000000000000000000060225102126/400912500000000400912560534281021000000005000023704159  000000000008200000000000000000000000000000000000000000000000000000000000000000000000000000000000000000000000000000000                          0000000000                                                                  000088
1021903727600017200000260206200016896                         0000000040091871181P000000000000000000000000060225102126/40091870000000040091871181P261021000000002500023704143  000000000008200000000000000000000000000000000000000000000000000000000000000000000000000000000000000000000000000000000                          0000000000                                                                  000089
1021903727600017200000260206200016896                         00000000400925033835000000000000000000000000060225102126/400925000000000400925033835281021000000000800023704159  000000000008200000000000000000000000000000000000000000000000000000000000000000000000000000000000000000000000000000000                          0000000000                                                                  000090
1021903727600017200000260206200016896                         00000000400938479166000000000000000000000000060225102126/400938400000000400938479166261021000000008000023704151  000000000008200000000000000000000000000000000000000000000000000000000000000000000000000000000000000000000000000000000                          0000000000                                                                  000091
1021903727600017200000260206200016896                         00000000400953266705000000000000000000000000060225102126/400953200000000400953266705281021000000002000023704143  000000000008200000000000000000000000000000000000000000000000000000000000000000000000000000000000000000000000000000000                          0000000000                                                                  000092
1021903727600017200000260206200016896                         00000000400988303654000000000000000000000000060225102126/400988300000000400988303654281021000000000800023704159  000000000008200000000000000000000000000000000000000000000000000000000000000000000000000000000000000000000000000000000                          0000000000                                                                  000093
1021903727600017200000260206200016896                         00000000600382139637000000000000000000000000060225102126/600382100000000600382139637281021000000001500023704436  000000000008200000000000000000000000000000000000000000000000000000000000000000000000000000000000000000000000000000000                          0000000000                                                                  000094
1021903727600017200000260206200016896                         00000000100031718530000000000000000000000000060625102126/100031700000000100031718530261021000000024966934106805  000000000000000000000000000000000000000000000000000000000000000000000000000000000000024966900000000000000000000000000   261021             00000000000000                                                                  000095
1021903727600017200000260206200016896                         00000000100031736792000000000000000000000000060625102126/100031700000000100031736792261021000000001722207700001  000000000000000000000000000000000000000000000000000000000000000000000000000000000000001722200000000000000000000000000   261021             00000000000000                                                                  000096
1021903727600017200000260206200016896                         00000000100031774791000000000000000000000000060625102126/100031700000000100031774791261021000000002833123702190  000000000000000000000000000000000000000000000000000000000000000000000000000000000000002833100000000000000000000000000   261021             00000000000000                                                                  000097
1021903727600017200000260206200016896                         00000000200360418496000000000000000000000000060625102126/200360400000000200360418496281021000000000203521200001  000000000000000000000000000000000000000000000000000000000000000000000000000000000000000203500000000000000000000000000   261021             00000000000000                                                                  000098
1021903727600017200000260206200016896                         00000000200381250587000000000000000000000000060625102126/200381200000000200381250587271021000000001129703302366  000000000000000000000000000000000000000000000000000000000000000000000000000000000000001129700000000000000000000000000   261021             00000000000000                                                                  000099
1021903727600017200000260206200016896                         00000000200430513459000000000000000000000000060625102126/200430500000000200430513459251021000000000461310401563  000000000000000000000000000000000000000000000000000000000000000000000000000000000000000461300000000000000000000000000   261021             00000000000000                                                                  000100
1021903727600017200000260206200016896                         00000000200519231341000000000000000000000000060625102126/200519200000000200519231341281021000000000790910403880  000000000000000000000000000000000000000000000000000000000000000000000000000000000000000790900000000000000000000000000   261021             00000000000000                                                                  000101
1021903727600017200000260206200016896                         00000000200809303850000000000000000000000000060625102126/200809300000000200809303850271021000000000217710403880  000000000000000000000000000000000000000000000000000000000000000000000000000000000000000217700000000000000000000000000   261021             00000000000000                                                                  000102
1021903727600017200000260206200016896                         00000000200889118927000000000000000000000000060625102126/200889100000000200889118927281021000000000678023700315  000000000000000000000000000000000000000000000000000000000000000000000000000000000000000678000000000000000000000000000   261021             00000000000000                                                                  000103
1021903727600017200000260206200016896                         00000000400019308452000000000000000000000000060625102126/400019300000000400019308452261021000000000800063300001  000000000000000000000000000000000000000000000000000000000000000000000000000000000000000800000000000000000000000000000   261021             00000000000000                                                                  000104
1021903727600017200000260206200016896                         00000000400108242848000000000000000000000000060625102126/400108200000000400108242848251021000000000800065500001  000000000000000000000000000000000000000000000000000000000000000000000000000000000000000800000000000000000000000000000   261021             00000000000000                                                                  000105
1021903727600017200000260206200016896                         00000000400112787514000000000000000000000000060625102126/400112700000000400112787514251021000000000800065500001  000000000000000000000000000000000000000000000000000000000000000000000000000000000000000800000000000000000000000000000   261021             00000000000000                                                                  000106
1021903727600017200000260206200016896                         00000000400138300982000000000000000000000000060625102126/400138300000000400138300982261021000000000800075600259  000000000000000000000000000000000000000000000000000000000000000000000000000000000000000800000000000000000000000000000   261021             00000000000000                                                                  000107
1021903727600017200000260206200016896                         00000000400145104811000000000000000000000000060625102126/400145100000000400145104811281021000000000800065500001  000000000000000000000000000000000000000000000000000000000000000000000000000000000000000800000000000000000000000000000   261021             00000000000000                                                                  000108
1021903727600017200000260206200016896                         00000000400146946409000000000000000000000000060625102126/400146900000000400146946409281021000000006460007000264  000000000000000000000000000000000000000000000000000000000000000000000000000000000000006460000000000000000000000000000   261021             00000000000000                                                                  000109
1021903727600017200000260206200016896                         00000000400149309698000000000000000000000000060625102126/400149300000000400149309698281021000000000800065500001  000000000000000000000000000000000000000000000000000000000000000000000000000000000000000800000000000000000000000000000   261021             00000000000000                                                                  000110
1021903727600017200000260206200016896                         0000000040015154890P000000000000000000000000060625102126/40015150000000040015154890P281021000000001000000103192  000000000000000000000000000000000000000000000000000000000000000000000000000000000000001000000000000000000000000000000   261021             00000000000000                                                                  000111
1021903727600017200000260206200016896                         00000000400161980982000000000000000000000000060625102126/400161900000000400161980982281021000000003000023701555  000000000000000000000000000000000000000000000000000000000000000000000000000000000000003000000000000000000000000000000   261021             00000000000000                                                                  000112
1021903727600017200000260206200016896                         0000000040016212866P000000000000000000000000060625102126/40016210000000040016212866P251021000000000800065500001  000000000000000000000000000000000000000000000000000000000000000000000000000000000000000800000000000000000000000000000   261021             00000000000000                                                                  000113
1021903727600017200000260206200016896                         00000000400171977025000000000000000000000000060625102126/400171900000000400171977025281021000000002500010403880  000000000000000000000000000000000000000000000000000000000000000000000000000000000000002500000000000000000000000000000   261021             00000000000000                                                                  000114
1021903727600017200000260206200016896                         00000000400172408520000000000000000000000000060625102126/400172400000000400172408520281021000000150000000103478  000000000000000000000000000000000000000000000000000000000000000000000000000000000000150000000000000000000000000000000   261021             00000000000000                                                                  000115
1021903727600017200000260206200016896                         00000000400195850441000000000000000000000000060625102126/400195800000000400195850441281021000000000800075600602  000000000000000000000000000000000000000000000000000000000000000000000000000000000000000800000000000000000000000000000   261021             00000000000000                                                                  000116
1021903727600017200000260206200016896                         00000000400209188550000000000000000000000000060625102126/400209100000000400209188550281021000000000800065500001  000000000000000000000000000000000000000000000000000000000000000000000000000000000000000800000000000000000000000000000   261021             00000000000000                                                                  000117
1021903727600017200000260206200016896                         00000000400214303848000000000000000000000000060625102126/400214300000000400214303848251021000000000800065500001  000000000000000000000000000000000000000000000000000000000000000000000000000000000000000800000000000000000000000000000   261021             00000000000000                                                                  000118
1021903727600017200000260206200016896                         00000000400226581630000000000000000000000000060625102126/400226500000000400226581630251021000000000800065500001  000000000000000000000000000000000000000000000000000000000000000000000000000000000000000800000000000000000000000000000   261021             00000000000000                                                                  000119
1021903727600017200000260206200016896                         0000000040023378086P000000000000000000000000060625102126/40023370000000040023378086P281021000000001720000102020  000000000000000000000000000000000000000000000000000000000000000000000000000000000000001720000000000000000000000000000   261021             00000000000000                                                                  000120
1021903727600017200000260206200016896                         00000000400288397720000000000000000000000000060625102126/400288300000000400288397720281021000000002000023702835  000000000000000000000000000000000000000000000000000000000000000000000000000000000000002000000000000000000000000000000   261021             00000000000000                                                                  000121
1021903727600017200000260206200016896                         0000000040029260921P000000000000000000000000060625102126/40029260000000040029260921P281021000000000800065500001  000000000000000000000000000000000000000000000000000000000000000000000000000000000000000800000000000000000000000000000   261021             00000000000000                                                                  000122
1021903727600017200000260206200016896                         00000000400321123569000000000000000000000000060625102126/400321100000000400321123569251021000000000800065500001  000000000000000000000000000000000000000000000000000000000000000000000000000000000000000800000000000000000000000000000   261021             00000000000000                                                                  000123
1021903727600017200000260206200016896                         00000000400329282313000000000000000000000000060625102126/400329200000000400329282313261021000000002500010403880  000000000000000000000000000000000000000000000000000000000000000000000000000000000000002500000000000000000000000000000   261021             00000000000000                                                                  000124
1021903727600017200000260206200016896                         00000000400334836785000000000000000000000000060625102126/400334800000000400334836785281021000000005000010401831  000000000000000000000000000000000000000000000000000000000000000000000000000000000000005000000000000000000000000000000   261021             00000000000000                                                                  000125
1021903727600017200000260206200016896                         00000000400339943520000000000000000000000000060625102126/400339900000000400339943520281021000000001500010403880  000000000000000000000000000000000000000000000000000000000000000000000000000000000000001500000000000000000000000000000   261021             00000000000000                                                                  000126
1021903727600017200000260206200016896                         0000000040034868757P000000000000000000000000060625102126/40034860000000040034868757P281021000000001990065500001  000000000000000000000000000000000000000000000000000000000000000000000000000000000000001990000000000000000000000000000   261021             00000000000000                                                                  000127
1021903727600017200000260206200016896                         00000000400358224519000000000000000000000000060625102126/400358200000000400358224519281021000000000800065500001  000000000000000000000000000000000000000000000000000000000000000000000000000000000000000800000000000000000000000000000   261021             00000000000000                                                                  000128
1021903727600017200000260206200016896                         00000000400360221004000000000000000000000000060625102126/400360200000000400360221004281021000000000800065500001  000000000000000000000000000000000000000000000000000000000000000000000000000000000000000800000000000000000000000000000   261021             00000000000000                                                                  000129
1021903727600017200000260206200016896                         00000000400369643998000000000000000000000000060625102126/400369600000000400369643998281021000000005000075604327  000000000000000000000000000000000000000000000000000000000000000000000000000000000000005000000000000000000000000000000   261021             00000000000000                                                                  000130
1021903727600017200000260206200016896                         00000000400373476591000000000000000000000000060625102126/400373400000000400373476591251021000000000800065500001  000000000000000000000000000000000000000000000000000000000000000000000000000000000000000800000000000000000000000000000   261021             00000000000000                                                                  000131
1021903727600017200000260206200016896                         00000000400379280516000000000000000000000000060625102126/400379200000000400379280516281021000000006000075604327  000000000000000000000000000000000000000000000000000000000000000000000000000000000000006000000000000000000000000000000   261021             00000000000000                                                                  000132
1021903727600017200000260206200016896                         00000000400398085457000000000000000000000000060625102126/400398000000000400398085457281021000000000800065500001  000000000000000000000000000000000000000000000000000000000000000000000000000000000000000800000000000000000000000000000   261021             00000000000000                                                                  000133
1021903727600017200000260206200016896                         00000000400417668876000000000000000000000000060625102126/400417600000000400417668876241021000000000800065500001  000000000000000000000000000000000000000000000000000000000000000000000000000000000000000800000000000000000000000000000   261021             00000000000000                                                                  000134
1021903727600017200000260206200016896                         00000000400421925859000000000000000000000000060625102126/400421900000000400421925859241021000000000800065500001  000000000000000000000000000000000000000000000000000000000000000000000000000000000000000800000000000000000000000000000   261021             00000000000000                                                                  000135
1021903727600017200000260206200016896                         00000000400424868678000000000000000000000000060625102126/400424800000000400424868678261021000000002000023701931  000000000000000000000000000000000000000000000000000000000000000000000000000000000000002000000000000000000000000000000   261021             00000000000000                                                                  000136
1021903727600017200000260206200016896                         00000000400436626920000000000000000000000000060625102126/400436600000000400436626920281021000000010000021200001  000000000000000000000000000000000000000000000000000000000000000000000000000000000000010000000000000000000000000000000   261021             00000000000000                                                                  000137
1021903727600017200000260206200016896                         00000000400451284556000000000000000000000000060625102126/400451200000000400451284556281021000000003000065500001  000000000000000000000000000000000000000000000000000000000000000000000000000000000000003000000000000000000000000000000   261021             00000000000000                                                                  000138
1021903727600017200000260206200016896                         0000000040045674668P000000000000000000000000060625102126/40045670000000040045674668P241021000000000800065500001  000000000000000000000000000000000000000000000000000000000000000000000000000000000000000800000000000000000000000000000   261021             00000000000000                                                                  000139
1021903727600017200000260206200016896                         00000000400492851430000000000000000000000000060625102126/400492800000000400492851430281021000000000800065500001  000000000000000000000000000000000000000000000000000000000000000000000000000000000000000800000000000000000000000000000   261021             00000000000000                                                                  000140
1021903727600017200000260206200016896                         00000000400494331582000000000000000000000000060625102126/400494300000000400494331582251021000000000800065500001  000000000000000000000000000000000000000000000000000000000000000000000000000000000000000800000000000000000000000000000   261021             00000000000000                                                                  000141
1021903727600017200000260206200016896                         00000000400504660997000000000000000000000000060625102126/400504600000000400504660997251021000000000800065500001  000000000000000000000000000000000000000000000000000000000000000000000000000000000000000800000000000000000000000000000   261021             00000000000000                                                                  000142
1021903727600017200000260206200016896                         00000000400505351165000000000000000000000000060625102126/400505300000000400505351165261021000000003750010403880  000000000000000000000000000000000000000000000000000000000000000000000000000000000000003750000000000000000000000000000   261021             00000000000000                                                                  000143
1021903727600017200000260206200016896                         00000000400506729374000000000000000000000000060625102126/400506700000000400506729374281021000000001000075604327  000000000000000000000000000000000000000000000000000000000000000000000000000000000000001000000000000000000000000000000   261021             00000000000000                                                                  000144
1021903727600017200000260206200016896                         00000000400511394895000000000000000000000000060625102126/400511300000000400511394895251021000000000800065500001  000000000000000000000000000000000000000000000000000000000000000000000000000000000000000800000000000000000000000000000   261021             00000000000000                                                                  000145
1021903727600017200000260206200016896                         00000000400526712567000000000000000000000000060625102126/400526700000000400526712567241021000000000800065500001  000000000000000000000000000000000000000000000000000000000000000000000000000000000000000800000000000000000000000000000   261021             00000000000000                                                                  000146
1021903727600017200000260206200016896                         00000000400532633849000000000000000000000000060625102126/400532600000000400532633849281021000000008000063300001  000000000000000000000000000000000000000000000000000000000000000000000000000000000000008000000000000000000000000000000   261021             00000000000000                                                                  000147
1021903727600017200000260206200016896                         00000000400552247171000000000000000000000000060625102126/400552200000000400552247171281021000000003000003304048  000000000000000000000000000000000000000000000000000000000000000000000000000000000000003000000000000000000000000000000   261021             00000000000000                                                                  000148
1021903727600017200000260206200016896                         00000000400554769191000000000000000000000000060625102126/400554700000000400554769191281021000000000800065500001  000000000000000000000000000000000000000000000000000000000000000000000000000000000000000800000000000000000000000000000   261021             00000000000000                                                                  000149
1021903727600017200000260206200016896                         00000000400570089400000000000000000000000000060625102126/400570000000000400570089400281021000000000800065500001  000000000000000000000000000000000000000000000000000000000000000000000000000000000000000800000000000000000000000000000   261021             00000000000000                                                                  000150
1021903727600017200000260206200016896                         00000000400581189997000000000000000000000000060625102126/400581100000000400581189997261021000000000810075600259  000000000000000000000000000000000000000000000000000000000000000000000000000000000000000810000000000000000000000000000   261021             00000000000000                                                                  000151
1021903727600017200000260206200016896                         00000000400619495728000000000000000000000000060625102126/400619400000000400619495728281021000000000800065500001  000000000000000000000000000000000000000000000000000000000000000000000000000000000000000800000000000000000000000000000   261021             00000000000000                                                                  000152
1021903727600017200000260206200016896                         0000000040062943476P000000000000000000000000060625102126/40062940000000040062943476P241021000000005000010400422  000000000000000000000000000000000000000000000000000000000000000000000000000000000000005000000000000000000000000000000   261021             00000000000000                                                                  000153
1021903727600017200000260206200016896                         00000000400647253985000000000000000000000000060625102126/400647200000000400647253985281021000000012000010401825  000000000000000000000000000000000000000000000000000000000000000000000000000000000000012000000000000000000000000000000   261021             00000000000000                                                                  000154
1021903727600017200000260206200016896                         00000000400655788235000000000000000000000000060625102126/400655700000000400655788235281021000000000800065500001  000000000000000000000000000000000000000000000000000000000000000000000000000000000000000800000000000000000000000000000   261021             00000000000000                                                                  000155
1021903727600017200000260206200016896                         00000000400657239670000000000000000000000000060625102126/400657200000000400657239670261021000000010530075601396  000000000000000000000000000000000000000000000000000000000000000000000000000000000000010530000000000000000000000000000   261021             00000000000000                                                                  000156
1021903727600017200000260206200016896                         00000000400661832092000000000000000000000000060625102126/400661800000000400661832092251021000000000800065500001  000000000000000000000000000000000000000000000000000000000000000000000000000000000000000800000000000000000000000000000   261021             00000000000000                                                                  000157
1021903727600017200000260206200016896                         00000000400662101679000000000000000000000000060625102126/400662100000000400662101679281021000000002500010403880  000000000000000000000000000000000000000000000000000000000000000000000000000000000000002500000000000000000000000000000   261021             00000000000000                                                                  000158
1021903727600017200000260206200016896                         0000000040066711860P000000000000000000000000060625102126/40066710000000040066711860P281021000000000800065500001  000000000000000000000000000000000000000000000000000000000000000000000000000000000000000800000000000000000000000000000   261021             00000000000000                                                                  000159
1021903727600017200000260206200016896                         0000000040066817211P000000000000000000000000060625102126/40066810000000040066817211P241021000000000800065500001  000000000000000000000000000000000000000000000000000000000000000000000000000000000000000800000000000000000000000000000   261021             00000000000000                                                                  000160
1021903727600017200000260206200016896                         00000000400669230628000000000000000000000000060625102126/400669200000000400669230628281021000000005000010402778  000000000000000000000000000000000000000000000000000000000000000000000000000000000000005000000000000000000000000000000   261021             00000000000000                                                                  000161
1021903727600017200000260206200016896                         00000000400672920635000000000000000000000000060625102126/400672900000000400672920635281021000000002000010403161  000000000000000000000000000000000000000000000000000000000000000000000000000000000000002000000000000000000000000000000   261021             00000000000000                                                                  000162
1021903727600017200000260206200016896                         00000000400682063684000000000000000000000000060625102126/400682000000000400682063684281021000000001500008501071  000000000000000000000000000000000000000000000000000000000000000000000000000000000000001500000000000000000000000000000   261021             00000000000000                                                                  000163
1021903727600017200000260206200016896                         00000000400686028581000000000000000000000000060625102126/400686000000000400686028581281021000000000800010403189  000000000000000000000000000000000000000000000000000000000000000000000000000000000000000800000000000000000000000000000   261021             00000000000000                                                                  000164
1021903727600017200000260206200016896                         00000000400689494052000000000000000000000000060625102126/400689400000000400689494052281021000000006550075604327  000000000000000000000000000000000000000000000000000000000000000000000000000000000000006550000000000000000000000000000   261021             00000000000000                                                                  000165
1021903727600017200000260206200016896                         00000000400704592791000000000000000000000000060625102126/400704500000000400704592791281021000000010510010400169  000000000000000000000000000000000000000000000000000000000000000000000000000000000000010510000000000000000000000000000   261021             00000000000000                                                                  000166
1021903727600017200000260206200016896                         00000000400717768368000000000000000000000000060625102126/400717700000000400717768368251021000000000800065500001  000000000000000000000000000000000000000000000000000000000000000000000000000000000000000800000000000000000000000000000   261021             00000000000000                                                                  000167
1021903727600017200000260206200016896                         00000000400718655850000000000000000000000000060625102126/400718600000000400718655850281021000000005000000101694  000000000000000000000000000000000000000000000000000000000000000000000000000000000000005000000000000000000000000000000   261021             00000000000000                                                                  000168
1021903727600017200000260206200016896                         00000000400723014901000000000000000000000000060625102126/400723000000000400723014901281021000000002500010403880  000000000000000000000000000000000000000000000000000000000000000000000000000000000000002500000000000000000000000000000   261021             00000000000000                                                                  000169
1021903727600017200000260206200016896                         0000000040075692315P000000000000000000000000060625102126/40075690000000040075692315P281021000000000800075604327  000000000000000000000000000000000000000000000000000000000000000000000000000000000000000800000000000000000000000000000   261021             00000000000000                                                                  000170
1021903727600017200000260206200016896                         00000000400758447584000000000000000000000000060625102126/400758400000000400758447584281021000000009560010400721  000000000000000000000000000000000000000000000000000000000000000000000000000000000000009560000000000000000000000000000   261021             00000000000000                                                                  000171
1021903727600017200000260206200016896                         00000000400771428831000000000000000000000000060625102126/400771400000000400771428831281021000000000800065500001  000000000000000000000000000000000000000000000000000000000000000000000000000000000000000800000000000000000000000000000   261021             00000000000000                                                                  000172
1021903727600017200000260206200016896                         00000000400777693200000000000000000000000000060625102126/400777600000000400777693200251021000000000800065500001  000000000000000000000000000000000000000000000000000000000000000000000000000000000000000800000000000000000000000000000   261021             00000000000000                                                                  000173
1021903727600017200000260206200016896                         00000000400782788848000000000000000000000000060625102126/400782700000000400782788848251021000000000800065500001  000000000000000000000000000000000000000000000000000000000000000000000000000000000000000800000000000000000000000000000   261021             00000000000000                                                                  000174
1021903727600017200000260206200016896                         00000000400783321889000000000000000000000000060625102126/400783300000000400783321889261021000000000820075600259  000000000000000000000000000000000000000000000000000000000000000000000000000000000000000820000000000000000000000000000   261021             00000000000000                                                                  000175
1021903727600017200000260206200016896                         00000000400802728243000000000000000000000000060625102126/400802700000000400802728243281021000000001500010403880  000000000000000000000000000000000000000000000000000000000000000000000000000000000000001500000000000000000000000000000   261021             00000000000000                                                                  000176
1021903727600017200000260206200016896                         00000000400810951490000000000000000000000000060625102126/400810900000000400810951490251021000000005000000101694  000000000000000000000000000000000000000000000000000000000000000000000000000000000000005000000000000000000000000000000   261021             00000000000000                                                                  000177
1021903727600017200000260206200016896                         00000000400811564911000000000000000000000000060625102126/400811500000000400811564911281021000000000800065500001  000000000000000000000000000000000000000000000000000000000000000000000000000000000000000800000000000000000000000000000   261021             00000000000000                                                                  000178
1021903727600017200000260206200016896                         00000000400848801131000000000000000000000000060625102126/400848800000000400848801131261021000000001500010403880  000000000000000000000000000000000000000000000000000000000000000000000000000000000000001500000000000000000000000000000   261021             00000000000000                                                                  000179
1021903727600017200000260206200016896                         00000000400862825213000000000000000000000000060625102126/400862800000000400862825213281021000000000800065500001  000000000000000000000000000000000000000000000000000000000000000000000000000000000000000800000000000000000000000000000   261021             00000000000000                                                                  000180
1021903727600017200000260206200016896                         00000000400872714304000000000000000000000000060625102126/400872700000000400872714304281021000000000800065500001  000000000000000000000000000000000000000000000000000000000000000000000000000000000000000800000000000000000000000000000   261021             00000000000000                                                                  000181
1021903727600017200000260206200016896                         0000000040089466405P000000000000000000000000060625102126/40089460000000040089466405P281021000000001600023702151  000000000000000000000000000000000000000000000000000000000000000000000000000000000000001600000000000000000000000000000   261021             00000000000000                                                                  000182
1021903727600017200000260206200016896                         00000000400896945072000000000000000000000000060625102126/400896900000000400896945072281021000000003000010403584  000000000000000000000000000000000000000000000000000000000000000000000000000000000000003000000000000000000000000000000   261021             00000000000000                                                                  000183
1021903727600017200000260206200016896                         00000000400903315357000000000000000000000000060625102126/400903300000000400903315357281021000000000800065500001  000000000000000000000000000000000000000000000000000000000000000000000000000000000000000800000000000000000000000000000   261021             00000000000000                                                                  000184
1021903727600017200000260206200016896                         00000000400908759695000000000000000000000000060625102126/400908700000000400908759695281021000000010860010401070  000000000000000000000000000000000000000000000000000000000000000000000000000000000000010860000000000000000000000000000   261021             00000000000000                                                                  000185
1021903727600017200000260206200016896                         00000000400908973271000000000000000000000000060625102126/400908900000000400908973271261021000000001800075604327  000000000000000000000000000000000000000000000000000000000000000000000000000000000000001800000000000000000000000000000   261021             00000000000000                                                                  000186
1021903727600017200000260206200016896                         00000000400912560534000000000000000000000000060625102126/400912500000000400912560534281021000000005000000100922  000000000000000000000000000000000000000000000000000000000000000000000000000000000000005000000000000000000000000000000   261021             00000000000000                                                                  000187
1021903727600017200000260206200016896                         00000000400925033835000000000000000000000000060625102126/400925000000000400925033835281021000000000800065500001  000000000000000000000000000000000000000000000000000000000000000000000000000000000000000800000000000000000000000000000   261021             00000000000000                                                                  000188
1021903727600017200000260206200016896                         00000000400938479166000000000000000000000000060625102126/400938400000000400938479166261021000000008000010404354  000000000000000000000000000000000000000000000000000000000000000000000000000000000000008000000000000000000000000000000   261021             00000000000000                                                                  000189
1021903727600017200000260206200016896                         00000000400953266705000000000000000000000000060625102126/400953200000000400953266705281021000000002000010404692  000000000000000000000000000000000000000000000000000000000000000000000000000000000000002000000000000000000000000000000   261021             00000000000000                                                                  000190
1021903727600017200000260206200016896                         00000000400955867900000000000000000000000000060625102126/400955800000000400955867900251021000000000800065500001  000000000000000000000000000000000000000000000000000000000000000000000000000000000000000800000000000000000000000000000   261021             00000000000000                                                                  000191
1021903727600017200000260206200016896                         00000000400988303654000000000000000000000000060625102126/400988300000000400988303654281021000000000800065500001  000000000000000000000000000000000000000000000000000000000000000000000000000000000000000800000000000000000000000000000   261021             00000000000000                                                                  000192
1021903727600017200000260206200016896                         00000000200156229064000000000000000000000000061025102126/200156200000000200156229064240821000000000049923700000  000000000000000000000000000000000000000000000000000000000000000000000000000000000000000000000000000000000000000000000                          1600000000                                                                  000193
1021903727600017200000260206200016896                         00000000200210496928000000000000000000000000061025102126/200210400000000200210496928250821000000000049923700000  000000000000000000000000000000000000000000000000000000000000000000000000000000000000000000000000000000000000000000000                          1600000000                                                                  000194
1021903727600017200000260206200016896                         00000000200223749248000000000000000000000000061025102126/200223700000000200223749248240821000000000967623700000  000000000000000000000000000000000000000000000000000000000000000000000000000000000000000000000000000000000000000000000                          1600000000                                                                  000195
1021903727600017200000260206200016896                         00000000200299962811000000000000000000000000061025102126/200299900000000200299962811230821000000000198623700000  000000000000000000000000000000000000000000000000000000000000000000000000000000000000000000000000000000000000000000000                          1600000000                                                                  000196
1021903727600017200000260206200016896                         00000000200308902126000000000000000000000000061025102126/200308900000000200308902126240821000000000500023700000  000000000000000000000000000000000000000000000000000000000000000000000000000000000000000000000000000000000000000000000                          1600000000                                                                  000197
1021903727600017200000260206200016896                         00000000200347509288000000000000000000000000061025102126/200347500000000200347509288240821000000000510023700000  000000000000000000000000000000000000000000000000000000000000000000000000000000000000000000000000000000000000000000000                          1600000000                                                                  000198
1021903727600017200000260206200016896                         00000000200421566329000000000000000000000000061025102126/200421500000000200421566329230821000000000319923700000  000000000000000000000000000000000000000000000000000000000000000000000000000000000000000000000000000000000000000000000                          1600000000                                                                  000199
1021903727600017200000260206200016896                         00000000200452947398000000000000000000000000061025102126/200452900000000200452947398240821000000000197423700000  000000000000000000000000000000000000000000000000000000000000000000000000000000000000000000000000000000000000000000000                          1600000000                                                                  000200
1021903727600017200000260206200016896                         00000000200528719756000000000000000000000000061025102126/200528700000000200528719756230821000000000219923700000  000000000000000000000000000000000000000000000000000000000000000000000000000000000000000000000000000000000000000000000                          1600000000                                                                  000201
1021903727600017200000260206200016896                         00000000200593078334000000000000000000000000061025102126/200593000000000200593078334250821000000002720023700000  000000000000000000000000000000000000000000000000000000000000000000000000000000000000000000000000000000000000000000000                          1600000000                                                                  000202
1021903727600017200000260206200016896                         00000000200690168631000000000000000000000000061025102126/200690100000000200690168631240821000000000069923700000  000000000000000000000000000000000000000000000000000000000000000000000000000000000000000000000000000000000000000000000                          1600000000                                                                  000203
1021903727600017200000260206200016896                         00000000200781674971000000000000000000000000061025102126/200781600000000200781674971230821000000000975023700000  000000000000000000000000000000000000000000000000000000000000000000000000000000000000000000000000000000000000000000000                          1600000000                                                                  000204
1021903727600017200000260206200016896                         00000000200873507311000000000000000000000000061025102126/200873500000000200873507311230821000000000049923700000  000000000000000000000000000000000000000000000000000000000000000000000000000000000000000000000000000000000000000000000                          1600000000                                                                  000205
1021903727600017200000260206200016896                         00000000200914536534000000000000000000000000061025102126/200914500000000200914536534240821000000000269923700000  000000000000000000000000000000000000000000000000000000000000000000000000000000000000000000000000000000000000000000000                          1600000000                                                                  000206
1021903727600017200000260206200016896                         0000000020099444189P000000000000000000000000061025102126/20099440000000020099444189P230821000000000219923700000  000000000000000000000000000000000000000000000000000000000000000000000000000000000000000000000000000000000000000000000                          1600000000                                                                  000207
1021903727600017200000260206200016896                         00000000400000508213000000000000000000000000061025102126/400000500000000400000508213230821000000002000023700000  000000000000000000000000000000000000000000000000000000000000000000000000000000000000000000000000000000000000000000000                          1600000000                                                                  000208
1021903727600017200000260206200016896                         00000000400012916538000000000000000000000000061025102126/400012900000000400012916538230821000000001200023700000  000000000000000000000000000000000000000000000000000000000000000000000000000000000000000000000000000000000000000000000                          1600000000                                                                  000209
1021903727600017200000260206200016896                         00000000400069998980000000000000000000000000061025102126/400069900000000400069998980250821000000000800023700000  000000000000000000000000000000000000000000000000000000000000000000000000000000000000000000000000000000000000000000000                          1600000000                                                                  000210
1021903727600017200000260206200016896                         00000000400117757109000000000000000000000000061025102126/400117700000000400117757109230821000000000800023700000  000000000000000000000000000000000000000000000000000000000000000000000000000000000000000000000000000000000000000000000                          1600000000                                                                  000211
1021903727600017200000260206200016896                         00000000400126244254000000000000000000000000061025102126/400126200000000400126244254240821000000000800023700000  000000000000000000000000000000000000000000000000000000000000000000000000000000000000000000000000000000000000000000000                          1600000000                                                                  000212
1021903727600017200000260206200016896                         00000000400132682816000000000000000000000000061025102126/400132600000000400132682816230821000000001370023700000  000000000000000000000000000000000000000000000000000000000000000000000000000000000000000000000000000000000000000000000                          1600000000                                                                  000213
1021903727600017200000260206200016896                         0000000040015234268P000000000000000000000000061025102126/40015230000000040015234268P240821000000002000023700000  000000000000000000000000000000000000000000000000000000000000000000000000000000000000000000000000000000000000000000000                          1600000000                                                                  000214
1021903727600017200000260206200016896                         00000000400155116494000000000000000000000000061025102126/400155100000000400155116494240821000000001000023700000  000000000000000000000000000000000000000000000000000000000000000000000000000000000000000000000000000000000000000000000                          1600000000                                                                  000215
1021903727600017200000260206200016896                         00000000400165422658000000000000000000000000061025102126/400165400000000400165422658230821000000001300023700000  000000000000000000000000000000000000000000000000000000000000000000000000000000000000000000000000000000000000000000000                          1600000000                                                                  000216
1021903727600017200000260206200016896                         00000000400170758818000000000000000000000000061025102126/400170700000000400170758818230821000000002000023700000  000000000000000000000000000000000000000000000000000000000000000000000000000000000000000000000000000000000000000000000                          1600000000                                                                  000217
1021903727600017200000260206200016896                         00000000400181695303000000000000000000000000061025102126/400181600000000400181695303230821000000000800023700000  000000000000000000000000000000000000000000000000000000000000000000000000000000000000000000000000000000000000000000000                          1600000000                                                                  000218
1021903727600017200000260206200016896                         00000000400182391235000000000000000000000000061025102126/400182300000000400182391235240821000000009000023700000  000000000000000000000000000000000000000000000000000000000000000000000000000000000000000000000000000000000000000000000                          1600000000                                                                  000219
1021903727600017200000260206200016896                         00000000400182959851000000000000000000000000061025102126/400182900000000400182959851230821000000000800023700000  000000000000000000000000000000000000000000000000000000000000000000000000000000000000000000000000000000000000000000000                          1600000000                                                                  000220
1021903727600017200000260206200016896                         00000000400183274003000000000000000000000000061025102126/400183200000000400183274003230821000000002000023700000  000000000000000000000000000000000000000000000000000000000000000000000000000000000000000000000000000000000000000000000                          1600000000                                                                  000221
1021903727600017200000260206200016896                         00000000400188507731000000000000000000000000061025102126/400188500000000400188507731240821000000003000023700000  000000000000000000000000000000000000000000000000000000000000000000000000000000000000000000000000000000000000000000000                          1600000000                                                                  000222
1021903727600017200000260206200016896                         00000000400191021661000000000000000000000000061025102126/400191000000000400191021661240821000000002000023700000  000000000000000000000000000000000000000000000000000000000000000000000000000000000000000000000000000000000000000000000                          1600000000                                                                  000223
1021903727600017200000260206200016896                         00000000400192695291000000000000000000000000061025102126/400192600000000400192695291230821000000002500023700000  000000000000000000000000000000000000000000000000000000000000000000000000000000000000000000000000000000000000000000000                          1600000000                                                                  000224
1021903727600017200000260206200016896                         00000000400195952201000000000000000000000000061025102126/400195900000000400195952201250821000000000800023700000  000000000000000000000000000000000000000000000000000000000000000000000000000000000000000000000000000000000000000000000                          1600000000                                                                  000225
1021903727600017200000260206200016896                         00000000400200156435000000000000000000000000061025102126/400200100000000400200156435230821000000000960023700000  000000000000000000000000000000000000000000000000000000000000000000000000000000000000000000000000000000000000000000000                          1600000000                                                                  000226
1021903727600017200000260206200016896                         00000000400201745213000000000000000000000000061025102126/400201700000000400201745213240821000000003000023700000  000000000000000000000000000000000000000000000000000000000000000000000000000000000000000000000000000000000000000000000                          1600000000                                                                  000227
1021903727600017200000260206200016896                         00000000400201906616000000000000000000000000061025102126/400201900000000400201906616230821000000002000023700000  000000000000000000000000000000000000000000000000000000000000000000000000000000000000000000000000000000000000000000000                          1600000000                                                                  000228
1021903727600017200000260206200016896                         00000000400204160941000000000000000000000000061025102126/400204100000000400204160941250821000000000800023700000  000000000000000000000000000000000000000000000000000000000000000000000000000000000000000000000000000000000000000000000                          1600000000                                                                  000229
1021903727600017200000260206200016896                         00000000400216683621000000000000000000000000061025102126/400216600000000400216683621230821000000004000023700000  000000000000000000000000000000000000000000000000000000000000000000000000000000000000000000000000000000000000000000000                          1600000000                                                                  000230
1021903727600017200000260206200016896                         00000000400216912833000000000000000000000000061025102126/400216900000000400216912833240821000000000800023700000  000000000000000000000000000000000000000000000000000000000000000000000000000000000000000000000000000000000000000000000                          1600000000                                                                  000231
1021903727600017200000260206200016896                         00000000400223506506000000000000000000000000061025102126/400223500000000400223506506230821000000000800023700000  000000000000000000000000000000000000000000000000000000000000000000000000000000000000000000000000000000000000000000000                          1600000000                                                                  000232
1021903727600017200000260206200016896                         00000000400223856159000000000000000000000000061025102126/400223800000000400223856159230821000000001500023700000  000000000000000000000000000000000000000000000000000000000000000000000000000000000000000000000000000000000000000000000                          1600000000                                                                  000233
1021903727600017200000260206200016896                         00000000400231798036000000000000000000000000061025102126/400231700000000400231798036240821000000000800023700000  000000000000000000000000000000000000000000000000000000000000000000000000000000000000000000000000000000000000000000000                          1600000000                                                                  000234
1021903727600017200000260206200016896                         00000000400239770874000000000000000000000000061025102126/400239700000000400239770874250821000000000800023700000  000000000000000000000000000000000000000000000000000000000000000000000000000000000000000000000000000000000000000000000                          1600000000                                                                  000235
1021903727600017200000260206200016896                         00000000400243104358000000000000000000000000061025102126/400243100000000400243104358240821000000002000023700000  000000000000000000000000000000000000000000000000000000000000000000000000000000000000000000000000000000000000000000000                          1600000000                                                                  000236
1021903727600017200000260206200016896                         00000000400243904346000000000000000000000000061025102126/400243900000000400243904346240821000000002000023700000  000000000000000000000000000000000000000000000000000000000000000000000000000000000000000000000000000000000000000000000                          1600000000                                                                  000237
1021903727600017200000260206200016896                         0000000040025826694P000000000000000000000000061025102126/40025820000000040025826694P240821000000003000023700000  000000000000000000000000000000000000000000000000000000000000000000000000000000000000000000000000000000000000000000000                          1600000000                                                                  000238
1021903727600017200000260206200016896                         0000000040025989314P000000000000000000000000061025102126/40025980000000040025989314P240821000000002250023700000  000000000000000000000000000000000000000000000000000000000000000000000000000000000000000000000000000000000000000000000                          1600000000                                                                  000239
1021903727600017200000260206200016896                         00000000400261631322000000000000000000000000061025102126/400261600000000400261631322230821000000002800023700000  000000000000000000000000000000000000000000000000000000000000000000000000000000000000000000000000000000000000000000000                          1600000000                                                                  000240
1021903727600017200000260206200016896                         00000000400278370840000000000000000000000000061025102126/400278300000000400278370840240821000000008000023700000  000000000000000000000000000000000000000000000000000000000000000000000000000000000000000000000000000000000000000000000                          1600000000                                                                  000241
1021903727600017200000260206200016896                         00000000400279252337000000000000000000000000061025102126/400279200000000400279252337240821000000001500023700000  000000000000000000000000000000000000000000000000000000000000000000000000000000000000000000000000000000000000000000000                          1600000000                                                                  000242
1021903727600017200000260206200016896                         00000000400279366340000000000000000000000000061025102126/400279300000000400279366340240821000000005000023700000  000000000000000000000000000000000000000000000000000000000000000000000000000000000000000000000000000000000000000000000                          1600000000                                                                  000243
1021903727600017200000260206200016896                         00000000400281289337000000000000000000000000061025102126/400281200000000400281289337230821000000000800023700000  000000000000000000000000000000000000000000000000000000000000000000000000000000000000000000000000000000000000000000000                          1600000000                                                                  000244
1021903727600017200000260206200016896                         0000000040028178785P000000000000000000000000061025102126/40028170000000040028178785P240821000000001000023700000  000000000000000000000000000000000000000000000000000000000000000000000000000000000000000000000000000000000000000000000                          1600000000                                                                  000245
1021903727600017200000260206200016896                         00000000400287356249000000000000000000000000061025102126/400287300000000400287356249240821000000000800023700000  000000000000000000000000000000000000000000000000000000000000000000000000000000000000000000000000000000000000000000000                          1600000000                                                                  000246
1021903727600017200000260206200016896                         00000000400289466610000000000000000000000000061025102126/400289400000000400289466610230821000000000800023700000  000000000000000000000000000000000000000000000000000000000000000000000000000000000000000000000000000000000000000000000                          1600000000                                                                  000247
1021903727600017200000260206200016896                         00000000400299774313000000000000000000000000061025102126/400299700000000400299774313240821000000000800023700000  000000000000000000000000000000000000000000000000000000000000000000000000000000000000000000000000000000000000000000000                          1600000000                                                                  000248
