02RETORNO01COBRANCA       00000000000005034448E-PREPAG ADMINISTRADORA DE CAR237BRADESCO       3008210160000000756                                                                                                                                                                                                                                                                          310821         000001
1021903727600017200000260206200016896                         00000000100031190056000000000000000000000000060230082126/100031100000000100031190056310821000000051635223704602  000000000008200000000000000000000000000000000000000000000000000000000000000000000000000000000000000000000000000000000                          0000000000                                                                  000002
1021903727600017200000260206200016896                         00000000100031190315000000000000000000000000060230082126/100031100000000100031190315310821000000000651023704151  000000000008200000000000000000000000000000000000000000000000000000000000000000000000000000000000000000000000000000000                          7600000000                                                                  000003
1021903727600017200000260206200016896                         00000000100031196194000000000000000000000000060230082126/100031100000000100031196194310821000000000098023704144  000000000008200000000000000000000000000000000000000000000000000000000000000000000000000000000000000000000000000000000                          7600000000                                                                  000004
1021903727600017200000260206200016896                         00000000200068524609000000000000000000000000060230082126/200068500000000200068524609310821000000000319923704400  000000000008200000000000000000000000000000000000000000000000000000000000000000000000000000000000000000000000000000000                          7600000000                                                                  000005
1021903727600017200000260206200016896                         00000000200070677137000000000000000000000000060230082126/200070600000000200070677137010921000000006900023704400  000000000008200000000000000000000000000000000000000000000000000000000000000000000000000000000000000000000000000000000                          0000000000                                                                  000006
1021903727600017200000260206200016896                         00000000200173692169000000000000000000000000060230082126/200173600000000200173692169020921000000000500023700320  000000000008200000000000000000000000000000000000000000000000000000000000000000000000000000000000000000000000000000000                          7600000000                                                                  000007
1021903727600017200000260206200016896                         00000000200300033145000000000000000000000000060230082126/200300000000000200300033145010921000000000049923700320  000000000008200000000000000000000000000000000000000000000000000000000000000000000000000000000000000000000000000000000                          7600000000                                                                  000008
1021903727600017200000260206200016896                         0000000020032349736P000000000000000000000000060230082126/20032340000000020032349736P310821000000000600023704144  000000000008200000000000000000000000000000000000000000000000000000000000000000000000000000000000000000000000000000000                          0000000000                                                                  000009
1021903727600017200000260206200016896                         00000000200383111878000000000000000000000000060230082126/200383100000000200383111878010921000000001092323704400  000000000008200000000000000000000000000000000000000000000000000000000000000000000000000000000000000000000000000000000                          0000000000                                                                  000010
1021903727600017200000260206200016896                         00000000200416205350000000000000000000000000060230082126/200416200000000200416205350010921000000000750023704400  000000000008200000000000000000000000000000000000000000000000000000000000000000000000000000000000000000000000000000000                          0000000000                                                                  000011
1021903727600017200000260206200016896                         00000000200495262011000000000000000000000000060230082126/200495200000000200495262011010921000000000425623704400  000000000008200000000000000000000000000000000000000000000000000000000000000000000000000000000000000000000000000000000                          0000000000                                                                  000012
1021903727600017200000260206200016896                         00000000200514659211000000000000000000000000060230082126/200514600000000200514659211010921000000000119923704158  000000000008200000000000000000000000000000000000000000000000000000000000000000000000000000000000000000000000000000000                          0000000000                                                                  000013
1021903727600017200000260206200016896                         00000000200535874317000000000000000000000000060230082126/200535800000000200535874317020921000000000049923704159  000000000008200000000000000000000000000000000000000000000000000000000000000000000000000000000000000000000000000000000                          7600000000                                                                  000014
1021903727600017200000260206200016896                         00000000200547215289000000000000000000000000060230082126/200547200000000200547215289020921000000000500023700153  000000000008200000000000000000000000000000000000000000000000000000000000000000000000000000000000000000000000000000000                          0000000000                                                                  000015
1021903727600017200000260206200016896                         00000000200569142218000000000000000000000000060230082126/200569100000000200569142218010921000000000049923702062  000000000008200000000000000000000000000000000000000000000000000000000000000000000000000000000000000000000000000000000                          0000000000                                                                  000016
1021903727600017200000260206200016896                         00000000200740892697000000000000000000000000060230082126/200740800000000200740892697020921000000001000023704159  000000000008200000000000000000000000000000000000000000000000000000000000000000000000000000000000000000000000000000000                          0000000000                                                                  000017
1021903727600017200000260206200016896                         00000000200759976328000000000000000000000000060230082126/200759900000000200759976328020921000000000500023704422  000000000008200000000000000000000000000000000000000000000000000000000000000000000000000000000000000000000000000000000                          0000000000                                                                  000018
1021903727600017200000260206200016896                         00000000200771266298000000000000000000000000060230082126/200771200000000200771266298020921000000000176323704424  000000000008200000000000000000000000000000000000000000000000000000000000000000000000000000000000000000000000000000000                          0000000000                                                                  000019
1021903727600017200000260206200016896                         00000000200816705875000000000000000000000000060230082126/200816700000000200816705875010921000000000624223704428  000000000008200000000000000000000000000000000000000000000000000000000000000000000000000000000000000000000000000000000                          0000000000                                                                  000020
1021903727600017200000260206200016896                         00000000200851339180000000000000000000000000060230082126/200851300000000200851339180010921000000000220223704424  000000000008200000000000000000000000000000000000000000000000000000000000000000000000000000000000000000000000000000000                          0000000000                                                                  000021
1021903727600017200000260206200016896                         00000000200942328378000000000000000000000000060230082126/200942300000000200942328378020921000000000109923704426  000000000008200000000000000000000000000000000000000000000000000000000000000000000000000000000000000000000000000000000                          0000000000                                                                  000022
1021903727600017200000260206200016896                         00000000200994350843000000000000000000000000060230082126/200994300000000200994350843010921000000000500023704436  000000000008200000000000000000000000000000000000000000000000000000000000000000000000000000000000000000000000000000000                          0000000000                                                                  000023
1021903727600017200000260206200016896                         00000000400001925306000000000000000000000000060230082126/400001900000000400001925306020921000000001500023700321  000000000008200000000000000000000000000000000000000000000000000000000000000000000000000000000000000000000000000000000                          0000000000                                                                  000024
1021903727600017200000260206200016896                         0000000040000695536P000000000000000000000000060230082126/40000690000000040000695536P020921000000004000023704159  000000000008200000000000000000000000000000000000000000000000000000000000000000000000000000000000000000000000000000000                          0000000000                                                                  000025
1021903727600017200000260206200016896                         00000000400016863951000000000000000000000000060230082126/400016800000000400016863951020921000000000800023704159  000000000008200000000000000000000000000000000000000000000000000000000000000000000000000000000000000000000000000000000                          0000000000                                                                  000026
1021903727600017200000260206200016896                         00000000400018176838000000000000000000000000060230082126/400018100000000400018176838020921000000000800023704422  000000000008200000000000000000000000000000000000000000000000000000000000000000000000000000000000000000000000000000000                          0000000000                                                                  000027
1021903727600017200000260206200016896                         00000000400026721136000000000000000000000000060230082126/400026700000000400026721136020921000000002000023704602  000000000008200000000000000000000000000000000000000000000000000000000000000000000000000000000000000000000000000000000                          0000000000                                                                  000028
1021903727600017200000260206200016896                         00000000400039962116000000000000000000000000060230082126/400039900000000400039962116310821000000001000023704452  000000000008200000000000000000000000000000000000000000000000000000000000000000000000000000000000000000000000000000000                          7600000000                                                                  000029
1021903727600017200000260206200016896                         00000000400055160615000000000000000000000000060230082126/400055100000000400055160615310821000000002500023704452  000000000008200000000000000000000000000000000000000000000000000000000000000000000000000000000000000000000000000000000                          0000000000                                                                  000030
1021903727600017200000260206200016896                         00000000400063582545000000000000000000000000060230082126/400063500000000400063582545310821000000000800023704452  000000000008200000000000000000000000000000000000000000000000000000000000000000000000000000000000000000000000000000000                          0000000000                                                                  000031
1021903727600017200000260206200016896                         00000000400103726774000000000000000000000000060230082126/400103700000000400103726774020921000000005000023704452  000000000008200000000000000000000000000000000000000000000000000000000000000000000000000000000000000000000000000000000                          0000000000                                                                  000032
1021903727600017200000260206200016896                         00000000400106783531000000000000000000000000060230082126/400106700000000400106783531020921000000000800023700435  000000000008200000000000000000000000000000000000000000000000000000000000000000000000000000000000000000000000000000000                          0000000000                                                                  000033
1021903727600017200000260206200016896                         0000000040010790426P000000000000000000000000060230082126/40010790000000040010790426P310821000000003750023704157  000000000008200000000000000000000000000000000000000000000000000000000000000000000000000000000000000000000000000000000                          0000000000                                                                  000034
1021903727600017200000260206200016896                         00000000400109774576000000000000000000000000060230082126/400109700000000400109774576020921000000000800023704159  000000000008200000000000000000000000000000000000000000000000000000000000000000000000000000000000000000000000000000000                          0000000000                                                                  000035
1021903727600017200000260206200016896                         00000000400111520263000000000000000000000000060230082126/400111500000000400111520263020921000000003000023704426  000000000008200000000000000000000000000000000000000000000000000000000000000000000000000000000000000000000000000000000                          0000000000                                                                  000036
1021903727600017200000260206200016896                         00000000400112386986000000000000000000000000060230082126/400112300000000400112386986020921000000012000023704147  000000000008200000000000000000000000000000000000000000000000000000000000000000000000000000000000000000000000000000000                          7600000000                                                                  000037
1021903727600017200000260206200016896                         0000000040011305894P000000000000000000000000060230082126/40011300000000040011305894P020921000000002000023704424  000000000008200000000000000000000000000000000000000000000000000000000000000000000000000000000000000000000000000000000                          0000000000                                                                  000038
1021903727600017200000260206200016896                         00000000400114150831000000000000000000000000060230082126/400114100000000400114150831020921000000002000023704452  000000000008200000000000000000000000000000000000000000000000000000000000000000000000000000000000000000000000000000000                          0000000000                                                                  000039
1021903727600017200000260206200016896                         00000000400114852410000000000000000000000000060230082126/400114800000000400114852410310821000000000810023704602  000000000008200000000000000000000000000000000000000000000000000000000000000000000000000000000000000000000000000000000                          7600000000                                                                  000040
1021903727600017200000260206200016896                         00000000400119037898000000000000000000000000060230082126/400119000000000400119037898020921000000000800023704422  000000000008200000000000000000000000000000000000000000000000000000000000000000000000000000000000000000000000000000000                          0000000000                                                                  000041
1021903727600017200000260206200016896                         00000000400120428175000000000000000000000000060230082126/400120400000000400120428175020921000000000800023704151  000000000008200000000000000000000000000000000000000000000000000000000000000000000000000000000000000000000000000000000                          0000000000                                                                  000042
1021903727600017200000260206200016896                         00000000400120469823000000000000000000000000060230082126/400120400000000400120469823020921000000006730023704452  000000000008200000000000000000000000000000000000000000000000000000000000000000000000000000000000000000000000000000000                          0000000000                                                                  000043
1021903727600017200000260206200016896                         00000000400126337848000000000000000000000000060230082126/400126300000000400126337848020921000000002000023700320  000000000008200000000000000000000000000000000000000000000000000000000000000000000000000000000000000000000000000000000                          0000000000                                                                  000044
1021903727600017200000260206200016896                         0000000040012658473P000000000000000000000000060230082126/40012650000000040012658473P020921000000000800023700153  000000000008200000000000000000000000000000000000000000000000000000000000000000000000000000000000000000000000000000000                          0000000000                                                                  000045
1021903727600017200000260206200016896                         00000000400127975686000000000000000000000000060230082126/400127900000000400127975686020921000000002360023704159  000000000008200000000000000000000000000000000000000000000000000000000000000000000000000000000000000000000000000000000                          0000000000                                                                  000046
1021903727600017200000260206200016896                         00000000400131586546000000000000000000000000060230082126/400131500000000400131586546010921000000001000023700405  000000000008200000000000000000000000000000000000000000000000000000000000000000000000000000000000000000000000000000000                          0000000000                                                                  000047
1021903727600017200000260206200016896                         00000000400142053051000000000000000000000000060230082126/400142000000000400142053051020921000000000990023704422  000000000008200000000000000000000000000000000000000000000000000000000000000000000000000000000000000000000000000000000                          0000000000                                                                  000048
1021903727600017200000260206200016896                         00000000400148379064000000000000000000000000060230082126/400148300000000400148379064020921000000001000023704452  000000000008200000000000000000000000000000000000000000000000000000000000000000000000000000000000000000000000000000000                          0000000000                                                                  000049
1021903727600017200000260206200016896                         00000000400160101322000000000000000000000000060230082126/400160100000000400160101322310821000000000800023704143  000000000008200000000000000000000000000000000000000000000000000000000000000000000000000000000000000000000000000000000                          0000000000                                                                  000050
1021903727600017200000260206200016896                         00000000400161248742000000000000000000000000060230082126/400161200000000400161248742020921000000000800023704422  000000000008200000000000000000000000000000000000000000000000000000000000000000000000000000000000000000000000000000000                          0000000000                                                                  000051
1021903727600017200000260206200016896                         00000000400162006904000000000000000000000000060230082126/400162000000000400162006904310821000000003000023704424  000000000008200000000000000000000000000000000000000000000000000000000000000000000000000000000000000000000000000000000                          0000000000                                                                  000052
1021903727600017200000260206200016896                         00000000400170387232000000000000000000000000060230082126/400170300000000400170387232020921000000002500023704422  000000000008200000000000000000000000000000000000000000000000000000000000000000000000000000000000000000000000000000000                          0000000000                                                                  000053
1021903727600017200000260206200016896                         0000000040017249026P000000000000000000000000060230082126/40017240000000040017249026P310821000000000800023704452  000000000008200000000000000000000000000000000000000000000000000000000000000000000000000000000000000000000000000000000                          0000000000                                                                  000054
1021903727600017200000260206200016896                         0000000040017679302P000000000000000000000000060230082126/40017670000000040017679302P010921000000003000023704157  000000000008200000000000000000000000000000000000000000000000000000000000000000000000000000000000000000000000000000000                          0000000000                                                                  000055
1021903727600017200000260206200016896                         00000000400179159747000000000000000000000000060230082126/400179100000000400179159747020921000000000800023704152  000000000008200000000000000000000000000000000000000000000000000000000000000000000000000000000000000000000000000000000                          0000000000                                                                  000056
1021903727600017200000260206200016896                         00000000400182812567000000000000000000000000060230082126/400182800000000400182812567310821000000004000023704159  000000000008200000000000000000000000000000000000000000000000000000000000000000000000000000000000000000000000000000000                          0000000000                                                                  000057
1021903727600017200000260206200016896                         00000000400184344188000000000000000000000000060230082126/400184300000000400184344188020921000000000800023704422  000000000008200000000000000000000000000000000000000000000000000000000000000000000000000000000000000000000000000000000                          0000000000                                                                  000058
1021903727600017200000260206200016896                         00000000400192053249000000000000000000000000060230082126/400192000000000400192053249020921000000011000023704159  000000000008200000000000000000000000000000000000000000000000000000000000000000000000000000000000000000000000000000000                          7600000000                                                                  000059
1021903727600017200000260206200016896                         00000000400192611918000000000000000000000000060230082126/400192600000000400192611918020921000000000800023704422  000000000008200000000000000000000000000000000000000000000000000000000000000000000000000000000000000000000000000000000                          0000000000                                                                  000060
1021903727600017200000260206200016896                         00000000400196718482000000000000000000000000060230082126/400196700000000400196718482010921000000030000023700321  000000000008200000000000000000000000000000000000000000000000000000000000000000000000000000000000000000000000000000000                          0000000000                                                                  000061
1021903727600017200000260206200016896                         00000000400209564501000000000000000000000000060230082126/400209500000000400209564501020921000000005500023704422  000000000008200000000000000000000000000000000000000000000000000000000000000000000000000000000000000000000000000000000                          0000000000                                                                  000062
1021903727600017200000260206200016896                         00000000400215307952000000000000000000000000060230082126/400215300000000400215307952310821000000001500023704152  000000000008200000000000000000000000000000000000000000000000000000000000000000000000000000000000000000000000000000000                          0000000000                                                                  000063
1021903727600017200000260206200016896                         00000000400222377826000000000000000000000000060230082126/400222300000000400222377826020921000000000800023704159  000000000008200000000000000000000000000000000000000000000000000000000000000000000000000000000000000000000000000000000                          0000000000                                                                  000064
1021903727600017200000260206200016896                         00000000400222725077000000000000000000000000060230082126/400222700000000400222725077020921000000010000023704452  000000000008200000000000000000000000000000000000000000000000000000000000000000000000000000000000000000000000000000000                          0000000000                                                                  000065
1021903727600017200000260206200016896                         00000000400225644426000000000000000000000000060230082126/400225600000000400225644426020921000000002000023704452  000000000008200000000000000000000000000000000000000000000000000000000000000000000000000000000000000000000000000000000                          0000000000                                                                  000066
1021903727600017200000260206200016896                         00000000400229753394000000000000000000000000060230082126/400229700000000400229753394310821000000002000023704151  000000000008200000000000000000000000000000000000000000000000000000000000000000000000000000000000000000000000000000000                          0000000000                                                                  000067
1021903727600017200000260206200016896                         0000000040023468824P000000000000000000000000060230082126/40023460000000040023468824P020921000000012000023704154  000000000008200000000000000000000000000000000000000000000000000000000000000000000000000000000000000000000000000000000                          0000000000                                                                  000068
1021903727600017200000260206200016896                         00000000400236966921000000000000000000000000060230082126/400236900000000400236966921020921000000001200023704151  000000000008200000000000000000000000000000000000000000000000000000000000000000000000000000000000000000000000000000000                          0000000000                                                                  000069
1021903727600017200000260206200016896                         00000000400237816990000000000000000000000000060230082126/400237800000000400237816990020921000000003220023704143  000000000008200000000000000000000000000000000000000000000000000000000000000000000000000000000000000000000000000000000                          7600000000                                                                  000070
1021903727600017200000260206200016896                         00000000400243130723000000000000000000000000060230082126/400243100000000400243130723310821000000002710023700389  000000000008200000000000000000000000000000000000000000000000000000000000000000000000000000000000000000000000000000000                          0000000000                                                                  000071
1021903727600017200000260206200016896                         00000000400246682425000000000000000000000000060230082126/400246600000000400246682425310821000000012000023704144  000000000008200000000000000000000000000000000000000000000000000000000000000000000000000000000000000000000000000000000                          0000000000                                                                  000072
1021903727600017200000260206200016896                         00000000400254967951000000000000000000000000060230082126/400254900000000400254967951020921000000001000023700320  000000000008200000000000000000000000000000000000000000000000000000000000000000000000000000000000000000000000000000000                          0000000000                                                                  000073
1021903727600017200000260206200016896                         00000000400258639568000000000000000000000000060230082126/400258600000000400258639568010921000000001200023704151  000000000008200000000000000000000000000000000000000000000000000000000000000000000000000000000000000000000000000000000                          0000000000                                                                  000074
1021903727600017200000260206200016896                         00000000400258822273000000000000000000000000060230082126/400258800000000400258822273010921000000001000023704602  000000000008200000000000000000000000000000000000000000000000000000000000000000000000000000000000000000000000000000000                          0000000000                                                                  000075
1021903727600017200000260206200016896                         00000000400259248406000000000000000000000000060230082126/400259200000000400259248406020921000000001010023704151  000000000008200000000000000000000000000000000000000000000000000000000000000000000000000000000000000000000000000000000                          0000000000                                                                  000076
1021903727600017200000260206200016896                         00000000400261181815000000000000000000000000060230082126/400261100000000400261181815020921000000002500023702062  000000000008200000000000000000000000000000000000000000000000000000000000000000000000000000000000000000000000000000000                          0000000000                                                                  000077
1021903727600017200000260206200016896                         00000000400267049838000000000000000000000000060230082126/400267000000000400267049838020921000000000800023700320  000000000008200000000000000000000000000000000000000000000000000000000000000000000000000000000000000000000000000000000                          0000000000                                                                  000078
1021903727600017200000260206200016896                         00000000400267243650000000000000000000000000060230082126/400267200000000400267243650310821000000002000023704151  000000000008200000000000000000000000000000000000000000000000000000000000000000000000000000000000000000000000000000000                          0000000000                                                                  000079
1021903727600017200000260206200016896                         00000000400271756441000000000000000000000000060230082126/400271700000000400271756441020921000000000800023704151  000000000008200000000000000000000000000000000000000000000000000000000000000000000000000000000000000000000000000000000                          0000000000                                                                  000080
1021903727600017200000260206200016896                         00000000400271881548000000000000000000000000060230082126/400271800000000400271881548020921000000003000023704452  000000000008200000000000000000000000000000000000000000000000000000000000000000000000000000000000000000000000000000000                          0000000000                                                                  000081
1021903727600017200000260206200016896                         00000000400274085769000000000000000000000000060230082126/400274000000000400274085769020921000000003500023702062  000000000008200000000000000000000000000000000000000000000000000000000000000000000000000000000000000000000000000000000                          0000000000                                                                  000082
1021903727600017200000260206200016896                         0000000040027617551P000000000000000000000000060230082126/40027610000000040027617551P310821000000000800023704159  000000000008200000000000000000000000000000000000000000000000000000000000000000000000000000000000000000000000000000000                          0000000000                                                                  000083
1021903727600017200000260206200016896                         00000000400282094033000000000000000000000000060230082126/400282000000000400282094033310821000000010000023700153  000000000008200000000000000000000000000000000000000000000000000000000000000000000000000000000000000000000000000000000                          0000000000                                                                  000084
1021903727600017200000260206200016896                         00000000400282647261000000000000000000000000060230082126/400282600000000400282647261020921000000000800023700153  000000000008200000000000000000000000000000000000000000000000000000000000000000000000000000000000000000000000000000000                          0000000000                                                                  000085
1021903727600017200000260206200016896                         00000000400286111358000000000000000000000000060230082126/400286100000000400286111358020921000000011900023704159  000000000008200000000000000000000000000000000000000000000000000000000000000000000000000000000000000000000000000000000                          0000000000                                                                  000086
1021903727600017200000260206200016896                         00000000400286209781000000000000000000000000060230082126/400286200000000400286209781020921000000005000023704157  000000000008200000000000000000000000000000000000000000000000000000000000000000000000000000000000000000000000000000000                          0000000000                                                                  000087
1021903727600017200000260206200016896                         0000000040029127396P000000000000000000000000060230082126/40029120000000040029127396P010921000000005000023704159  000000000008200000000000000000000000000000000000000000000000000000000000000000000000000000000000000000000000000000000                          0000000000                                                                  000088
1021903727600017200000260206200016896                         00000000400300327679000000000000000000000000060230082126/400300300000000400300327679310821000000000800023704452  000000000008200000000000000000000000000000000000000000000000000000000000000000000000000000000000000000000000000000000                          0000000000                                                                  000089
1021903727600017200000260206200016896                         00000000400301204473000000000000000000000000060230082126/400301200000000400301204473020921000000000800023702062  000000000008200000000000000000000000000000000000000000000000000000000000000000000000000000000000000000000000000000000                          0000000000                                                                  000090
1021903727600017200000260206200016896                         00000000400304643206000000000000000000000000060230082126/400304600000000400304643206020921000000003000023700320  000000000008200000000000000000000000000000000000000000000000000000000000000000000000000000000000000000000000000000000                          0000000000                                                                  000091
1021903727600017200000260206200016896                         00000000400308692120000000000000000000000000060230082126/400308600000000400308692120020921000000004000023704274  000000000000000000000000000000000000000000000000000000000000000000000000000000000000000000000000000000000000000000000                          0000000000                                                                  000092
1021903727600017200000260206200016896                         00000000400312752510000000000000000000000000060230082126/400312700000000400312752510010921000000003000023704157  000000000008200000000000000000000000000000000000000000000000000000000000000000000000000000000000000000000000000000000                          0000000000                                                                  000093
1021903727600017200000260206200016896                         00000000400314350312000000000000000000000000060230082126/400314300000000400314350312020921000000001500023704452  000000000008200000000000000000000000000000000000000000000000000000000000000000000000000000000000000000000000000000000                          0000000000                                                                  000094
1021903727600017200000260206200016896                         00000000400319208670000000000000000000000000060230082126/400319200000000400319208670310821000000000800023704452  000000000008200000000000000000000000000000000000000000000000000000000000000000000000000000000000000000000000000000000                          0000000000                                                                  000095
1021903727600017200000260206200016896                         00000000400320073134000000000000000000000000060230082126/400320000000000400320073134310821000000004000023704428  000000000008200000000000000000000000000000000000000000000000000000000000000000000000000000000000000000000000000000000                          0000000000                                                                  000096
1021903727600017200000260206200016896                         00000000400320264789000000000000000000000000060230082126/400320200000000400320264789020921000000000830023702062  000000000008200000000000000000000000000000000000000000000000000000000000000000000000000000000000000000000000000000000                          0000000000                                                                  000097
1021903727600017200000260206200016896                         0000000040034046640P000000000000000000000000060230082126/40034040000000040034046640P020921000000010000023700321  000000000008200000000000000000000000000000000000000000000000000000000000000000000000000000000000000000000000000000000                          0000000000                                                                  000098
1021903727600017200000260206200016896                         00000000400345758581000000000000000000000000060230082126/400345700000000400345758581310821000000002500023704424  000000000008200000000000000000000000000000000000000000000000000000000000000000000000000000000000000000000000000000000                          0000000000                                                                  000099
1021903727600017200000260206200016896                         00000000400347618248000000000000000000000000060230082126/400347600000000400347618248020921000000005000023700435  000000000008200000000000000000000000000000000000000000000000000000000000000000000000000000000000000000000000000000000                          0000000000                                                                  000100
1021903727600017200000260206200016896                         00000000400349052004000000000000000000000000060230082126/400349000000000400349052004020921000000003120023704426  000000000008200000000000000000000000000000000000000000000000000000000000000000000000000000000000000000000000000000000                          0000000000                                                                  000101
1021903727600017200000260206200016896                         00000000400359722709000000000000000000000000060230082126/400359700000000400359722709010921000000012000023704151  000000000008200000000000000000000000000000000000000000000000000000000000000000000000000000000000000000000000000000000                          0000000000                                                                  000102
1021903727600017200000260206200016896                         00000000400362085752000000000000000000000000060230082126/400362000000000400362085752020921000000000810023704274  000000000008200000000000000000000000000000000000000000000000000000000000000000000000000000000000000000000000000000000                          0000000000                                                                  000103
1021903727600017200000260206200016896                         00000000400362474368000000000000000000000000060230082126/400362400000000400362474368310821000000000800023704159  000000000008200000000000000000000000000000000000000000000000000000000000000000000000000000000000000000000000000000000                          0000000000                                                                  000104
1021903727600017200000260206200016896                         00000000400364277969000000000000000000000000060230082126/400364200000000400364277969310821000000002170023700140  000000000008200000000000000000000000000000000000000000000000000000000000000000000000000000000000000000000000000000000                          0000000000                                                                  000105
1021903727600017200000260206200016896                         00000000400373072474000000000000000000000000060230082126/400373000000000400373072474020921000000000800023704159  000000000008200000000000000000000000000000000000000000000000000000000000000000000000000000000000000000000000000000000                          0000000000                                                                  000106
1021903727600017200000260206200016896                         00000000400373886064000000000000000000000000060230082126/400373800000000400373886064020921000000010000023704144  000000000008200000000000000000000000000000000000000000000000000000000000000000000000000000000000000000000000000000000                          0000000000                                                                  000107
1021903727600017200000260206200016896                         00000000400378845307000000000000000000000000060230082126/400378800000000400378845307310821000000000800023704452  000000000008200000000000000000000000000000000000000000000000000000000000000000000000000000000000000000000000000000000                          0000000000                                                                  000108
1021903727600017200000260206200016896                         00000000400382134237000000000000000000000000060230082126/400382100000000400382134237020921000000001500023704424  000000000008200000000000000000000000000000000000000000000000000000000000000000000000000000000000000000000000000000000                          0000000000                                                                  000109
1021903727600017200000260206200016896                         00000000400384153387000000000000000000000000060230082126/400384100000000400384153387020921000000000800023704159  000000000008200000000000000000000000000000000000000000000000000000000000000000000000000000000000000000000000000000000                          0000000000                                                                  000110
1021903727600017200000260206200016896                         00000000400385321577000000000000000000000000060230082126/400385300000000400385321577020921000000000800023704159  000000000008200000000000000000000000000000000000000000000000000000000000000000000000000000000000000000000000000000000                          0000000000                                                                  000111
1021903727600017200000260206200016896                         00000000400388565272000000000000000000000000060230082126/400388500000000400388565272310821000000000800023704159  000000000008200000000000000000000000000000000000000000000000000000000000000000000000000000000000000000000000000000000                          0000000000                                                                  000112
1021903727600017200000260206200016896                         00000000400392514674000000000000000000000000060230082126/400392500000000400392514674310821000000000800023704159  000000000008200000000000000000000000000000000000000000000000000000000000000000000000000000000000000000000000000000000                          0000000000                                                                  000113
1021903727600017200000260206200016896                         00000000400393874992000000000000000000000000060230082126/400393800000000400393874992020921000000002600023700435  000000000008200000000000000000000000000000000000000000000000000000000000000000000000000000000000000000000000000000000                          0000000000                                                                  000114
1021903727600017200000260206200016896                         00000000400395182540000000000000000000000000060230082126/400395100000000400395182540020921000000000800023704152  000000000008200000000000000000000000000000000000000000000000000000000000000000000000000000000000000000000000000000000                          0000000000                                                                  000115
1021903727600017200000260206200016896                         00000000400395497541000000000000000000000000060230082126/400395400000000400395497541020921000000010000023700153  000000000008200000000000000000000000000000000000000000000000000000000000000000000000000000000000000000000000000000000                          0000000000                                                                  000116
1021903727600017200000260206200016896                         00000000400399756711000000000000000000000000060230082126/400399700000000400399756711020921000000012000023704158  000000000008200000000000000000000000000000000000000000000000000000000000000000000000000000000000000000000000000000000                          0000000000                                                                  000117
1021903727600017200000260206200016896                         00000000400404479624000000000000000000000000060230082126/400404400000000400404479624020921000000002220023704151  000000000008200000000000000000000000000000000000000000000000000000000000000000000000000000000000000000000000000000000                          0000000000                                                                  000118
1021903727600017200000260206200016896                         00000000400409388562000000000000000000000000060230082126/400409300000000400409388562020921000000002010023704452  000000000000000000000000000000000000000000000000000000000000000000000000000000000000000000000000000000000000000000000                          7600000000                                                                  000119
1021903727600017200000260206200016896                         00000000400413675010000000000000000000000000060230082126/400413600000000400413675010310821000000003000023704400  000000000008200000000000000000000000000000000000000000000000000000000000000000000000000000000000000000000000000000000                          0000000000                                                                  000120
1021903727600017200000260206200016896                         00000000400416586663000000000000000000000000060230082126/400416500000000400416586663300821000000001500023700320  000000000008200000000000000000000000000000000000000000000000000000000000000000000000000000000000000000000000000000000                          0000000000                                                                  000121
1021903727600017200000260206200016896                         00000000400420344321000000000000000000000000060230082126/400420300000000400420344321020921000000000810023702062  000000000008200000000000000000000000000000000000000000000000000000000000000000000000000000000000000000000000000000000                          0000000000                                                                  000122
1021903727600017200000260206200016896                         00000000400421445806000000000000000000000000060230082126/400421400000000400421445806020921000000012000023700320  000000000008200000000000000000000000000000000000000000000000000000000000000000000000000000000000000000000000000000000                          0000000000                                                                  000123
1021903727600017200000260206200016896                         0000000040042417918P000000000000000000000000060230082126/40042410000000040042417918P020921000000002660023704422  000000000008200000000000000000000000000000000000000000000000000000000000000000000000000000000000000000000000000000000                          0000000000                                                                  000124
1021903727600017200000260206200016896                         00000000400431472216000000000000000000000000060230082126/400431400000000400431472216310821000000003500023704452  000000000008200000000000000000000000000000000000000000000000000000000000000000000000000000000000000000000000000000000                          0000000000                                                                  000125
1021903727600017200000260206200016896                         00000000400431562185000000000000000000000000060230082126/400431500000000400431562185310821000000007000023704452  000000000008200000000000000000000000000000000000000000000000000000000000000000000000000000000000000000000000000000000                          0000000000                                                                  000126
1021903727600017200000260206200016896                         00000000400439710701000000000000000000000000060230082126/400439700000000400439710701310821000000000800023704159  000000000008200000000000000000000000000000000000000000000000000000000000000000000000000000000000000000000000000000000                          0000000000                                                                  000127
1021903727600017200000260206200016896                         00000000400444096582000000000000000000000000060230082126/400444000000000400444096582310821000000003360023704159  000000000008200000000000000000000000000000000000000000000000000000000000000000000000000000000000000000000000000000000                          0000000000                                                                  000128
1021903727600017200000260206200016896                         00000000400458358342000000000000000000000000060230082126/400458300000000400458358342310821000000001500023704424  000000000008200000000000000000000000000000000000000000000000000000000000000000000000000000000000000000000000000000000                          0000000000                                                                  000129
1021903727600017200000260206200016896                         00000000400465346449000000000000000000000000060230082126/400465300000000400465346449310821000000000800023703109  000000000008200000000000000000000000000000000000000000000000000000000000000000000000000000000000000000000000000000000                          0000000000                                                                  000130
1021903727600017200000260206200016896                         00000000400466744081000000000000000000000000060230082126/400466700000000400466744081010921000000000800023704452  000000000008200000000000000000000000000000000000000000000000000000000000000000000000000000000000000000000000000000000                          0000000000                                                                  000131
1021903727600017200000260206200016896                         0000000040046723060P000000000000000000000000060230082126/40046720000000040046723060P310821000000001500023704151  000000000008200000000000000000000000000000000000000000000000000000000000000000000000000000000000000000000000000000000                          7600000000                                                                  000132
1021903727600017200000260206200016896                         00000000400477530202000000000000000000000000060230082126/400477500000000400477530202310821000000000800023704152  000000000008200000000000000000000000000000000000000000000000000000000000000000000000000000000000000000000000000000000                          0000000000                                                                  000133
1021903727600017200000260206200016896                         0000000040047806146P000000000000000000000000060230082126/40047800000000040047806146P310821000000005000023704151  000000000008200000000000000000000000000000000000000000000000000000000000000000000000000000000000000000000000000000000                          0000000000                                                                  000134
1021903727600017200000260206200016896                         00000000400478416756000000000000000000000000060230082126/400478400000000400478416756020921000000001000023704151  000000000008200000000000000000000000000000000000000000000000000000000000000000000000000000000000000000000000000000000                          7600000000                                                                  000135
1021903727600017200000260206200016896                         00000000400478853722000000000000000000000000060230082126/400478800000000400478853722020921000000000800023704452  000000000008200000000000000000000000000000000000000000000000000000000000000000000000000000000000000000000000000000000                          0000000000                                                                  000136
1021903727600017200000260206200016896                         00000000400482450330000000000000000000000000060230082126/400482400000000400482450330010921000000001500023704422  000000000008200000000000000000000000000000000000000000000000000000000000000000000000000000000000000000000000000000000                          0000000000                                                                  000137
1021903727600017200000260206200016896                         00000000400490245568000000000000000000000000060230082126/400490200000000400490245568010921000000004480023704452  000000000008200000000000000000000000000000000000000000000000000000000000000000000000000000000000000000000000000000000                          7600000000                                                                  000138
1021903727600017200000260206200016896                         00000000400500888624000000000000000000000000060230082126/400500800000000400500888624020921000000000800023704422  000000000008200000000000000000000000000000000000000000000000000000000000000000000000000000000000000000000000000000000                          0000000000                                                                  000139
1021903727600017200000260206200016896                         00000000400533179165000000000000000000000000060230082126/400533100000000400533179165310821000000000800023704159  000000000008200000000000000000000000000000000000000000000000000000000000000000000000000000000000000000000000000000000                          0000000000                                                                  000140
1021903727600017200000260206200016896                         00000000400540880294000000000000000000000000060230082126/400540800000000400540880294310821000000000800023704159  000000000008200000000000000000000000000000000000000000000000000000000000000000000000000000000000000000000000000000000                          0000000000                                                                  000141
1021903727600017200000260206200016896                         00000000400545879294000000000000000000000000060230082126/400545800000000400545879294020921000000004500023704400  000000000008200000000000000000000000000000000000000000000000000000000000000000000000000000000000000000000000000000000                          0000000000                                                                  000142
1021903727600017200000260206200016896                         00000000400550253476000000000000000000000000060230082126/400550200000000400550253476310821000000003000023704452  000000000008200000000000000000000000000000000000000000000000000000000000000000000000000000000000000000000000000000000                          0000000000                                                                  000143
1021903727600017200000260206200016896                         00000000400551733315000000000000000000000000060230082126/400551700000000400551733315010921000000001000023704158  000000000008200000000000000000000000000000000000000000000000000000000000000000000000000000000000000000000000000000000                          0000000000                                                                  000144
1021903727600017200000260206200016896                         00000000400553933788000000000000000000000000060230082126/400553900000000400553933788020921000000003500023700320  000000000008200000000000000000000000000000000000000000000000000000000000000000000000000000000000000000000000000000000                          0000000000                                                                  000145
1021903727600017200000260206200016896                         0000000040056871456P000000000000000000000000060230082126/40056870000000040056871456P310821000000000800023704422  000000000008200000000000000000000000000000000000000000000000000000000000000000000000000000000000000000000000000000000                          0000000000                                                                  000146
1021903727600017200000260206200016896                         00000000400573903389000000000000000000000000060230082126/400573900000000400573903389010921000000000800023704152  000000000008200000000000000000000000000000000000000000000000000000000000000000000000000000000000000000000000000000000                          0000000000                                                                  000147
1021903727600017200000260206200016896                         00000000400577215029000000000000000000000000060230082126/400577200000000400577215029020921000000000800023700389  000000000008200000000000000000000000000000000000000000000000000000000000000000000000000000000000000000000000000000000                          0000000000                                                                  000148
1021903727600017200000260206200016896                         00000000400579429697000000000000000000000000060230082126/400579400000000400579429697020921000000002150023704428  000000000008200000000000000000000000000000000000000000000000000000000000000000000000000000000000000000000000000000000                          0000000000                                                                  000149
1021903727600017200000260206200016896                         00000000400581835856000000000000000000000000060230082126/400581800000000400581835856310821000000001000023700320  000000000008200000000000000000000000000000000000000000000000000000000000000000000000000000000000000000000000000000000                          0000000000                                                                  000150
1021903727600017200000260206200016896                         00000000400589841359000000000000000000000000060230082126/400589800000000400589841359310821000000005000023704143  000000000008200000000000000000000000000000000000000000000000000000000000000000000000000000000000000000000000000000000                          7600000000                                                                  000151
1021903727600017200000260206200016896                         00000000400596418429000000000000000000000000060230082126/400596400000000400596418429020921000000000800023704143  000000000000000000000000000000000000000000000000000000000000000000000000000000000000000000000000000000000000000000000                          0000000000                                                                  000152
1021903727600017200000260206200016896                         00000000400597319955000000000000000000000000060230082126/400597300000000400597319955310821000000002000023700140  000000000008200000000000000000000000000000000000000000000000000000000000000000000000000000000000000000000000000000000                          0000000000                                                                  000153
1021903727600017200000260206200016896                         00000000400597918336000000000000000000000000060230082126/400597900000000400597918336020921000000010000023704143  000000000008200000000000000000000000000000000000000000000000000000000000000000000000000000000000000000000000000000000                          0000000000                                                                  000154
1021903727600017200000260206200016896                         00000000400602442973000000000000000000000000060230082126/400602400000000400602442973310821000000002000023700320  000000000008200000000000000000000000000000000000000000000000000000000000000000000000000000000000000000000000000000000                          0000000000                                                                  000155
1021903727600017200000260206200016896                         00000000400608150842000000000000000000000000060230082126/400608100000000400608150842310821000000000800023700435  000000000008200000000000000000000000000000000000000000000000000000000000000000000000000000000000000000000000000000000                          0000000000                                                                  000156
1021903727600017200000260206200016896                         00000000400614202099000000000000000000000000060230082126/400614200000000400614202099310821000000000800023700073  000000000008200000000000000000000000000000000000000000000000000000000000000000000000000000000000000000000000000000000                          0000000000                                                                  000157
1021903727600017200000260206200016896                         00000000400614325395000000000000000000000000060230082126/400614300000000400614325395010921000000005000023704159  000000000008200000000000000000000000000000000000000000000000000000000000000000000000000000000000000000000000000000000                          0000000000                                                                  000158
1021903727600017200000260206200016896                         00000000400614488456000000000000000000000000060230082126/400614400000000400614488456020921000000002660023704422  000000000008200000000000000000000000000000000000000000000000000000000000000000000000000000000000000000000000000000000                          0000000000                                                                  000159
1021903727600017200000260206200016896                         00000000400615799722000000000000000000000000060230082126/400615700000000400615799722310821000000000800023704159  000000000008200000000000000000000000000000000000000000000000000000000000000000000000000000000000000000000000000000000                          0000000000                                                                  000160
1021903727600017200000260206200016896                         00000000400621868930000000000000000000000000060230082126/400621800000000400621868930020921000000000800023704159  000000000008200000000000000000000000000000000000000000000000000000000000000000000000000000000000000000000000000000000                          0000000000                                                                  000161
1021903727600017200000260206200016896                         00000000400621899062000000000000000000000000060230082126/400621800000000400621899062020921000000000800023704154  000000000008200000000000000000000000000000000000000000000000000000000000000000000000000000000000000000000000000000000                          0000000000                                                                  000162
1021903727600017200000260206200016896                         00000000400622514032000000000000000000000000060230082126/400622500000000400622514032310821000000000800023700153  000000000008200000000000000000000000000000000000000000000000000000000000000000000000000000000000000000000000000000000                          0000000000                                                                  000163
1021903727600017200000260206200016896                         00000000400623966360000000000000000000000000060230082126/400623900000000400623966360310821000000000800023704452  000000000008200000000000000000000000000000000000000000000000000000000000000000000000000000000000000000000000000000000                          0000000000                                                                  000164
1021903727600017200000260206200016896                         0000000040063259297P000000000000000000000000060230082126/40063250000000040063259297P020921000000006000023704157  000000000008200000000000000000000000000000000000000000000000000000000000000000000000000000000000000000000000000000000                          0000000000                                                                  000165
1021903727600017200000260206200016896                         00000000400634393109000000000000000000000000060230082126/400634300000000400634393109020921000000001500023704426  000000000000000000000000000000000000000000000000000000000000000000000000000000000000000000000000000000000000000000000                          0000000000                                                                  000166
1021903727600017200000260206200016896                         00000000400637624179000000000000000000000000060230082126/400637600000000400637624179310821000000012000023704154  000000000008200000000000000000000000000000000000000000000000000000000000000000000000000000000000000000000000000000000                          0000000000                                                                  000167
1021903727600017200000260206200016896                         0000000040064415322P000000000000000000000000060230082126/40064410000000040064415322P310821000000000800023704159  000000000008200000000000000000000000000000000000000000000000000000000000000000000000000000000000000000000000000000000                          0000000000                                                                  000168
1021903727600017200000260206200016896                         00000000400645218139000000000000000000000000060230082126/400645200000000400645218139310821000000000800023700320  000000000008200000000000000000000000000000000000000000000000000000000000000000000000000000000000000000000000000000000                          0000000000                                                                  000169
1021903727600017200000260206200016896                         00000000400650671038000000000000000000000000060230082126/400650600000000400650671038310821000000001000023700320  000000000008200000000000000000000000000000000000000000000000000000000000000000000000000000000000000000000000000000000                          0000000000                                                                  000170
1021903727600017200000260206200016896                         00000000400651711041000000000000000000000000060230082126/400651700000000400651711041020921000000000800023704422  000000000008200000000000000000000000000000000000000000000000000000000000000000000000000000000000000000000000000000000                          0000000000                                                                  000171
1021903727600017200000260206200016896                         00000000400655449422000000000000000000000000060230082126/400655400000000400655449422310821000000000800023704159  000000000008200000000000000000000000000000000000000000000000000000000000000000000000000000000000000000000000000000000                          0000000000                                                                  000172
1021903727600017200000260206200016896                         00000000400656498958000000000000000000000000060230082126/400656400000000400656498958020921000000000800023704151  000000000008200000000000000000000000000000000000000000000000000000000000000000000000000000000000000000000000000000000                          0000000000                                                                  000173
1021903727600017200000260206200016896                         00000000400657114630000000000000000000000000060230082126/400657100000000400657114630010921000000000800023704452  000000000008200000000000000000000000000000000000000000000000000000000000000000000000000000000000000000000000000000000                          0000000000                                                                  000174
1021903727600017200000260206200016896                         00000000400658779253000000000000000000000000060230082126/400658700000000400658779253020921000000002000023704422  000000000008200000000000000000000000000000000000000000000000000000000000000000000000000000000000000000000000000000000                          0000000000                                                                  000175
1021903727600017200000260206200016896                         00000000400662980508000000000000000000000000060230082126/400662900000000400662980508020921000000000800023704159  000000000008200000000000000000000000000000000000000000000000000000000000000000000000000000000000000000000000000000000                          0000000000                                                                  000176
1021903727600017200000260206200016896                         00000000400664647334000000000000000000000000060230082126/400664600000000400664647334020921000000000800023704159  000000000008200000000000000000000000000000000000000000000000000000000000000000000000000000000000000000000000000000000                          0000000000                                                                  000177
1021903727600017200000260206200016896                         00000000400665026511000000000000000000000000060230082126/400665000000000400665026511020921000000000800023704159  000000000008200000000000000000000000000000000000000000000000000000000000000000000000000000000000000000000000000000000                          0000000000                                                                  000178
1021903727600017200000260206200016896                         00000000400669376789000000000000000000000000060230082126/400669300000000400669376789020921000000000800023704422  000000000008200000000000000000000000000000000000000000000000000000000000000000000000000000000000000000000000000000000                          0000000000                                                                  000179
1021903727600017200000260206200016896                         00000000400670650606000000000000000000000000060230082126/400670600000000400670650606020921000000000800023704159  000000000008200000000000000000000000000000000000000000000000000000000000000000000000000000000000000000000000000000000                          0000000000                                                                  000180
1021903727600017200000260206200016896                         00000000400671256138000000000000000000000000060230082126/400671200000000400671256138310821000000000800023704152  000000000008200000000000000000000000000000000000000000000000000000000000000000000000000000000000000000000000000000000                          0000000000                                                                  000181
1021903727600017200000260206200016896                         00000000400672450418000000000000000000000000060230082126/400672400000000400672450418310821000000000800023704159  000000000008200000000000000000000000000000000000000000000000000000000000000000000000000000000000000000000000000000000                          0000000000                                                                  000182
1021903727600017200000260206200016896                         00000000400677669205000000000000000000000000060230082126/400677600000000400677669205010921000000001330023700389  000000000008200000000000000000000000000000000000000000000000000000000000000000000000000000000000000000000000000000000                          0000000000                                                                  000183
1021903727600017200000260206200016896                         00000000400678457767000000000000000000000000060230082126/400678400000000400678457767020921000000000820023702062  000000000008200000000000000000000000000000000000000000000000000000000000000000000000000000000000000000000000000000000                          0000000000                                                                  000184
1021903727600017200000260206200016896                         00000000400678611499000000000000000000000000060230082126/400678600000000400678611499020921000000000800023704159  000000000008200000000000000000000000000000000000000000000000000000000000000000000000000000000000000000000000000000000                          0000000000                                                                  000185
1021903727600017200000260206200016896                         00000000400680675356000000000000000000000000060230082126/400680600000000400680675356310821000000000800023704152  000000000008200000000000000000000000000000000000000000000000000000000000000000000000000000000000000000000000000000000                          0000000000                                                                  000186
1021903727600017200000260206200016896                         00000000400683850574000000000000000000000000060230082126/400683800000000400683850574010921000000006000023700153  000000000008200000000000000000000000000000000000000000000000000000000000000000000000000000000000000000000000000000000                          0000000000                                                                  000187
1021903727600017200000260206200016896                         00000000400690881256000000000000000000000000060230082126/400690800000000400690881256020921000000012000023704274  000000000000000000000000000000000000000000000000000000000000000000000000000000000000000000000000000000000000000000000                          0000000000                                                                  000188
1021903727600017200000260206200016896                         00000000400690975188000000000000000000000000060230082126/400690900000000400690975188020921000000002500023704159  000000000008200000000000000000000000000000000000000000000000000000000000000000000000000000000000000000000000000000000                          0000000000                                                                  000189
1021903727600017200000260206200016896                         00000000400695144152000000000000000000000000060230082126/400695100000000400695144152020921000000010000023704400  000000000008200000000000000000000000000000000000000000000000000000000000000000000000000000000000000000000000000000000                          0000000000                                                                  000190
1021903727600017200000260206200016896                         00000000400697633622000000000000000000000000060230082126/400697600000000400697633622310821000000001500023704422  000000000008200000000000000000000000000000000000000000000000000000000000000000000000000000000000000000000000000000000                          0000000000                                                                  000191
1021903727600017200000260206200016896                         00000000400698083200000000000000000000000000060230082126/400698000000000400698083200020921000000000800023700389  000000000008200000000000000000000000000000000000000000000000000000000000000000000000000000000000000000000000000000000                          0000000000                                                                  000192
1021903727600017200000260206200016896                         00000000400698680969000000000000000000000000060230082126/400698600000000400698680969310821000000001550023704400  000000000008200000000000000000000000000000000000000000000000000000000000000000000000000000000000000000000000000000000                          0000000000                                                                  000193
1021903727600017200000260206200016896                         00000000400702524071000000000000000000000000060230082126/400702500000000400702524071310821000000000800023704159  000000000008200000000000000000000000000000000000000000000000000000000000000000000000000000000000000000000000000000000                          0000000000                                                                  000194
1021903727600017200000260206200016896                         00000000400703584868000000000000000000000000060230082126/400703500000000400703584868020921000000001500023704452  000000000008200000000000000000000000000000000000000000000000000000000000000000000000000000000000000000000000000000000                          0000000000                                                                  000195
1021903727600017200000260206200016896                         0000000040070687705P000000000000000000000000060230082126/40070680000000040070687705P310821000000000800023704602  000000000008200000000000000000000000000000000000000000000000000000000000000000000000000000000000000000000000000000000                          7600000000                                                                  000196
1021903727600017200000260206200016896                         00000000400707710469000000000000000000000000060230082126/400707700000000400707710469020921000000002000023704426  000000000000000000000000000000000000000000000000000000000000000000000000000000000000000000000000000000000000000000000                          0000000000                                                                  000197
1021903727600017200000260206200016896                         00000000400707793267000000000000000000000000060230082126/400707700000000400707793267020921000000002500023704143  000000000008200000000000000000000000000000000000000000000000000000000000000000000000000000000000000000000000000000000                          0000000000                                                                  000198
1021903727600017200000260206200016896                         00000000400708664177000000000000000000000000060230082126/400708600000000400708664177010921000000000800023702062  000000000008200000000000000000000000000000000000000000000000000000000000000000000000000000000000000000000000000000000                          0000000000                                                                  000199
1021903727600017200000260206200016896                         00000000400709589837000000000000000000000000060230082126/400709500000000400709589837020921000000003000023704143  000000000008200000000000000000000000000000000000000000000000000000000000000000000000000000000000000000000000000000000                          0000000000                                                                  000200
1021903727600017200000260206200016896                         00000000400710195230000000000000000000000000060230082126/400710100000000400710195230310821000000001500023704424  000000000008200000000000000000000000000000000000000000000000000000000000000000000000000000000000000000000000000000000                          0000000000                                                                  000201
1021903727600017200000260206200016896                         00000000400716774518000000000000000000000000060230082126/400716700000000400716774518010921000000003000023704422  000000000008200000000000000000000000000000000000000000000000000000000000000000000000000000000000000000000000000000000                          0000000000                                                                  000202
1021903727600017200000260206200016896                         00000000400723604903000000000000000000000000060230082126/400723600000000400723604903020921000000000800023704159  000000000008200000000000000000000000000000000000000000000000000000000000000000000000000000000000000000000000000000000                          0000000000                                                                  000203
1021903727600017200000260206200016896                         0000000040073025697P000000000000000000000000060230082126/40073020000000040073025697P310821000000000800023704159  000000000008200000000000000000000000000000000000000000000000000000000000000000000000000000000000000000000000000000000                          0000000000                                                                  000204
1021903727600017200000260206200016896                         00000000400741050389000000000000000000000000060230082126/400741000000000400741050389310821000000005000023702062  000000000008200000000000000000000000000000000000000000000000000000000000000000000000000000000000000000000000000000000                          0000000000                                                                  000205
1021903727600017200000260206200016896                         00000000400741726099000000000000000000000000060230082126/400741700000000400741726099310821000000000800023704159  000000000008200000000000000000000000000000000000000000000000000000000000000000000000000000000000000000000000000000000                          0000000000                                                                  000206
1021903727600017200000260206200016896                         00000000400744412346000000000000000000000000060230082126/400744400000000400744412346020921000000000800023704422  000000000008200000000000000000000000000000000000000000000000000000000000000000000000000000000000000000000000000000000                          0000000000                                                                  000207
1021903727600017200000260206200016896                         00000000400745593034000000000000000000000000060230082126/400745500000000400745593034020921000000000830023704452  000000000008200000000000000000000000000000000000000000000000000000000000000000000000000000000000000000000000000000000                          0000000000                                                                  000208
1021903727600017200000260206200016896                         00000000400745881978000000000000000000000000060230082126/400745800000000400745881978020921000000005210023704158  000000000008200000000000000000000000000000000000000000000000000000000000000000000000000000000000000000000000000000000                          0000000000                                                                  000209
1021903727600017200000260206200016896                         00000000400747834063000000000000000000000000060230082126/400747800000000400747834063010921000000020000023700321  000000000008200000000000000000000000000000000000000000000000000000000000000000000000000000000000000000000000000000000                          0000000000                                                                  000210
1021903727600017200000260206200016896                         00000000400749114645000000000000000000000000060230082126/400749100000000400749114645020921000000003000023704436  000000000008200000000000000000000000000000000000000000000000000000000000000000000000000000000000000000000000000000000                          0000000000                                                                  000211
1021903727600017200000260206200016896                         00000000400751633382000000000000000000000000060230082126/400751600000000400751633382020921000000003100023704158  000000000008200000000000000000000000000000000000000000000000000000000000000000000000000000000000000000000000000000000                          0000000000                                                                  000212
1021903727600017200000260206200016896                         00000000400752327072000000000000000000000000060230082126/400752300000000400752327072010921000000001000023704602  000000000008200000000000000000000000000000000000000000000000000000000000000000000000000000000000000000000000000000000                          0000000000                                                                  000213
1021903727600017200000260206200016896                         00000000400753196354000000000000000000000000060230082126/400753100000000400753196354020921000000000800023704422  000000000008200000000000000000000000000000000000000000000000000000000000000000000000000000000000000000000000000000000                          0000000000                                                                  000214
1021903727600017200000260206200016896                         00000000400753873356000000000000000000000000060230082126/400753800000000400753873356020921000000000800023704159  000000000008200000000000000000000000000000000000000000000000000000000000000000000000000000000000000000000000000000000                          0000000000                                                                  000215
1021903727600017200000260206200016896                         00000000400765872045000000000000000000000000060230082126/400765800000000400765872045020921000000003000023704144  000000000008200000000000000000000000000000000000000000000000000000000000000000000000000000000000000000000000000000000                          0000000000                                                                  000216
1021903727600017200000260206200016896                         00000000400769473242000000000000000000000000060230082126/400769400000000400769473242310821000000005000023704422  000000000008200000000000000000000000000000000000000000000000000000000000000000000000000000000000000000000000000000000                          0000000000                                                                  000217
1021903727600017200000260206200016896                         00000000400777214523000000000000000000000000060230082126/400777200000000400777214523020921000000030000023700321  000000000008200000000000000000000000000000000000000000000000000000000000000000000000000000000000000000000000000000000                          0000000000                                                                  000218
1021903727600017200000260206200016896                         00000000400786942078000000000000000000000000060230082126/400786900000000400786942078310821000000006560023704152  000000000008200000000000000000000000000000000000000000000000000000000000000000000000000000000000000000000000000000000                          0000000000                                                                  000219
1021903727600017200000260206200016896                         00000000400788811663000000000000000000000000060230082126/400788800000000400788811663020921000000000800023704422  000000000008200000000000000000000000000000000000000000000000000000000000000000000000000000000000000000000000000000000                          0000000000                                                                  000220
1021903727600017200000260206200016896                         00000000400794264747000000000000000000000000060230082126/400794200000000400794264747010921000000003860023704157  000000000008200000000000000000000000000000000000000000000000000000000000000000000000000000000000000000000000000000000                          0000000000                                                                  000221
1021903727600017200000260206200016896                         00000000400795177279000000000000000000000000060230082126/400795100000000400795177279020921000000015000023704157  000000000008200000000000000000000000000000000000000000000000000000000000000000000000000000000000000000000000000000000                          0000000000                                                                  000222
1021903727600017200000260206200016896                         00000000400816105125000000000000000000000000060230082126/400816100000000400816105125010921000000005000023704159  000000000008200000000000000000000000000000000000000000000000000000000000000000000000000000000000000000000000000000000                          0000000000                                                                  000223
1021903727600017200000260206200016896                         00000000400817761476000000000000000000000000060230082126/400817700000000400817761476020921000000001600023700320  000000000008200000000000000000000000000000000000000000000000000000000000000000000000000000000000000000000000000000000                          0000000000                                                                  000224
1021903727600017200000260206200016896                         00000000400819031726000000000000000000000000060230082126/400819000000000400819031726020921000000250000023704143  000000000000000000000000000000000000000000000000000000000000000000000000000000000000000000000000000000000000000000000                          0000000000                                                                  000225
1021903727600017200000260206200016896                         00000000400825752605000000000000000000000000060230082126/400825700000000400825752605020921000000002000023704159  000000000008200000000000000000000000000000000000000000000000000000000000000000000000000000000000000000000000000000000                          7600000000                                                                  000226
1021903727600017200000260206200016896                         00000000400826077219000000000000000000000000060230082126/400826000000000400826077219310821000000000800023704452  000000000008200000000000000000000000000000000000000000000000000000000000000000000000000000000000000000000000000000000                          0000000000                                                                  000227
1021903727600017200000260206200016896                         00000000400832625864000000000000000000000000060230082126/400832600000000400832625864020921000000002300023700140  000000000008200000000000000000000000000000000000000000000000000000000000000000000000000000000000000000000000000000000                          0000000000                                                                  000228
1021903727600017200000260206200016896                         00000000400835457148000000000000000000000000060230082126/400835400000000400835457148020921000000000800023704159  000000000008200000000000000000000000000000000000000000000000000000000000000000000000000000000000000000000000000000000                          0000000000                                                                  000229
1021903727600017200000260206200016896                         00000000400837873335000000000000000000000000060230082126/400837800000000400837873335020921000000000800023704154  000000000008200000000000000000000000000000000000000000000000000000000000000000000000000000000000000000000000000000000                          7600000000                                                                  000230
1021903727600017200000260206200016896                         00000000400840772930000000000000000000000000060230082126/400840700000000400840772930020921000000005000023704602  000000000008200000000000000000000000000000000000000000000000000000000000000000000000000000000000000000000000000000000                          0000000000                                                                  000231
1021903727600017200000260206200016896                         0000000040084475564P000000000000000000000000060230082126/40084470000000040084475564P310821000000000800023704159  000000000008200000000000000000000000000000000000000000000000000000000000000000000000000000000000000000000000000000000                          0000000000                                                                  000232
1021903727600017200000260206200016896                         00000000400847072616000000000000000000000000060230082126/400847000000000400847072616020921000000001000023704151  000000000008200000000000000000000000000000000000000000000000000000000000000000000000000000000000000000000000000000000                          0000000000                                                                  000233
1021903727600017200000260206200016896                         0000000040085404167P000000000000000000000000060230082126/40085400000000040085404167P310821000000000800023700321  000000000008200000000000000000000000000000000000000000000000000000000000000000000000000000000000000000000000000000000                          0000000000                                                                  000234
1021903727600017200000260206200016896                         00000000400855770071000000000000000000000000060230082126/400855700000000400855770071010921000000003000023700153  000000000008200000000000000000000000000000000000000000000000000000000000000000000000000000000000000000000000000000000                          0000000000                                                                  000235
1021903727600017200000260206200016896                         00000000400856206919000000000000000000000000060230082126/400856200000000400856206919310821000000000800023704159  000000000008200000000000000000000000000000000000000000000000000000000000000000000000000000000000000000000000000000000                          0000000000                                                                  000236
1021903727600017200000260206200016896                         00000000400863494628000000000000000000000000060230082126/400863400000000400863494628020921000000001750023704426  000000000008200000000000000000000000000000000000000000000000000000000000000000000000000000000000000000000000000000000                          0000000000                                                                  000237
1021903727600017200000260206200016896                         0000000040087043245P000000000000000000000000060230082126/40087040000000040087043245P020921000000001500023704452  000000000008200000000000000000000000000000000000000000000000000000000000000000000000000000000000000000000000000000000                          7600000000                                                                  000238
1021903727600017200000260206200016896                         00000000400872146780000000000000000000000000060230082126/400872100000000400872146780020921000000012000023700140  000000000008200000000000000000000000000000000000000000000000000000000000000000000000000000000000000000000000000000000                          0000000000                                                                  000239
1021903727600017200000260206200016896                         00000000400882335336000000000000000000000000060230082126/400882300000000400882335336020921000000005800023704157  000000000008200000000000000000000000000000000000000000000000000000000000000000000000000000000000000000000000000000000                          0000000000                                                                  000240
1021903727600017200000260206200016896                         00000000400888456003000000000000000000000000060230082126/400888400000000400888456003020921000000004000023704422  000000000008200000000000000000000000000000000000000000000000000000000000000000000000000000000000000000000000000000000                          7600000000                                                                  000241
1021903727600017200000260206200016896                         00000000400894413537000000000000000000000000060230082126/400894400000000400894413537010921000000004000023704452  000000000008200000000000000000000000000000000000000000000000000000000000000000000000000000000000000000000000000000000                          7600000000                                                                  000242
1021903727600017200000260206200016896                         00000000400895318902000000000000000000000000060230082126/400895300000000400895318902020921000000002000023704152  000000000008200000000000000000000000000000000000000000000000000000000000000000000000000000000000000000000000000000000                          7600000000                                                                  000243
1021903727600017200000260206200016896                         00000000400908516628000000000000000000000000060230082126/400908500000000400908516628010921000000012000023704144  000000000008200000000000000000000000000000000000000000000000000000000000000000000000000000000000000000000000000000000                          0000000000                                                                  000244
1021903727600017200000260206200016896                         00000000400915952867000000000000000000000000060230082126/400915900000000400915952867020921000000001900023704158  000000000008200000000000000000000000000000000000000000000000000000000000000000000000000000000000000000000000000000000                          0000000000                                                                  000245
1021903727600017200000260206200016896                         00000000400916109179000000000000000000000000060230082126/400916100000000400916109179020921000000001110023704602  000000000008200000000000000000000000000000000000000000000000000000000000000000000000000000000000000000000000000000000                          0000000000                                                                  000246
1021903727600017200000260206200016896                         00000000400916180906000000000000000000000000060230082126/400916100000000400916180906020921000000002500023700320  000000000008200000000000000000000000000000000000000000000000000000000000000000000000000000000000000000000000000000000                          0000000000                                                                  000247
1021903727600017200000260206200016896                         00000000400923762228000000000000000000000000060230082126/400923700000000400923762228020921000000008000023704143  000000000008200000000000000000000000000000000000000000000000000000000000000000000000000000000000000000000000000000000                          0000000000                                                                  000248
